:1000000000000120556600008D660000F515000017
:1000100091660000011600000716000000000000B5
:1000200000000000000000000000000097660000D3
:1000300099660000000000009B6600009D660000BD
:100040009F6600009F6600009F6600009F6600009C
:100050009F6600009F6600009F6600009F6600008C
:100060009F6600009F6600009F6600009F6600007C
:100070009F660000C99200009F6600009F66000016
:100080009F6600009F6600009F6600009F6600005C
:100090009F6600009F6600009F6600009F6600004C
:1000A0009F6600009F6600009F6600009F6600003C
:1000B0009F6600009F660000000000000000000036
:1000C0009F6600009F6600009F6600009F6600001C
:1000D0009F6600009F6600009F66000010B5054CFB
:1000E000237833B9044B13B10448AFF300800123E4
:1000F000237010BDB80200200000000008D40000EA
:1001000008B5034B1BB103490348AFF3008008BD9A
:1001100000000000BC02002008D40000A3F5803AD3
:10012000704700BF154B002B08BF114B9D46FFF7D2
:10013000F5FF00218B460F461148124A121A0BF0A8
:10014000C2FB0C4B002B00D098470B4B002B00D070
:1001500098470020002104000D000B4801F092FF99
:100160000BF0D4FA2000290002F0D6F901F087FF45
:100170000000080000000000D12400000000012061
:10018000B8020020980C0020B9B1000010B5044658
:1001900000F031FD204610BD37B51148114D002447
:1001A00004701F2100F074FD0F480E21047000F050
:1001B00068FD0E4C0E490C482A4601F05EFF4FF0D8
:1001C000FF330093052203230421204600F050FB57
:1001D00008492A46204603B0BDE8304001F04DBF33
:1001E000D4020020E0000020D5020020D802002028
:1001F0008D01000089070000024608B552F8043B53
:100200002BB903681BB902601346184608BD934218
:10021000FBD0024902488B2201F038FBCCC200001F
:10022000FFC20000036801221B6900211847036810
:1002300000221B69114618476FF01500704707B57B
:10024000019001F0C3FB0198012106F011FE03B0FB
:100250005DF804EB01F0D0BB07B5019001F0B6FBEF
:100260000198002106F004FE03B05DF804EB01F0F4
:10027000C3BB07B5CDE9001001F0A8FBDDE9001014
:1002800006F0D4FD03B05DF804EB01F0B5BB00004F
:1002900008B5034653F8042B1AB902680AB903607B
:1002A00008BD9A42FCD0024902488B2201F0EEFAC6
:1002B000CCC20000FFC2000038B505460A48FFF76F
:1002C000E7FF284606F030FC044650B9284606F001
:1002D000BDFC02F0E1F868600348FFF7D9FF204653
:1002E00038BD4FF0FF34F7E72C03002038B5054642
:1002F0000948FFF7CDFF284606F034FC041E686865
:1003000018BF0124644208B102F0DEF80248FFF78A
:10031000BFFF204638BD00BF2C0300202DE9F74F5A
:1003200015460F460646994606F090FC04463046B0
:1003300006F074FC8346304606F08AFC0090304696
:1003400006F088FCB5FBF4F104FB11588246B8F1C5
:10035000000F5BD1002F59D0009A09EB05030BEB7E
:100360000200834252D82B48FFF792FF4146B9F171
:10037000000F02D051B14FF0FF3126480091FFF736
:1003800087FF0099084603B0BDE8F08F2946304644
:1003900006F04CFCB5FBF0F300FB1353C31A4B45BE
:1003A00028BF4B46BA0701D1A34229D2A34228BF96
:1003B0002346984670681A4639460BF055FAA04510
:1003C00006D27068A4EB0802514640440BF07BFA59
:1003D000726823464FF0100B29463046CDE90023C2
:1003E00006F0E4FB014630B1BBF1010BDDE900236F
:1003F000F2D14FF0FF31A9EB080945444744B6E775
:10040000B3FBF4F3634398463A46E3E74FF0FF311A
:10041000B8E700BF2C0300202DE9F0410D46174638
:10042000064606F0FBFB0446304606F011FC20446D
:10043000EC19A04204D24FF0FF342046BDE8F08111
:100440000BD81548FFF724FF002417B184B14FF0F3
:10045000FF341148FFF71CFFEFE72146304606F056
:10046000E5FBB4FBF0F303FB1044002CE3D1E8E719
:100470004FF010082946304606F076FB044620B1BE
:10048000B8F10108F6D14FF0FF342946304606F0A6
:10049000CDFB3F1A0544D8E72C03002006F0D6BB5D
:1004A00006F0C4BB416830B4034671B1D0E9032003
:1004B00000F0010402B944B1451001EB60000CB139
:1004C00049598A58996830BC104730BC70470000C1
:1004D000044B10B504460360806A08B100F03CFE8E
:1004E000204610BD80C3000010B50446FFF7F0FFA2
:1004F0002046882101F0E6FF204610BD08B5431CC8
:1005000004D108490848212201F0C0F9012303FA67
:1005100000F04FF0A04311B1C3F8080508BDC3F8BF
:100520000C05FBE722C300005DC300007FB5064653
:100530001D4656F8303BCDE902211B68044698471A
:100540009DF8203083F00103DDE90221009330465D
:100550002B4606F0B1FD236806465B6820469847A7
:10056000A81B18BF012004B070BD7FB506461D460C
:1005700056F8303BCDE902211B68044698479DF8A8
:10058000203083F00103DDE90221009330462B4641
:1005900006F076FD236806465B6820469847A81B50
:1005A00018BF012004B070BD7FB500240126154698
:1005B0002346224602A800968DF8084000F06BFB07
:1005C00003A800962346224629468DF80C4000F0E9
:1005D00062FB03A806F00AFC002853D002A806F02C
:1005E00005FCB04202D1002004B070BD214603A832
:1005F000FFF73FFE03A8FFF722FE0A24002103A80D
:10060000FFF737FE00219DF90C00FFF777FF05206B
:1006100001F08FFF032103A8FFF72BFE9DF90C00CB
:100620000121FFF76BFF052001F083FF013CE5D1BD
:1006300002A8FFF704FE21469DF90800FFF75EFFC0
:10064000052001F076FF01219DF90C00FFF756FF10
:10065000052001F06EFF01219DF90800FFF74EFF14
:10066000052001F066FF02A8FFF7F6FD03A8FFF7DB
:10067000F3FD03A806F0BAFB20B102A806F0B6FB12
:100680000028B0D16FF00100AEE708B57C30FFF76D
:10069000B3FD08BD2DE9F8431A4B036000251A4B42
:1006A000056100F1300904460E4617462946C0E9A7
:1006B0000755C0E909554361858548228061484650
:1006C0000BF001F904F17C08104BA367E56784F88F
:1006D00080504046FFF790FD3A46314684F88460EA
:1006E00084F885702046FFF75FFF94F9852094F920
:1006F0008410484606F07EFC4046FFF77DFD20460C
:10070000BDE8F88380C30000A5040000A0860100B6
:10071000416830B4034671B1D0E9032000F0010410
:1007200002B944B1451001EB60000CB149598A5837
:10073000996830BC104730BC704713B590F935301C
:100740004468009390F9343090F9332090F93210D6
:10075000201D07F099FA02B010BD0000426808B5EC
:10076000D36C02F150011BB9D36C0BB9D16408BD35
:100770008B42FCD0024903488B2201F087F800BF6E
:10078000CCC20000FFC2000010B50A4B0360044653
:10079000FFF7E4FF63685A6DA24208BF00222046BB
:1007A00008BF5A65FFF7DAFFE06908B100F0D4FC32
:1007B000204610BD24C4000010B50446FFF7E4FF36
:1007C0002046542101F07EFE204610BD38B5054676
:1007D00001F0FCF8074B1B68002B08DD064C237862
:1007E000AB4218BF002401F007F9204638BD0024B1
:1007F000F9E700BF8C03002034030020084A08B545
:100800001368002B04DD07490748AF2201F03EF8CA
:10081000591C1160054A582000FB032008BD00BF89
:100820008C030020D0C30000F1C30000340300207B
:100830000023082210B5C0E90E2303860B4B036486
:100840000446FF23A0F8443001F0C0F894F84C00AF
:10085000FFF7BCFF606028B9FFF7D0FF94F84C3079
:1008600060600370BDE8104001F0C6B840420F0060
:1008700038B50446124820601248A0602046002582
:1008800084F834309DF9103084F8321084F8332025
:1008900084F83530C4E90455E460A561E561E5629A
:1008A0004FF0FF3100F8365F00F0F2F9064BA56417
:1008B0002046236584F84C50FFF7BAFF204638BD28
:1008C00024C40000110700003B07000038B50446AF
:1008D000124820601248A0602046002584F8343079
:1008E000FF2384F8321084F8332084F83530C4E9CB
:1008F00004559DF91010E460A561E561E5620122EF
:1009000000F8365F00F0C0F9064BA5642046236569
:1009100084F84C50FFF78CFF204638BD24C40000FB
:10092000110700003B07000043685B6D834210B570
:1009300004460FD0036D98476068D4E90E12002377
:10094000043007F0F9F96068216C043007F018FAF8
:1009500063685C6510BD036870B504461B690D468D
:10096000984760682564436DA34209D12946043045
:1009700007F006FA236820465B69BDE87040184717
:100980002046FFF7D1FFF5E790F93620531C09D038
:10099000012393404FF0A04211B1C2F808357047CF
:1009A000C2F80C35704738B5036804461B69984790
:1009B00094F945506B1C84F8453045B92046FFF743
:1009C000B3FF29462046BDE83840FFF7DDBF38BDFC
:1009D00010B590F84530013B5BB2044680F84530D5
:1009E00013B90121FFF7D0FF236820465B69BDE8FA
:1009F0001040184737B504460191FFF7D4FF6068EF
:100A00000199043007F0F4F905462046FFF7E0FFAE
:100A1000284603B030BD30B5044687B0CDE9042187
:100A20000393FFF7C0FF94F84450606801950A9D56
:100A300005990095DDE90332043007F00DFA05460B
:100A40002046FFF7C5FF284607B030BD002070479D
:100A500000290CBF6FF0180000207047012070477C
:100A60006FF0150070476FF0150070471120704748
:100A700084B001A880E80E0004B07047437D10B533
:100A800004461BB1037D0BB101F074F9204610BD83
:100A900013B5044601A800F067FB637D53B9237DBD
:100AA0000BB101F051F9206900F018FBC4E9000115
:100AB0000123637501A800F05FFB02B010BD37B5DC
:100AC00004460D4601A800F04FFB00230022C4E9B4
:100AD00000236B7D4BB1286900F000FBD5E90032A3
:100AE000C01A61EB0201C4E9000101A800F044FB57
:100AF000204603B030BD30B585B004460D4603A88E
:100B000000F032FB29466846FFF7D9FFD5E90221FC
:100B1000009B9B18019A42EB0102C4E9003203A832
:100B200000F02AFB204605B030BD07B501466846F7
:100B3000FFF7E1FFDDE900014FF47A7200230BF0CB
:100B4000FFF903B05DF804FB13B5044601A800F0FB
:100B50000BFB206900F0C2FA00220023C4E9000167
:100B6000C4E9022301A800F007FB02B010BDD0B514
:100B7000002300260027C0E90067C0E90267044699
:100B8000016102754375FFF7DFFF2046D0BD10B548
:100B9000044600F0CDFA012201462046FFF7E7FFA8
:100BA000204610BD03681B681847000010B50446B6
:100BB000074B236000220023C4E9022300230846D8
:100BC000A161C4E90433034900F018FA204610BDBE
:100BD00044C40000A50B000007B5009000F1080117
:100BE000806900F048FA03B05DF804FB00F10801E9
:100BF000806900F058BA704770B50E460446154635
:100C000006F0D0F8013609D02046002106F030F970
:100C100029462046BDE8704006F008B970BD0000C6
:100C200008B5431C04D108490848212200F02EFED3
:100C3000012303FA00F04FF0A04311B1C3F80805F7
:100C400008BDC3F80C05FBE722C300005DC300002C
:100C5000F8B50F46044615461E4606F0A3F80137C0
:100C60000ED094F900003146FFF7DAFF204601214B
:100C700006F0FEF829462046BDE8F84006F0D6B852
:100C8000F8BD0322FFF7B8BF13460022FFF7E0BF0D
:100C90000022FFF7F9BF73B5164604461A460D4603
:100CA000069B6EB90193FFF7A7FF01350DD0019B9D
:100CB00094F90000194602B0BDE87040FFF7B0BFDC
:100CC00002B0BDE87040FFF7C3BF02B070BD0000C6
:100CD0000048704748C40000024B1B680BB1024833
:100CE00018477047E400002048C40000F8B5446885
:100CF00094F832608EBB03685B689847226A824230
:100D00002BD023692062821A1A40A368A2FB03C178
:100D100094F93420CAB1606A10EB0C0541F100016E
:100D2000002A1BDBC2F12000A2F1200325FA02FCFD
:100D300001FA00F021FA03F34CEA000C4CEA030C30
:100D4000D1400CFA02F2AA1A6262D4E90A3213EB19
:100D50000C0341EB0201C4E90A31F8BDE7683346F0
:100D60003A4628460BF03CF9844607FB1050606277
:100D7000EBE7824206D98A420BD9884294BF002011
:100D800001207047884206D98A428CBF002001208A
:100D90007047012070470020704700002DE9F7439D
:100DA00047683B6B23F07F4929F0FF090646B9F1FC
:100DB000000F5ED1FFF79AFF7B68002B5CD0D3E970
:100DC0000040D7E90A23A242834105D333685B6917
:100DD00003B0BDE8F04318477568D5E90A23A41AA3
:100DE000D5E9058260EB0300EB69A24283411ED383
:100DF000EB68A3FB044103FB001195F933309BB171
:100E0000AA68501E001941F10001002B1DDBC3F13F
:100E1000200CA3F1200220FA03F401FA0CFC44EAAE
:100E20000C0421FA02F21443A04528BFA0462B6A05
:100E300008EB03022B691A403B6A93420AD114491A
:100E4000144840F2C91200F021FD4B460BF0C8F8DF
:100E50000446E9E73368019210461B6998473368F6
:100E60005B689847019A0146386AFFF782FF0028BD
:100E7000ACD103B0BDE8F0837B69386A3A691844A5
:100E800033681B69104003B0BDE8F043184700BF4A
:100E900074C400009BC400004368F7B593F8302089
:100EA0000546002A7AD193F83230002B76D10368B8
:100EB0001B6898472B68DB69984703682BB938494A
:100EC000384800931A4600F09DFE374A1F461446E4
:100ED000B7FBF2F204FB12722746002AF7D16E68C4
:100EE0003149B1FBF4F11F22B1600127013A03D36C
:100EF00007FA02FC6145F9D186F83320B3FBF4F21E
:100F00001F23F260012404FA03F7BA4201D0013B27
:100F1000F9D286F834304068071F1C2F05D900230A
:100F20002249234800931A46CDE720281CBF0123FD
:100F300083404FF0070404FA07F414BF03F1FF33B2
:100F40004FF0FF3333617461E017A4FB01430027C6
:100F500001FB0031531E47F1FF3CE01841EB0C014F
:100F60003B460BF03DF82B68C6E90601C6E9007761
:100F70005B6898476B683062002101220020C3E95A
:100F80000A015F6228461A8683F83270FFF7AEFEC8
:100F9000284603B0BDE8F040FFF700BF03B0F0BD46
:100FA000BFC400000E01048040420F00D8C40000FE
:100FB00005010480F3B44568069C8C60C1E90023F8
:100FC0006C68002734B9CC607FB9696002B0F0BCAE
:100FD000FFF7E4BE666801962668B242019E73EB95
:100FE0000606F0D32746E468ECE7F960D5E90A4144
:100FF00094429941EAD202B0F0BC704738B5054638
:101000000C46FFF749FF00F0E1FC6B681C60BDE88F
:10101000384000F0F1BC70B5054600F0D7FCD5E9CA
:101020000034DB68984794F832301BB1BDE870405B
:1010300000F0E2BC012384F831306368A3B1284694
:10104000FFF754FE6368D4E90A62D3E900018642DF
:101050008A4109D36A68DB68526863602368002BA1
:10106000EBD090689847E8E7002384F831302846B1
:10107000FFF794FEDAE710B586B0CDE904210393BB
:10108000089C029000F0A2FC0298FFF72FFEDDE919
:101090000332059902980094FFF78CFF06B0BDE873
:1010A000104000F0A9BC38B505460C4600F08EFC97
:1010B0006A685368A34209D1DB6853602846FFF78A
:1010C0006DFEBDE8384000F097BC1346002BF8D009
:1010D000DA68A242F9D1E268DA60F2E713B50446B1
:1010E000FFF7DAFE00F072FC2046FFF7FFFD6368B1
:1010F000D3E90A01CDE9000100F07EFCDDE9000141
:1011000002B010BD08B5FFF7E9FF08BD024B002291
:101110001A7006F09FBF00BFC803002008B506F094
:1011200007FF024B01221A7008BD00BFC803002050
:101130000048704714C50000024B1B680BB1024801
:1011400018477047E800002014C5000091F90C20F2
:1011500091F9041006F0EABA024B1B6803B1184774
:10116000704700BF0804002007B5019000F02EFC76
:10117000019803B05DF804FB07B5019000F03CFC5A
:10118000019803B05DF804FB08B5034653F8042B3F
:101190001AB902680AB9036008BD9A42FCD0024934
:1011A00002488B2200F072FBCCC20000FFC200009C
:1011B00010B5124B036004461148FFF7E5FFA36822
:1011C0002BB1104962680B68A34210D10A600E4B24
:1011D0000B481A68A24204BF00221A60FFF7D4FF2E
:1011E000237B13B9201F00F079FE204610BD19465D
:1011F0005B68A342FBD14A60E9E700BF50C500002D
:10120000100400200C0400201804002010B504462F
:10121000FFF7CEFF2046102101F054F9204610BD03
:1012200038B50B4B03600023C0E9013104460D467D
:1012300002730848FFF7A8FF45B1074B1A686260C0
:101240001C600448FFF7A0FF204638BD6560F8E742
:1012500050C50000100400200C040020F8B506461C
:1012600014480D46FFF790FF134B1C6874B9072D07
:1012700019D112482A4631460AF0E6FA98B90D48C3
:10128000FFF782FF0E4B1C682046F8BDA76877B1B8
:1012900038460AF0DEFCA84209D12A4631463846D3
:1012A0000AF0D2FA18B90348FFF76EFFECE764685A
:1012B000DCE700BF100400200C04002040C5000043
:1012C00018040020007B704770B50E460025C0E969
:1012D00000550E49044630460AF0C3FC304403462C
:1012E00029461A782F2A07D10133236049B90849C2
:1012F00008482A2200F0CAFA002AF6D00131013348
:10130000EFE7FFF7ABFF6060204670BD58C50000F7
:101310005AC5000081C5000000687047406808B5E4
:1013200020B1FFF7CFFF431E5842584108BD10B50A
:101330000446FFF7F3FF10B1606800B1043810BD38
:10134000406808B520B1FFF7BDFFB0FA80F0400952
:1013500008BD10B50446FFF7F3FF10B1606800B197
:10136000043810BD4068003818BF012070476FF086
:10137000570070476FF0570070476FF05700704785
:1013800008B5024902488E2200F080FAB8C5000074
:10139000DFC5000010B504460846FFF79FFEC4E90C
:1013A0000001204610BD000010B50446FFF7FEFB0B
:1013B00020460A4B40F8203BA169FFF7EBFFD4E938
:1013C0000823C4E90A2300220023C4E90C230023D4
:1013D000C4E90E3384F84030204610BD10C600002A
:1013E00038B590F83F5004460DB1FFF7C9FFFFF73D
:1013F000FDFB94F84030A5872BB184F84050BDE840
:10140000384000F0B7BC38BD10B5044601F13000DB
:1014100000F06BFAC4E90001204610BDD0E90C329F
:10142000013342F10002C0E90C32D0E90A3213F56F
:101430007A7342F10002C0E90A327047D0E90A2308
:1014400012F57A7243F10003FFF7C6BB37B50D46BC
:10145000044689696846FFF79DFFD5E90A3200987E
:101460000199C01A61EB0201B0F57A7F71F10003B6
:1014700006D200220023C4E90023204603B030BD79
:10148000B0F5FA6F71F1000301D20122F2E70029F1
:101490004FF47A724FF00003D8BF00210AF0A0FD8C
:1014A000C4E90001E9E7000091F83F30F7B50546CF
:1014B0000C4613B991F83C6026B112491248E52256
:1014C00000F0E4F96846FFF7C1FFDDE900304FF4B2
:1014D0007A71A3FB017201FB0022A663D4E90A160C
:1014E000C91942EB0602C4E90A12D4E90C125B18CE
:1014F00042EB00022846C4E90C32C5E9003203B0D1
:10150000F0BD00BFB8C50000E9C50000F0B51E463B
:1015100090F83F3085B00446174623B11F49204854
:10152000582200F0B3F990F83C305BB9014602A8AC
:10153000FFF7BAFF029BBB42039BB34104D30123D5
:1015400084F83D3005B0F0BD214602A8FFF75CFFEE
:101550004FF47A73A7FB032103FB0613D4E90810A9
:10156000521843EB000394F840000121A18760B9B1
:10157000A069006890F8200038B984F84010CDE9DF
:10158000002300F0E1FBDDE900230021204684F880
:101590003E1005B0BDE8F040FFF71EBBB8C5000027
:1015A000DFC50000024B4FF080625A60704700BFF9
:1015B00000ED00E090F83C3010B504464BB100233C
:1015C00080F83C3090F83E3013B9012380F83D306C
:1015D00010BD90F83F30002BFAD0836B013383634A
:1015E000FFF7E0FF2046FFF719FF2046FFF726FF31
:1015F000EEE70000102300F007B8202300F004B845
:10160000302300F001B840239C46F0B404AE754688
:10161000E80801D3EFF309860E4F0FCE0FC70FBCBA
:101620000FC74046494652465B460FC71DCE3100A4
:10163000A60A00D304316E0900D248311FC7EFF368
:1016400009806946EFF3148663C76046014900F0DC
:1016500079F800BF1C040020F0B52C4E2C4F85B04B
:1016600000243546214656F8042B3846013400F054
:1016700093F90D2CF6D1AB6C02936B6C01932B6C30
:10168000244C0093D5E90E23696B234800F084F9BC
:101690002168224800F080F9E16AA26AA36AA06A80
:1016A000266BE76B000CCDE901670090C3F30723BD
:1016B0001B48D2B200F070F9A36A1E0603D5616B15
:1016C000184800F069F9A36A180403D5A16B1648FD
:1016D00000F062F9EB6C190712D5144800F05CF9C0
:1016E0002B6DDA070FD5124800F056F9EB6C5B074B
:1016F0004CBF1048104805B0BDE8F04000F04CB9B0
:101700000E4800F049F90E48EEE700BF1C04002027
:1017100014C6000000ED00E022C6000071C6000003
:101720007FC60000CEC60000DCC60000EAC600008E
:10173000F9C6000029C7000035C7000019C700001E
:1017400006C7000007B504460D461A48012100F0FF
:10175000C3F868BB184800F01FF9302C19D0402C92
:101760001CD0202C1FD11548154C00F015F9154838
:1017700000F012F9FFF770FF134800F00DF90D4B60
:1017800000221A700023114900932A46204600F0D7
:1017900039FA0F480F4C00F0FFF8E8E70E480F4CFD
:1017A00000F0FAF8E3E70E480E4C00F0F5F8DEE73B
:1017B0000024E7E7E804002041C700006AC70000F2
:1017C0003E01FF8097C70000A2C70000C1C700000C
:1017D00079C700003F01FF8082C700004001FF8001
:1017E0008DC700003D01FF8001F0F0B80AF074B829
:1017F000F0B572B64FF0E022002313615168204F1C
:1018000001F00F0101314FF0FF361D469A0002F141
:10181000604202F561424FEAC30CC2F88060C2F830
:101820008061002202EB0C043C440132082A84F857
:101830000053F7D101339942E8DC124B4FF020629C
:101840005A6040F2FA529860DA6000221D61114637
:101850009C1801320C2A2176FAD14FF0FF325962DE
:101860009A62094ADA621F221A63D0E90031002223
:1018700082F314889D4682F310880847F0BD00BFAC
:1018800000E100E000ED00E0020000C007B50B46FB
:10189000009201460022014800F0B4F94401FF80A3
:1018A00003460122D3E84F0FC3E8412FC0B20029FD
:1018B000F8D17047D0E85F3F5B18C0E8523F002A7C
:1018C000F8D198B27047D0E85F3F5B1AC0E8523F4A
:1018D000002AF8D198B270470346D3E84F0FC3E807
:1018E000421FC0B2002AF8D1704713B5044600F079
:1018F0006DF8D4E90001CDE9000100F07DF8DDE9E3
:10190000000102B010BD08B500F060F8FEE773B545
:10191000002201460446022000F056FC0D2600F08D
:1019200055F80022254614F8013B23B902B0BDE862
:10193000704000F061B80A2B09D10D2A07D00122AE
:101940000DF1070102208DF8076000F03DFC012237
:101950002946022000F038FC14F8012CE2E70000D0
:1019600000B5A3B002460B4601A8842101F026F879
:10197000832806D9074B1A681B79CDF883208DF888
:101980008730002802DD01A8FFF7C1FF23B05DF812
:1019900004FB00BFD1C700000FB407B504A951F87C
:1019A000040B0191FFF7DCFF03B05DF804EB04B01A
:1019B0007047EFF31080C04300F001007047EFF371
:1019C0000580003818BF01207047000008B505F0F9
:1019D0009BF8064A1368591C04D1054905483F2263
:1019E000FFF754FF0133136008BD00BF70040020EF
:1019F000D6C7000000C80000044A136823B1013BA9
:101A000013600BB905F088B8704700BF7004002060
:101A100008B50B48FFF744FF28B1FFF7D7FFBFF326
:101A20004F8F20BFFDE7FFF7CAFF08B1FFF76BFF3D
:101A3000FFF7BFFF0028F9D0012000F020FB00BF16
:101A4000B00400202DE9B0432E4C0F462168C1F3AD
:101A50004173032B0CBF4D428DB2C1F30743814646
:101A6000904629482A46FFF797FF6FF498731D4464
:101A7000132D0FD8DFE805F00A2D3033363C393FFF
:101A80000E0E0E0E0E0E0E0E0E0E0E42A1681F480A
:101A9000FFF782FF4846FFF73AFF61681C48FFF7EF
:101AA0007BFF4FB11B48FFF732FF3846FFF72FFF90
:101AB00019484146FFF770FFA1681848FFF76CFF0F
:101AC00021681748FFF768FFBDE8B0431548FFF7E6
:101AD00063BFA1681448DBE7A1681448D8E7A16890
:101AE0001348D5E7A1681348D2E7A1681248CFE7A9
:101AF000A1681248CCE7A1681148C9E71148FFF76F
:101B00004BFFC7E7B404002031C8000082C80000C2
:101B10002AC900003BC9000043C9000047C90000B2
:101B20005BC90000A2C9000098C80000A8C8000056
:101B3000B7C80000CAC80000DEC80000F2C8000034
:101B400001C9000017C900007047000070B5254C9E
:101B50008EB034EA200428BF04460D461646002104
:101B6000302202A809F0AFFE1F4B01942344012B41
:101B7000039505D91D4B9C4202D0033B9C422AD1C0
:101B8000EB6B02936B6B0893FFF720FF184A136807
:101B90000133012B136009D101AD0FCD154C0FC4DA
:101BA0000FCD0FC40FCD0FC42B68236001AC0FCC39
:101BB000114D0FC50FCC0FC50FCC0FC523682B607F
:101BC0000E4B1B68A5F1300043B19847FFF714FF97
:101BD00000200EB070BD029601ABD4E7FFF7B4FF52
:101BE000F4E700BF0101FF80C2FE007F4001FF80DB
:101BF000740400207C040020B40400207804002039
:101C00000020704780B506460C460A480121F04680
:101C100017461D46FFF760FE48B942463946304632
:101C2000FFF794FF029A29462046FFF70BFFFFF7C4
:101C3000EFFE00BFE804002038B5064C23683BB92E
:101C4000FFF746F8044D01462846FFF7ADFB256037
:101C5000206838BD38050020F004002008B58368EE
:101C600023B9054B1B6893F83D0008BDC068984731
:101C70000028F6D0F9E700BF38050020F7B5194F66
:101C800004464FF0FF356FF000462046FFF7E6FFB1
:101C900030BBD4E90023B34208BFAA4202D038685F
:101CA000FFF734FC01A8FFF75FFA2046FFF7D6FFE5
:101CB00098B9D4E90023B34208BFAA4207D100F083
:101CC0007DF801A8FFF758FABFF36F8FDDE73B6897
:101CD00093F83C30002BF2D1F3E701A8FFF74CFA60
:101CE00003B0F0BD3805002070B50D4686B016462D
:101CF000044628B921B3104606B0BDE87040084735
:101D0000431C1AD0FFF798FF01466846FFF7CCFB4B
:101D1000009BE418019B43F10003CDE90243CDE9A8
:101D20000456FFF789FF02A8FFF7A8FF054B1868C4
:101D300006B0BDE87040FFF753BB6FF00043ECE71F
:101D400006B070BD3805002013B5074C01212046B0
:101D5000FFF7B0FD034628B90090228803490448E4
:101D6000FFF750FF02B010BD3C050020BCC90000C9
:101D70002301048013B5094C01212046FFF7A3FD80
:101D80004FF6FF73984206D1002322880449054884
:101D90000093FFF737FF02B010BD00BF3C050020E5
:101DA000DEC9000024010480034B188880B2B0FA19
:101DB00080F04009704700BF3C05002008B5FFF7E0
:101DC00005FEFFF7F1FF28B105F0BCFEBDE80840B5
:101DD000FFF712BE05F092FEF8E76FF01C007047A7
:101DE0006FF0150070470120704700207047704762
:101DF000F8B5074F15460C468E18B44201D1284657
:101E0000F8BD14F8011B384605F002FEF5E700BFE7
:101E10001007002038B511F001048DB205D0084834
:101E200005F02AFE041E18BF0124EB0605D5044860
:101E300005F042FE08B144F01004204638BD00BF52
:101E40001007002010B5044609F0F6FC204610BD2E
:101E500010B50C462AB1044805F098FD2070012009
:101E600010BD1046FCE700BF1007002008B5034670
:101E700053F8042B1AB902680AB9036008BD9A42E4
:101E8000FCD0024902488B22FFF700FDCCC20000C3
:101E9000FFC2000010B50F48FFF7E8FF0E4B032408
:101EA00053F824206AB10134402CF9D108F060FFC6
:101EB000182303600748FFF7D9FF4FF0FF3420468F
:101EC00010BD4FF0FF3243F824200248FFF7CEFF49
:101ED000F5E700BFC4050020EC00002010B5044663
:101EE0000948FFF7C3FF094A4023002152F8040BB9
:101EF000A04208BF42F8041C013BF7D1BDE81040E6
:101F00000148FFF7B3BF00BFC4050020EC0000206C
:101F100038B5084B0360084B1B680446154633B9B7
:101F20000648FFF713F90548294605F0AFFC20469F
:101F300038BD00BFC4CA00007C0700201007002085
:101F400000207047002070470EB42DE9F04187B0A3
:101F50000190FFF79FFF041E13DB002301990393F9
:101F600004A8FFF7B1F904A8FFF7FCF91E4E0546D7
:101F700068B908F0FDFE1323036046F824504FF0C3
:101F8000FF34204607B0BDE8F04103B0704704A815
:101F9000FFF7D6F9074604A85FB1FFF7DAF9039017
:101FA000039B124A46F8243000231355104A135558
:101FB000E7E7FFF7BCF905460028DAD0036804A874
:101FC000D3F80880FFF7A8F90D9B024603A928461D
:101FD000C04705460028E3D008F0CAFE6D42056000
:101FE00046F82470CBE700BFEC0000204405002039
:101FF0008405002037B501466846FFF765F9684655
:10200000FFF795F9044638B908F0B2FE13230360D0
:102010004FF0FF3003B030BD036868461D69FFF71D
:102020007BF901462046A847041E04DA08F0A0FE0A
:1020300064420460ECE70020ECE708B5012000F002
:102040001EF80000074A084913681844884289BFEF
:10205000064B10600C224FF0FF308CBF1A60184600
:10206000704700BFEC01002000F00020940C00201D
:1020700008B508B1FFF747FCFEE70120704708B537
:10208000FFF7F6FF012070477047704708B5FFF76C
:10209000FBFF08BD08B5FFF7F8FF08BD08B50378DA
:1020A00003F00303012B10D0037803F00302012A8D
:1020B0000BD02AB1064907484FF4D462FFF7E6FB7C
:1020C00043F002030370012008BD0020FCE700BFBD
:1020D000FCC9000028CA000008B5037803F0030219
:1020E000022A05D00549064840F2A962FFF7CEFB57
:1020F00023F0030343F00103037008BDFCC9000093
:1021000046CA00003F2870B504462EDC184E56F82B
:1021100020305A1C13D1022811DCFFF713FF0346AD
:1021200058B92046FFF70CFF034630B9114D2B6814
:10213000BFF35B8FDB0704D50F4B46F824301846FE
:1021400070BD2846FFF7AAFF0028F5D00B490A48C2
:102150004FF4E132FFF7DCFE094A0A490648FFF76F
:102160008CFF2846FFF7B8FFE6E70023E7E700BF4C
:10217000EC00002040050020CC0500200CCB000026
:10218000E0000020EF1D000038B50546FFF7BAFF5C
:102190000B4B002443F8254030B908F0E9FD092332
:1021A00003604FF0FF3038BD03685B699847051E38
:1021B00004DA08F0DDFD6D420560F2E72046F2E743
:1021C000EC000020FFF7E0BF13B5CDE90021FFF7D9
:1021D00099FFDDE9002140B908F0CAFD0923036039
:1021E0004FF0FF34204602B010BD0368DB6898470B
:1021F000041EF7DA08F0BCFD64420460F0E713B592
:10220000CDE90021FFF77EFFDDE9002140B908F0AC
:10221000AFFD092303604FF0FF34204602B010BD2C
:1022200003689B689847041EF7DA08F0A1FD644232
:102230000460F0E710B5FFF765FF044628B908F021
:1022400097FD09230360204610BD0368DB699847AA
:10225000041EF8DA08F08CFD644204600024F2E702
:102260002DE9F84FB2F1000805460E4608DA08F0ED
:102270007FFD162303604FF0FF342046BDE8F88F42
:10228000FFF7D8FF044648B1DFF87CB0DFF87CA048
:102290001BF8059000273C46B84511DCA045ECDD55
:1022A000A8EB040231192846FFF78EFF0028E2DB75
:1022B00024181FBF3619144B16F8012C5A55DCE7A9
:1022C000F25D0A2A1CD1B9F10D0F19D0BC420BDA0C
:1022D0003A1B31192846FFF777FF0028CBDB04446F
:1022E000A742CADC0BF80590012251462846FFF7A9
:1022F0006BFF0028BFDBC0D04FF00D030BF805309B
:1023000016F807900137C7E7840500207DCA000052
:10231000FFF790BF7FB5002A04460D4607DA08F0A4
:1023200027FD162303604FF0FF3004B070BD01920B
:10233000FFF780FF019AF8B1134E01220DF10F0152
:102340002046FFF75CFF0028EDDBEED09DF80F3054
:102350000D2B08D1325D0A2A0AD01A460A233255BB
:102360002B700120E1E70A2B04D1325D0D2AF3E73F
:102370003355E2E71A46F2E72946204604B0BDE8A5
:102380007040FFF73CBF00BF4405002013B5CDE906
:102390000021FFF7B7FEDDE9002140B908F0E8FCB5
:1023A000092303604FF0FF34204602B010BD0368DC
:1023B0001B699847041EF7DA08F0DAFC64420460EF
:1023C000F0E7FFF7E3BF38B50D46FFF79BFE044685
:1023D00030B908F0CDFC092303604FF0FF3038BD61
:1023E0000368DB699847002814BF4FF400534FF48B
:1023F00000436B60236820469B6A98472861002051
:10240000EDE7FFF7E0BF000070B50E461549054641
:1024100009F0FCFB044618B9FFF774FE204670BDB6
:102420001149284609F0F2FB20B90120FFF76AFEA6
:102430000124F3E70D49284609F0E8FB20B9022002
:10244000FFF760FE0224E9E72B78402B02D1D5F894
:102450000140E3E726F480312846BDE87040FFF7ED
:1024600073BD00BF2CCB000033CB000024CB000099
:102470001FB5039009F0D8F9039A034620B90090DC
:1024800003490448FFF7BEFB05B05DF804FB00BF3D
:102490007FCA00001F0101801FB5039009F0C4F935
:1024A000039A034620B9009003490448FFF7AAFBAA
:1024B00005B05DF804FB00BF9CCA00001F0101804D
:1024C00009F0B2B909F0B8B909F0B6B97047704768
:1024D00008B5094B094A1A60094B9B1A094A13604F
:1024E000094B0A4A1A600A4B9B1A0A4A136004F005
:1024F00015FFFFF7ECFF08BDDC05002000F0002011
:1025000000000120D8050020D4050020980C0020F0
:1025100000F00020D005002008B5FFF7D7FFFFF737
:102520006FFBBDE8084008F0DFBA00221146FFF754
:10253000DBBB70B50446FEF7FBFD0646FEF7E2FD89
:1025400005463046FEF7DEFD431BA342F9D370BDBE
:1025500070B51446054618462368049A6FF0004685
:10256000B34206D232B1114608F0CEFE431C05D16B
:10257000206070BD15B18B4238BFE8542368013329
:102580002360F6E72DE9F04F2DED028B8DB0074665
:102590009DF870309DF868B00393884691460021FD
:1025A000142207A8DDE91845069109F08CF9039B70
:1025B000002B14BF30232023BBF1010F08EE103A8B
:1025C00043D1002D41DA644265EB4505DA4606AB9E
:1025D000049300230293ABF10203DBB20593059B46
:1025E000012B5BD8BBF1020F04F00F030CBF364A7E
:1025F000364A2409D25C44EA05742D09049B03F889
:10260000012B0493029B5E1C54EA050344D1BAF1EA
:10261000000F24D0039B3BB11D9B00934A462D2302
:1026200041463846FFF794FF029E1B9B02369E42AE
:102630001ADB039B3BB91D9B00934A462D23414661
:102640003846FFF785FF013E1FE054EA050302D03C
:102650004FF0000ABBE730238DF8183001261B9B92
:102660009E4212DA4FF0000A1D9B00934A4618EE74
:10267000103A41463846FFF76BFF1B9B013BB342C4
:102680001B93F1DCBAF1000FD3D106AC8EB90DB0BB
:10269000BDEC028BBDE8F08F0296A0E720462946EC
:1026A0000A22002309F09CFC3032D2B204460D46C7
:1026B000A4E71D9B0093013E4A46A35D4146384670
:1026C000FFF746FFE2E700BF6ACB00007ACB0000CD
:1026D0002DE9F04F8BB01C460023DDF850800993A4
:1026E0000E461746A2B1994212DB0CBF012301F13D
:1026F000FF3606934FF0000B17F80B3063B9099BB8
:1027000030B1069A22B9B3428ABF069BC2548355A0
:1027100009980BB0BDE8F08F252B40F042810BF1FA
:102720000103FA5C2D2A09D0203AD2B20B2A07D82D
:1027300040F6090121FA02F2D20701D50BF102039A
:10274000FA5C2A2A1DD100215A1C04348E46BD5C35
:102750002E2D07EB02033AD15D782A2D2BD04FF0B6
:10276000000CC7F1010A0AEB030213F8015F303DC8
:102770005FFA85F9B9F1090F20D80A2202FB0C5C37
:10278000F1E7302A14D10133FA5C302AFBD04FF044
:10279000010E3B440021DA1B13F8015B303D5FFA68
:1027A00085FCBCF1090FD2D80A2202FB0151F2E7E5
:1027B0004FF0000EEDE754F804CB0232BB5C682BFF
:1027C00008D1BD186D78682D0AD172230EE06FF024
:1027D000004CF3E76C2B03D1BD186D786C2D2FD016
:1027E0004C3BDBB22E2B2DD8734DEB5C03F00F0A64
:1027F000924417F80A90B9F1640F3FD0B9F1780FFD
:1028000000F2C180B9F16F0F1ED8B9F1630F76D015
:10281000B9F1690F32D0B9F1580F40F0B480822B72
:1028200053D1073424F007042546626855F8083B65
:102830000391B9F1750FCDE904E859D100212AE0DF
:102840008223D3E70023D1E7A9F17002082A00F21E
:102850009A8001A555F822F045290000872900003B
:102860008729000017290000872900001F28000081
:1028700087290000872900001F280000822B13D120
:10288000073424F007042546626855F8083B039195
:10289000CDE904E80121CDE90032029109AA3146CF
:1028A0000790FFF76FFE34E02546112B55F8042BF7
:1028B00007D0722B15BF134653B2DA1742F3C0127A
:1028C000E5E713B242F3C032E1E72546512B55F854
:1028D000042B0AD0722B04D0112B04D013460022F3
:1028E000A6E7D3B2FBE793B2F9E71346D2179FE707
:1028F000B9F1580F01D10321CDE70221CBE72546DD
:1029000009AA15F8043BCDF8008031460790FFF77F
:102910001FFE079808E0254655F8044B04EB0C0908
:1029200023780BB14C4503D10AF1010B2C46E3E6A9
:10293000CDF8008009AA314607900134FFF708FE60
:102940000798EDE72546302355F8044BCDF8008075
:1029500009AA31460790FFF7FBFD0798CDF80080E4
:10296000782309AA3146FFF7F3FD0023CDE90333AD
:1029700003230293E317CDE900430798CDF81480B1
:1029800009AA31468DE7CDF80080252309AA3146F2
:1029900007902546FFF7DCFDB9F1250F18BFDA4691
:1029A000B7E7CDF8008009AA314607902546FFF722
:1029B000CFFDDA46ADE700BF3BCB000013B50024E6
:1029C0000094FFF785FE02B010BD0000F8B5CD1CE5
:1029D00025F0030508350C2D38BF0C25002D0646C3
:1029E00001DBA94203D90C2333600020F8BDFFF7B7
:1029F0004DFB254803681C469CB9244F3B6823B90E
:102A00002146304609F0A2F838602946304609F0E0
:102A10009DF8431C2AD10C2333603046FFF73AFB64
:102A2000E3E72268521B1ED40B2A16D96119A34270
:102A3000256018BF5960636808BF016062514B6030
:102A40003046FFF727FB04F10B00231D20F00700A1
:102A5000C21ACBD01B1AA350C8E76268A3420CBFAE
:102A600002605A60ECE723466468C5E7C41C24F0A2
:102A70000304A04205D0211A304609F067F801305E
:102A8000C9D02560DCE700BFE0050020E405002098
:102A9000FFF74BBDFFF749BD00207047002070478E
:102AA0002DE9F0411E4603689B6A1446DDE906786D
:102AB0000546984702460B462046314609F090FAF3
:102AC000134302D00020BDE8F0812B6828469B6AA2
:102AD000984702460B463846414609F081FA1343AF
:102AE000F0D12B68E4199B6B284646EB0806984703
:102AF000A042B1412CBF01200020E4E72DE9F041C4
:102B00001E4603685B6A1446DDE906780546984769
:102B100002460B462046314609F062FA134302D0C2
:102B20000020BDE8F0812B6828465B6A9847024682
:102B30000B463846414609F053FA1343F0D12B684F
:102B4000E4199B6B284646EB08069847A042B14122
:102B50002CBF01200020E4E72DE9F0410168096B5A
:102B600014461D46DDE906780646884702460B46B0
:102B70002046294609F034FA134302D00020BDE86C
:102B8000F0813368E41945EB0805621E196B304685
:102B900065F10003884702460B462046294609F0A6
:102BA0001FFA1343EAD1336830469B6B9847A04223
:102BB000A9412CBF01200020E1E70120002170473E
:102BC000D0F8C0000021704790F8743113B1D0E9FB
:102BD0001C017047002000217047FF207047000053
:102BE000004870478ACB000010B5044619461046CD
:102BF00004F1680200F072FD431CD4F8C01009D043
:102C00002318012293F8B4000023104205D04A3360
:102C100054F823100846002110BD01335200042B44
:102C200052B2F2D1F6E72DE9F047D0E90114056878
:102C30009DF820609DF824709DF828C0DDF82CE0F8
:102C40004FEA640A05EB6400DDE90C89E40744BF40
:102C500055F80A406158CDE90C89CDE90ACECDE995
:102C60000867BDE8F047084737B5054604461948E8
:102C700045F8040B4FF000008DF804009DF9180092
:102C800000902846FDF722FE00230822C4E95923BC
:102C9000C4F86C214FF0FF32C4E91733C4F8503147
:102CA000C4F8703184F87431A267C4F8C0300122CE
:102CB00084F8B430002003230021C4E91C01C4F8C7
:102CC000882028460799A365FDF745FE204603B0F6
:102CD00030BD00BFD4CB000084B0F0B59DB0044639
:102CE00023A880E80E00279E269932687568002385
:102CF00029B9204920484FF4FD72FEF7C7FDCDE900
:102D000004534FF0080C5A25CDE9015C08AF0125AA
:102D1000009503978847054638B14FF0FF352846A0
:102D20001DB0BDE8F04004B0704704F168013846BA
:102D3000079100F02FFD0028EFDB0799384600F0DF
:102D400022FD0028E9DB03220223C4E91623202305
:102D500023667168384600F056FC3146C4F85001CD
:102D6000384600F05BFC0028D7DB33692366C4F8E3
:102D70006451D4E78FCB0000BECB000010B586B005
:102D80000446684680E80C0006A800E90C000391A0
:102D900010E90700034BE36084E80700204606B013
:102DA00010BD00BF272C00002DE9F74F051DD0F8FE
:102DB0006C710191044628461646DDE90CBADDE93E
:102DC0000E98FDF7F0FD01992846FDF713FED4F8A3
:102DD0006041013CFF08E400002C0FDA0024BC42F3
:102DE0001ED100242746474508BF4C451ED1284622
:102DF000FDF7EEFD002003B0BDE8F08FC4F1200226
:102E0000A4F120032BFA04F10AFA02F211432AFA80
:102E100003F31943C9B22846FDF7ECFD083CDBE794
:102E200000212846FDF7E6FD0134D8E700212846B9
:102E3000FDF7E0FD3055013447F10007D3E700000E
:102E4000F0B51E4690F8743185B004460D4617461D
:102E5000E3B11048FDF7D0F9D4F86431C4F86C310F
:102E6000DDE90A23CDE90076CDE90223A16D2A46EA
:102E70002046FFF799FFD4F86831C4F86C31054655
:102E80000448FDF7B9F9284605B0F0BD6FF47A653E
:102E9000F9E700BFE805002030B585B09DF8204077
:102EA0009DF82810032C1DD8DFE804F002161A053F
:102EB0004FF0FF321346DDE90C450F2918BFC0F86B
:102EC0006C11CDE90023CDE902450B9A9DF8241041
:102ED000FFF76AFF05B030BD0324C0F86041EAE7A0
:102EE0000424FAE74FF0FF30F4E72DE9F74F051D12
:102EF000D0F86C710191044628461646DDE90CBAFB
:102F0000DDE90E98FDF74FFD01992846FDF772FDAA
:102F1000D4F86041013CFF08E400002C0FDA0024E3
:102F2000BC421ED100242746474508BF4C451ED150
:102F30002846FDF74DFD002003B0BDE8F08FC4F139
:102F40002002A4F120032BFA04F10AFA02F2114341
:102F50002AFA03F31943C9B22846FDF74BFD083C92
:102F6000DBE700212846FDF745FD0134D8E7315D58
:102F70002846FDF73FFD013447F10007D4E72DE96E
:102F8000FF41051DD0F86C81039104462846174681
:102F90001E46FDF708FD03992846FDF72BFDB6F107
:102FA000FF3F08BFB7F1FF3F0AD0D4F86041013CB2
:102FB000E400002C13DA4FEAD8080024444520D15D
:102FC0000D9B0A9900932846DDE90B23FDF723FDAD
:102FD0002846FDF7FDFC002004B0BDE8F081C4F1F7
:102FE0002002A4F1200327FA04F106FA02F21143A9
:102FF00026FA03F31943C9B22846FDF7FBFC083C47
:10300000D7E700212846FDF7F5FC0134D6E700009C
:103010007FB506461248FDF7EFF896F874413CB9C3
:10302000C6F870410E48FDF7E7F8204604B070BDC1
:10303000D6F87051013DC6F870517DB9CDE9025501
:10304000CDE900554FF0FF324FF0FF3304213046F9
:10305000FFF795FF86F874510446E3E70024E1E7A3
:10306000E80500201FB5002422F47F62CDE9024468
:10307000CDE9004422F00F022346FFF780FF2046EF
:1030800004B010BD2DE9F04186B0054642F210743F
:1030900001270DF1140800260120FFF7FBFC4FF07B
:1030A000FF33CDE90287CDE900664FF0FF320521FD
:1030B0002846FFF764FF9DF81430DB0705D5013C77
:1030C000EAD1204606B0BDE8F0810120FAE730B52C
:1030D00087B001220023039205AACDE90132ADF8A1
:1030E000143000934FF0FF324FF0FF3305210546B7
:1030F000FFF745FF00BBCDE90200CDE900004FF02E
:10310000FF324FF0FF3366212846FFF738FF98B9AA
:10311000CDE90200CDE900004FF0FF324FF0FF3360
:1031200099212846FFF72BFF041E18BF01242846CB
:103130006442FFF7A7FF08B94FF0FF34204607B0FD
:1031400030BD30B5002387B0CDE90233CDE900337F
:103150004FF0FF324FF0FF3306210546FFF70FFF18
:10316000044618B14FF0FF3007B030BD2846FFF7D6
:1031700089FF0028F6D00123039305ABCDE9014375
:1031800000944FF0FF324FF0FF3305212846ADF891
:103190001440FFF7F4FE0028E4D19DF8140080F0FD
:1031A000020040F34000DFE72DE9F04F1F4690F8A2
:1031B000743185B0DDE90EB906468846154633B14F
:1031C000DFF88CA05BEA090307D1002401E06FF46B
:1031D0007A64204605B0BDE8F08FD6F85041002350
:1031E00022462846394608F0FBFE1BEB020149EB5C
:1031F0000303A14273F1000315482CBFA41A5C46D7
:10320000FCF7FAFF3046FFF79CFFC8B9CDE9024052
:10321000CDE900574246F16D3046FFF766FE2D19A5
:10322000A04447F100073046BBEB040469F10009F4
:10323000A346FFF727FF40B15046FCF7DDFFC1E78B
:10324000044C0348FCF7D8FFC3E7034CF9E700BF81
:10325000E80500205CF0FFFF5DF0FFFF2DE9F04F77
:103260001E4690F8743189B0DDE91279044615469E
:10327000002B00F08E8000F168023146284600F0F5
:103280002DFAB0F1000803DA434809B0BDE8F08F29
:1032900004EB080315EB070A93F8B4300593D4E95F
:1032A0001C2346EB090B524573EB0B03ECD323684D
:1032B0002A46196B20463346884702460B46284665
:1032C000314608F08DFE1343DED123681AF1FF3238
:1032D000196B20466BF10003884702460B465046A7
:1032E000594608F07DFE1343CED104F18003DFF888
:1032F000ACB0069357EA090301D10020C5E7069B4D
:103300000598CDE902833A464B46CDE9005600F0D8
:1033100003FA04EB8000D0F81811D0F828A1079127
:103320005846FCF769FF2046FFF70BFF60BBCDE96D
:10333000007933462A4607992046FFF793FE1AEB99
:10334000050546F10006B7EB0A0A69F100095AEAD9
:103350000903574610D008F1190304EBC30154F8D0
:1033600033204B68AA42B3413FBF08F1010804EB88
:10337000080393F8B43005932046FFF783FE18B195
:103380005846FCF739FFB5E70448FCF735FF044819
:103390007BE76FF47A6078E75BF0FFFFE8050020D9
:1033A0005DF0FFFF30B587B00323039305AB0293B5
:1033B0000023CDE900334FF0FF324FF0FF339F2160
:1033C0000546FFF7DCFD0446A0B99DF81430BF2B7D
:1033D0000ED12846FFF7B5FECDE90244CDE9004401
:1033E0004FF0FF324FF0FF3398212846FFF7C7FD1B
:1033F000204601E04FF0FF3007B030BD2DE9F04727
:10340000044692B04648FCF7F7FE94F874310BB9C5
:10341000C4F87031D4F870710137012FC4F870719D
:1034200007D000253E48FCF7E7FE284612B0BDE86D
:10343000F0870323C4F860312046FFF748FE0130CF
:1034400002D16FF47A65EDE72046FFF7ABFF002865
:10345000F7DB2046FFF716FE00285FD0DFF8D0A08C
:103460000025CDE90EA50DF118080EAE96E80C006A
:103470002146C4E91A55C4E92055404604F16809BB
:10348000FFF77CFCCDF8009098E80F0000F0ACF955
:10349000A84201DA234DC5E7CDE90EA50DF12808B4
:1034A00096E80C0021464046FFF768FC0D9BCDF8DE
:1034B0000490009398E80E002046FFF70DFC0028CA
:1034C000E8DB2B46524621463046CDE904A5FFF7FE
:1034D00055FCCDF8009096E80F0000F0D9F90028CF
:1034E000D8DBD4F86831C4F86C31D4E91C130E4A27
:1034F00084F87471914273F1000392D34FF0FF335B
:10350000CDE90255CDE900554FF0FF32B7212046F5
:10351000FFF735FD0423C4F8603183E7034D81E7ED
:10352000E80500205EF0FFFF010000015DF0FFFFF5
:10353000992E000038B50546054B45F8043B044676
:10354000FFF766FD2846FDF71FF9204638BD00BF8E
:10355000D4CB000010B50446FFF7ECFF20464FF433
:10356000BC71FEF7AFFF204610BD000008B528B9BA
:103570000449054840F20512FEF788F90078C0F3C7
:10358000400008BD20CC00004ECC000010B507491B
:103590000422044608F058F928B96379012B02D1B6
:1035A000A079013010BD4FF0FF30FBE764CC000084
:1035B0008378012B24D14268130EFF2B0ED10378A0
:1035C000812B0DD0842B12D043B922F07F420A60A8
:1035D000C2789200502AA8BF50224A60002070474B
:1035E00022F07F428A61C3789B00CB61F6E722F02C
:1035F0007F42C1F8D020C3789B00C1F8D430EDE7FA
:103600004FF0FF307047282981BF90F82830012003
:103610001B09984098BF4FF480707047F8B54B680D
:103620001C2B04460D4651D901F1B00004F12403CE
:10363000984201F1C00603D204F11C039E4223D834
:103640001022FF2108F03FF9012305F1D0001F46A9
:10365000227F07FA02F2012A46F8042B0CD9617F77
:1036600046F8141CA96D8A4200D301B9AA6595F8E1
:103670004C201A4385F84C205B008642DBB204F1F3
:103680000204E5D10020F8BD01234FF0FF379C462E
:1036900040F8047B227F0CFA02F2012AC2600BD9A7
:1036A000617F40F8041CA96D8A420CD2AA6595F886
:1036B0004C201A4385F84C205B00B042DBB204F189
:1036C0000204E5D1DEE70029F0D0F0E74078086198
:1036D000FF284FF0FF3018BF0020D4E7034670B535
:1036E000D2E90240A34271EB000007D2146A2CB168
:1036F000012C0FD060320020844202DC4FF0FF30FA
:1037000070BDD2E900659E428D4102F10802F7D2F8
:103710000130F1E70020F3E72DE9F74F99460E9BC2
:103720000F9DCDE90002DDE90C6A093305F1A80B14
:1037300003244FF0080805EBC305009B13EA080FAC
:1037400019D05BF8247000233A463046514608F001
:1037500047FC13430FD1019BBB4279F100030AD30D
:10376000D5E90001731E4AF1FF32DB1942F1000274
:103770009842914103D2013C4FEA5808DDD22046DD
:1037800003B0BDE8F08F43680133DB080020C1E9D6
:103790000230704783785B075ABF90F90700C01763
:1037A0004FF0FF30704700002DE9F047C1689DF8E9
:1037B00020409DF824509DF828600B9FDDE90C897E
:1037C00029B9074907484FF4FD72FEF75FF8CDE9C4
:1037D0000C89CDE90A67CDE90845BDE8F0470847FF
:1037E0008FCB0000BECB00002DE9F0472DED028B02
:1037F0008CB006AE9FED248B86E80F000AAB0393D6
:103800004FF05A080123082400938DED048BCDE975
:103810000184002200233046FFF7C6FF00280BDB9F
:103820000AA8FFF7B3FE051E08DB0027BA46A1462B
:10383000AF4209D1002002E04FF0FF3528460CB01E
:10384000BDEC028BBDE8F0870AABCDE90293012302
:1038500000938DED048BCDF804802246534630460C
:10386000FFF7A2FF00280ADB16990AA8FFF7A0FEBF
:103870000028E4DB08344AF1000A0137D8E74FF0AA
:10388000FF30DCE7AFF3008008000000000000001C
:103890002DE9F04F2DED028B91B006AD1C9C85E813
:1038A0000F00A3690BB1E06980B901232362D4E959
:1038B00002326362013B42F1FF32C4E91832002553
:1038C000284611B0BDEC028BBDE8F08F6049FEF7D1
:1038D000F7FD0746002876D0E36903900026CDE97E
:1038E000043608215A23CDE9013101230093A2694E
:1038F00033462846FFF758FFB04231DB95E80F000A
:103900000DF1300888E80F003846D4F81C90FFF716
:103910002DFEB8BB9FED4C8BB944BA4606465046C7
:10392000FFF724FE0346D8B90AF10805A94517D3C5
:1039300015F8061C15F805BCDAF804200DF12F0067
:103940008DED048B039001F00F00029015F8070C29
:103950000190890900914046FFF726FF002802DA0E
:103960004FF0FF356CE09DF82F3076001BEA030F17
:10397000F6B201D046F0010615F8083CDB0702D488
:10398000AA46CCE73D46E36907EB03082846FFF764
:10399000EDFD0028E4D005F108039845E0D3A878B0
:1039A000831C05EB83039845DAD36A78B2420DD0C5
:1039B0002A78D207D4D41D46E8E701335200042BFD
:1039C000D2B235D13CE04FF0FF3579E7431C0A2BEA
:1039D0002362C5DC6FF04C0E043504F1240C04F1B5
:1039E0004C0604F160020F214FF00008AEEB040E0C
:1039F0002B6815F8049B23F0FF0303F580734CF844
:103A0000043B09F00F09013B434406F8019B4FEAD0
:103A1000E378C2E9003803F101080EEB060398428F
:103A200001EA090102F10802E2DC0023A365012298
:103A300012EA0105C1D03033002554F82330A365C4
:103A40003846FEF741FD3BE70100000000000000A2
:103A5000A1D3000010B5054B03602C33044640F899
:103A6000043FFDF7A5FB204610BD00BF74CC00004D
:103A7000A0F10400EEE700BF10B50446FFF7EAFF2F
:103A800020461421FEF71EFD204610BDA0F10400C3
:103A9000F2E703681A6AC36AD31A1944B1FBF2F356
:103AA00002FB1311036B8B4210B50AD94C09C06B92
:103AB00001F01F0150F8243001228A40134340F8DE
:103AC0002430002010BD0368013304D04068431C3B
:103AD0005842584170470120704710B50B68046880
:103AE0009C4209D040684968884205D08C4203D086
:103AF000181A18BF012010BD0020FCE703689B6A5C
:103B000010B5044613B9C06907F096FE2368DB6A56
:103B100013B9A06A07F090FE23681B6B23B9E06B12
:103B2000BDE8104007F088BE10BD00002DE9F74F3A
:103B3000984603680C9C1B6A0E9D434582460F46BF
:103B4000914629D8354936481222FDF79FFEDAF80A
:103B50000000B9F1000F23D0D9F8003098451FD1EB
:103B6000D9F80410A1421BD8836901EB030B5C4513
:103B700016D2ABEB040BAB45D9F8083028BFAB46E7
:103B8000611A19440D985A4607F06EFE0D9B5B446E
:103B90000D935C44A5EB0B05002DD8D1284639E0E8
:103BA0003A68436990450ED179688C420BD301EB9A
:103BB000030B5C4507D2ABEB040BAB45BB6828BFDE
:103BC000AB46611ADDE74168B4FBF3F203FB124236
:103BD0008C46A2B99D4212D3B5FBF3FB03FB1B5BE2
:103BE000A5EB0B060D9B0096224641466546A8476D
:103BF00080B90D9B33440D9334445D46CCE7A21A43
:103C00000093C7F80080BB687A6041466646B047BB
:103C10000028C1D003B0BDE8F08F00BFA8CC0000E1
:103C2000DDCC00001FB5069C0092CDE901340022D6
:103C30000B4600F11401FFF779FF04B010BD2DE928
:103C4000F04786B005460F46144600F11409D61811
:103C50004FF0010A0DF11708A64203D1002006B06B
:103C6000BDE8F0870094CDE9018A3B460022494631
:103C70002846FFF75BFF01340028F0D10E9801229F
:103C8000414602F06DF9E7E72DE9F04F8BB013687C
:103C9000049300265368059307460C46B0460DF181
:103CA000100B06AD4FF0100A5BF82690CDF800A07F
:103CB0002B46002249463846FFF7B4FF70B110F199
:103CC000340F06D146B1B8F1000F14BF00206FF0D9
:103CD00033000BB0BDE8F08F0126E5E7B8F1000F27
:103CE00004D0E269069B9B1A002BEBDB079B23F0B9
:103CF0000043132BE6D93A68D2699342E2D84FF0D9
:103D0000FF3303A810222946039302F029F9079BE9
:103D100003A823F000430090103B10224946384688
:103D2000FFF78DFF0028CAD1039B002BCAD10AAA36
:103D300086F0010302EB830304F11C0C53F8183CDA
:103D4000C4F80490C4E9023A95E80F004FF0010866
:103D50008CE80F00B6E7F7B5044604300E4615466A
:103D6000FFF7B1FE10B1002003B0F0BD00900123B9
:103D70006A46294620460193FFF786FF0028F3D1C3
:103D800005F124073846FFF79EFE0028EBD13146A7
:103D90003846FFF7A2FE38B13A4629462046FFF7DB
:103DA00073FF0028EED0DFE70120DDE72DE9F04FBB
:103DB00087B0DDE9104506468B46174625444FF08F
:103DC00001090DF1170AA3EB0408AC4201D101204F
:103DD00011E008EB04030093CDE901A93B46002262
:103DE00059463046FFF7A2FE28B914F8013B9DF86A
:103DF00017209A42E9D007B0BDE8F08FF8B5C66940
:103E00000D68083EB5420F4613D3B5FBF6F00138F6
:103E100008F0FEF8841CA5EB8404B4FBF6F42046FD
:103E200008F0F6F8A5EB800004FB16003860204689
:103E3000F8BD0020FCE700002DE9F04F89B00646F0
:103E4000DDF84C90059288464BB94FF0FF32C9F827
:103E50000020149A0020136009B0BDE8F08F0468B8
:103E6000013B07A920460793FFF7C8FF12A90546A3
:103E70002046FFF7C3FF4FF0040A07460DF1140B6D
:103E8000AF42059B03D3C9F80030129BE1E7EC1B5E
:103E9000B4FA84F495FAA5F2B2FA82F2C4F11F04DE
:103EA000944228BF1446A2000092CDE901BA002234
:103EB00041463046FFF73AFE059B0028CCD1012B46
:103EC00003D93268126A934205D9054905484FF46F
:103ED0008F62FDF7DBFC0123A340ED1AD0E700BFA2
:103EE000A8CC0000FBCC00002DE9F04F8BB0904631
:103EF000149ADDF858A0059306460F46002A36D0DE
:103F0000013A0068079207A9FFF778FF059B04466E
:103F10000DF1200B194605935046159B9847024614
:103F200028BB24B304F00105C5F102018900CDE9E5
:103F300001B100904246059B39463046FFF7F6FD39
:103F40000246A0B9E34303F00109914507DC0AAB3F
:103F500003EB8903023D53F8083C2C44DAE7089947
:103F6000159B5046984701220028EED00246104685
:103F70000BB0BDE8F08F031D1944881870472DE978
:103F8000F74307460C46154601F124094FF0100887
:103F9000226AE16822F0004301F10C00043B9842E0
:103FA0001BD80C2300930A462B1D61683846FFF787
:103FB00039FE0646B0B9E768EA79A97968792F60D1
:103FC000FFF7D9FF3844E060EA79A9796879FFF70B
:103FD000D2FFA3691844A06104E0002A06DB29602F
:103FE0006FF00106304603B0BDE8F0834A46214633
:103FF0003846FFF749FE06460028F3D1A369C4F806
:104000000C801433A361C3E770B5054692B0043049
:104010000E46FFF758FD68BB0190012301AA07A9CE
:1040200028460293FFF730FE044618B910A8FFF7A0
:104030004AFD10B1204612B070BD10AA07A928464B
:10404000FFF722FE38B903AA07A92846FFF797FF12
:1040500018B1831CEAD00446ECE79DF91030002B20
:10406000F1DB0822314605A807F0EEFB0028EAD173
:104070000124DFE70024DDE72DE9F843054604309D
:104080000F4614461E46FFF71EFD10B10020BDE886
:10409000F88301235062936202F1240806F10809B3
:1040A0004046FFF710FD0028F0D142462146284641
:1040B000FFF7EAFD0028EAD1324621462846FFF7FD
:1040C0005EFF10B1831CEBD0E1E7337903F070039E
:1040D000202BF1D139464846FFF7FFFC0028EBD1F1
:1040E0000120D4E72DE9F04F2DED028B85B01F683C
:1040F000029340F6220353604368936008EE101A5F
:104100008368DFF83C91D36005461446494638463B
:1041100007F0A7FD07EB000883464946404607F035
:1041200087FD0128064608EB000A05D117F80B3079
:104130002E2B0AD15746E9E7022806D102463F490D
:10414000404607F081FB0028F4D057464FF0010BA2
:104150004946504607F085FD82444946504607F0DF
:1041600067FD024690B102280CD1039033495046B6
:1041700007F06AFB039A28B9BBF1010B04D10AF1DD
:104180000207C3E70BF1010B9244E1E798F8000046
:10419000002845D0029BC3F800802379222B49D107
:1041A00004F1080A18EE101A52462846FFF76CFD73
:1041B000B0BB05F1140B18EE101A22462846FFF783
:1041C000DEFE68BB237903F07F03112B01D0222B85
:1041D000F1D1E379B342EED1236862790433134419
:1041E000A279CDE90086134418EE102A5946526888
:1041F0002846FFF7DBFD002812DBDCD095F84130C4
:10420000002B83D194F90430002BBFF67FAF5146C9
:104210002846FFF7F9FE002807D001DB6FF0010008
:1042200005B0BDEC028BBDE8F08F237903F07F036E
:1042300023716BE76FF01300F2E700BF26CD00009B
:1042400058C50000C368184710B50C468269A068BD
:10425000FF2107F038FB4FF0FF33236010BD000053
:1042600038B58B6A016004460D46ABB1C361EB6A99
:10427000F3B1A362284604F12001FFF7E5FF2568AA
:10428000686A4FF0FF336361C30618D02C492D488C
:1042900040F61202FDF7FAFA486907F0C5FAE06144
:1042A0000028E4D12046FFF729FC6FF00B0046E020
:1042B000A86907F0B9FAA0620028DBD1F2E720B9BB
:1042C0001F49214840F61302E4E72B6B63B1E36317
:1042D000D5E90513B3FBF1F201FB12325AB11849CB
:1042E0001A4840F61E02D5E7C00807F09DFAE063C1
:1042F0000028EDD1D6E7EA69B2FBF3F003FB10200A
:1043000020B10F49124840F61F02C3E74FF0FF31BA
:10431000A2F10803B1FBF3F30B44B3FA83F3C3F147
:104320002003B2EB830F04D205490A4840F622026B
:10433000B0E7C4E90111C4E90300A4F8400038BDA6
:10434000A8CC000029CD000047CD00005FCD0000C3
:104350008ECD0000BECD0000F7B50C4609684B1CA1
:104360000646174621D00068836900938568D4E922
:104370000123A847054628B9336837B93068214674
:10438000FFF762FF284603B0F0BD9B690193A36865
:1043900000933946D4E900233046FFF707FD002893
:1043A00005DBEBD16FF03305ECE70025EAE70546C6
:1043B000E8E700002DE9F04F85B0914603930368CC
:1043C000039A1B6ADDF840A09342DDE90E480546DA
:1043D0000E462FD8374938489C22FDF757FA3268E5
:1043E000039B93422DD17068A0422AD82B689B6909
:1043F00000EB030B5C4524D2ABEB040BB368D34555
:1044000028BFD346201A5A464146184407F02CFAD2
:104410002B689A695C44B4FBF2F302FB1343D84463
:10442000AAEB0B0B2BB94A4631462846FFF794FFFF
:1044300020B9DA46BAF1000FD1D1504605B0BDE837
:10444000F08F013203D01B491C48B722C5E728680A
:104450008269B4FBF2F302FB13432BBB924523D3D7
:10446000BAFBF2F302FB13ABAAEB0B0ACDF800A0E8
:10447000836803991F4622464346B8470028DDD18A
:10448000B9F1000F02D1D0445444D2E7CDE9008AFB
:10449000039A234649462846FFF788FC0028CDDBCF
:1044A000F1D16FF03300C9E7039A3260E31A736009
:1044B000D346BEE7A8CC0000DDCC00000ACE000049
:1044C00030B543684B6087B0836801928B6002AA65
:1044D00001AB05460C46FFF705FEA0B99DF80C3070
:1044E000222B12D104AA21462846FFF7CDFB50B952
:1044F00063682361A36863610E23A3611023E360F3
:104500002B6923602C6107B030BD6FF01300FAE710
:10451000036900F110021BB18B4203D11B681360C9
:10452000002070471A461B68F5E7000070B50D467D
:10453000144686B006464FF484720021204607F0E8
:10454000C2F9AB690E2B0CD12046222300F8083BA0
:10455000274907F065FBAB690133AB61012006B069
:1045600070BD0F2B05D12046222300F8083B2149BE
:10457000EFE702AA29463046FFF701FD18B1821C79
:1045800008BF0020EBE79DF80C3003F07F02112AF2
:1045900001D0222AEDD11B060CD504A93046FFF725
:1045A00033FD0028DBDBE4D19DF80C3003F07F0302
:1045B0008DF80C309DF80C302370112B08BF059B33
:1045C000029A08BF63609DF80D309DF80E1004320A
:1045D0001A449DF80F3000930A4404F108036968F7
:1045E0003046FFF71FFB002808BF0120B7E700BFD8
:1045F00027CD000026CD00008869704710B501F175
:1046000010020C46FFF740FB38B923696360636909
:10461000A3600E23A3611023E36010BD2DE9F041D8
:1046200007460C461546FFF7E9FF064640B9A56167
:1046300004F12408216A21F00043AB4203D3E56072
:104640003046BDE8F0810029A5EB030508DA4246B3
:1046500021463846FFF718FB0028EBD00646EFE767
:104660006FF01506ECE7086A7047CB6948699B0351
:1046700003D50B6A984238BF1846704770B594B09E
:104680001546039103AB05AA09A90646FFF72AFDC3
:104690000446C0B901464FF48472284607F013F966
:1046A0009DF818302B70112B04BF089B6B60311DD7
:1046B00007A8FFF712FA05F10803044630B90C49C0
:1046C000184607F0ADFA204614B070BD059A9DF863
:1046D00019109DF81B00009004320A449DF81A102E
:1046E00030460A440A99FFF79DFA0446EBE700BFFB
:1046F00058C5000030B599B00546FFF7B1FD044636
:1047000058BB2B6868631B6AAB63C5E90B0002905A
:10471000012302AA0DA928460393FFF7B5FA044620
:1047200000BB202300930E9905AB10222846FFF70B
:1047300079FA0446B0B9069B6B60079B0D49AB60E4
:1047400008220BA807F080F8044648B90A9B1A0C07
:10475000012A0BD19BB2012B08D8204619B030BDDD
:104760006FF033042846FFF7C9F9F6E76FF0150438
:10477000F8E700BF26CE000008B5FFF7BFF900201C
:1047800008BD2DE9F047064696B004300F46904626
:10479000FFF799F900287FD1012305900693059929
:1047A0004046B847044620BB06994046B8470446F1
:1047B000F8B905AA0BA93046FFF766FA0446C0B956
:1047C0004FF00C0A139BDDF8389023F0004309F1F9
:1047D0000C02043B9A4210D9149B059305A8159B23
:1047E0000693FFF770F90028D9D0F56806F114098F
:1047F0006DBB204616B0BDE8F0870C99CDF800A03F
:1048000008AB4A463046FFF70DFA0546002841D16D
:104810009DF823209DF822109DF82100FFF7ABFBA7
:104820009DF8203003F070034844102B0E90C9D13E
:104830000A9B0093CDE90178099B2A4606F11401F1
:104840003046FFF751FB0028BCD00446D1E7EB69A6
:10485000DA0311D4EB699B030CD5CDE901782B6AFF
:1048600000936B6A05F12C0249463046FFF73CFB8A
:104870000028EAD12D68BBE7CDE901786B69009388
:104880002B6905F12C0249463046FFF72DFB002825
:10489000E0D0DAE70446ACE70024AAE7F8B52D4EED
:1048A00004460D460127236BD4E90D0198421DD122
:1048B00000294BD0E06A22680344106A526A8A4297
:1048C00094BF22632163B3FBF0FC002100FB1C3387
:1048D0006163D208E06BE36206F0F5FF22463146E1
:1048E0002046FFF74EFF0028DDD026E0421C626321
:1048F0000139E26BA1634FEA501C00F01F0152F82E
:104900002CC007FA01F111EA0C0FCDD12168E36A3E
:10491000096A0344B3FBF1F001FB10332B60266BF3
:104920000125636BB3420FD0590903F01F0052F801
:10493000211005FA00F0084000D1F8BD013363638F
:10494000A36B013BA363ECE70020F6E76FF01B00CD
:10495000F3E700BF933A000073B50C4604310646F6
:10496000FFF79CFF0546F0B904F108013046FFF758
:1049700095FF0546B8B9042300930246616804F127
:104980001C033046FFF74EF910B110F1340F0DD172
:10499000E3690133E36114224FF0FF33C4E90823D4
:1049A000A3621023E360284602B070BD0546FAE713
:1049B0002DE9F04F044687B00E4600F1140B05A90F
:1049C0002046FFF76BFF054658B9DDF814902068C4
:1049D0004946FFF737FC054600283CD010F1340F5C
:1049E000EDD0284607B0BDE8F08F01230DF1130785
:1049F0000293CDE90087736A524659462046FFF775
:104A000095F878B90123CDE90173CDF800804B46C4
:104A10005A4604F120012046FFF7CCFC20B110F1EA
:104A2000340FCCD00546DCE708F10108B36A4345F2
:104A3000DBD82368A16A9A69706B06F015FF236AB8
:104A4000F362636A2068336304F12001FFF7FCFB23
:104A5000C6F82490C5E7804606F12C0AE6E7000078
:104A60002DE9F04F8DB0CDE90423CB6903F00302AB
:104A7000012A05460C4600F034815E0315D4E66930
:104A800032051BD4276A059BDF4200F12D8116F405
:104A9000003619D0DDF81490E369B9F1000F25D183
:104AA00023F40023059AE36104E000F027F90246AD
:104AB0000028E4D010460DB0BDE8F08F6269216A8D
:104AC0008A4288BF2262DDE763699F42E2D923629E
:104AD0000BAA0123214628468DF82C60FFF7C0FF62
:104AE000021EE7DB236A9F42F2D8D3E79B0304F15F
:104AF0002C0821D52B68A26ADB699A4240F0A48079
:104B00002B681B6AAB63D4E90832CDE9092305F1B0
:104B1000140A0BA92846FFF7C1FE0246F8B90B9EFE
:104B2000012E03D92868036A9E4222D97049714830
:104B300040F28C42FCF7AAFE236A002BE0D004F17D
:104B400028020292013B04F12402019200934146A3
:104B5000D4E904232846FFF76FF9024620B1E36940
:104B600043F40023E361A5E728684146FFF76CFBA7
:104B7000C6E73146FFF766FB024630B112F1340F4B
:104B8000EDD14FF0FF332B62C3E70A9B2F680690ED
:104B9000002B53D0013B0AA938460A93FFF72EF9A0
:104BA0000A9BF969069A01338B420A936ED1013050
:104BB00090FAA0F3B3FA83F3069303F1010B1746BF
:104BC000BB0007930423029309AB0193BB0000933E
:104BD0005246334641462846FFF7ECFB099B024606
:104BE0000028CBD10699B94254D1099B012B5FD83B
:104BF0003F49414840F2D3429CE70123CDE901738C
:104C00000022099BCDF800B051462846FEF78EFFE2
:104C100002460028A3D10123CDE901735246CDF805
:104C200000B0334641462846FFF7C4FB0246002841
:104C3000A4D10BF1010B0A9B9B45DED3C4E90963A8
:104C4000E36943F40033E3612F4657F8143BDE6910
:104C5000A36AF61A4E4528BF4E46049B0193A36AE9
:104C600000933A46636A029641462846FFF7A2FB44
:104C7000024638B310F1340F7FF471AF2146284655
:104C8000FFF796FE02460028E7D068E793460DF14D
:104C90002307D0E70421029109A90191B9000091ED
:104CA00028465146FEF742FF024600289DD056E7AF
:104CB0002A68126A93429BD80137BB4580D84FEAD5
:104CC0008B03BBE7236A33442362A36A3344A362A2
:104CD000049B334404932B681B6AAB63A9EB06095E
:104CE000DAE66FF00802E5E66FF01A02E2E600BFCE
:104CF000A8CC00002FCE0000FBCC0000CB695A03EB
:104D00002DE9F04144BF23F48023CB61CB6948BF38
:104D10004FF0FF32054648BFCA6213F4003090B02E
:104D20000C462CD00F6A2C22002102A805F1140693
:104D300006F0C9FD2369069396E8070063690793A7
:104D40000123CDE9093710AB03E907004FF0FF3825
:104D5000C5F81480226A63699A4213D304F12C08BF
:104D6000324641462846FFF7F7FA18B310F1340FE0
:104D700005D121462846FFF71BFE0028F0D010B0D1
:104D8000BDE8F08101230DF1070202A9284600F0D9
:104D90001DF80028F3DB01230DF107022146284608
:104DA000FFF75EFE0028EADB6B690133D2D0CDF855
:104DB0003480CDE7636A2361236A6361E36923F486
:104DC000003343F48033C4E90737D8E72DE9F04FC7
:104DD0001D46CB69904603F00302022A87B00746BE
:104DE0000C4654D09A0305D4236A6669B34208D3AB
:104DF000002003E0FFF782FF0028F5D007B0BDE8F0
:104E0000F08FF61AAE4228BF2E46B14604F12C01AF
:104E100004F1280A04F1240BB9F1000F01D1304646
:104E2000ECE7E3695B0304D53B68A26ADB699A425D
:104E300010D1236A0093CDE901BAD4E9042338469E
:104E40000591FEF7F9FF0028D8D1E369059943F4ED
:104E50008023E3613A68A36AD5690093ED1A4D4552
:104E600028BF4D46CDE90185636A05910022384689
:104E7000FEF75CFE0028C1D1236A05992B4423620A
:104E8000A36A2B44A362A844A9EB0509C4E76FF009
:104E90000800B3E770B50D4614461E46FFF72EFF17
:104EA00070B92B6A36B1012E01D11C4402E0022EEA
:104EB00007D01C46002CA6BF2C6220466FF01500C0
:104EC00070BD6B69F1E72DE9F041CB6903F0030395
:104ED000012B86B005460C46164643D0FFF7C5FBAE
:104EE00090421AD92846FFF709FF98B905AB0293FB
:104EF00004F11003CDE900630590D4E9042304F123
:104F00002C012846FEF798FF20B9E369666143F457
:104F10008033E36106B0BDE8F08126D20F6AB84263
:104F20000DD14FF00008236AB34210D300233A4654
:104F300021462846FFF7AEFF00EAE070EAE70223C9
:104F400000222846FFF7A6FF0028EADAE2E701235D
:104F500005AA214628468DF81480FFF781FD002818
:104F6000E1DAD7E76FF00800D4E70020D2E7F0B528
:104F7000012680F84060A7B004460430FEF7A3FD88
:104F80000546002879D101462C2205A806F09BFC95
:104F90004FF000432822294610A80D9306F093FCF9
:104FA0001A9623681B6A9D4202D36FF0330020E0FB
:104FB00019A8FEF788FD00285FD119AA10A920467C
:104FC000FEF762FEA8B90D9B002B34DB01AB1BAAD8
:104FD0000EA92046FFF750F800280ADB0BD1199BD9
:104FE0000E931A9B0F9300231A4605A9204600F042
:104FF00046F827B0F0BD039A0E99049B0F988A4299
:1050000001D1834217D0824201D1994213D00E922E
:10501000E8E79DF97030002B0DDA1DA92046FEF758
:10502000F3FF0028E5DB1BD01BAA10A9204600F0E7
:1050300056FA0028DDD11BAA10A92046FEF79FFFD3
:105040000028E6D0831CD4D110AF0FCF05AE0FC619
:105050000FCF0FC697E80700013586E80700A0E7E5
:105060009DF8703003F07F038DF870301BAA034663
:1050700010A9204600F047F9DBE70020B9E72DE949
:10508000F04F2DED028B9BB00D460793CB69049238
:105090000133CB610B1D08EE103A06464B680798AA
:1050A00089680593C5E9011302EB001413469C427D
:1050B00014D1059B0A93002309910693696830680F
:1050C000FFF7C0F8044688B114F1340F00F0E18016
:1050D00020461BB0BDEC028BBDE8F08FD8682A6A71
:1050E00002445868121A2A621033E0E705F11C08DE
:1050F0004FF0FF33102241460BA806F1200A10277B
:105100000B9300F02DFF00942246CDE901876B68D8
:1051100051463046FFF74EF904460028D4D1834665
:10512000B84629E0079B9B4580F28F80049A4FEA9E
:105130000B1302EB0B19D358434540F08680D9E995
:1051400002120BA800F00CFFD9F80C300293D9F82A
:1051500008300022CDE9007351466B683046FFF7F6
:1051600029F904460028AFD1D9F804309844D9F879
:105170000C300BF1010B1F442B6A23F00043043B5E
:10518000BB42CFD804230DF12C080293CDE900785F
:105190006B68002251463046FFF70CF904460028A0
:1051A00092D14FF0FF330246736151463046FFF70C
:1051B000D3F80446002887D130680369984704462D
:1051C000002881D14FF0FF330F932B6A696823F0D9
:1051D00000430FAF02460097043B3046FEF72FFD19
:1051E000044600287FF474AF0F9A0B9B9A4250D16B
:1051F000069B2BB343463A4609A93046FEF73CFFCF
:105200000028FFF666AF5ED06B680D93AB680E9317
:10521000424623463946304600F075F800287FF4B0
:1052200058AF311D09A8FEF758FC18B96B687360B8
:10523000AB68B3603046FFF79AFE00287FF449AFB1
:105240003269002A53D1104643E7012300930599A0
:105250000FAB42463046FEF7E5FC044600287FF4DB
:1052600037AF01220FA90BA800F07AFE01230293A9
:105270000FABCDE9007322466B6851463046FFF70D
:1052800099F8044600287FF41FAF08F101080137A0
:1052900072E74FF0FF333362002201230FA909A800
:1052A000CDE90F23FEF719FC10B96FF0330010E7BA
:1052B00018EE101A3046FFF7F1FA01230693002882
:1052C0003FF4FCAE05E73A4609A93046FEF743FD38
:1052D0000028FFF6FEAEB3D06B681893AB68199345
:1052E00000231A4639463046FFF7C9FEA5E718EEF7
:1052F000101A101DFEF7F1FB18B96B685360AB680C
:10530000936012689DE770B5154688B055F8044B58
:10531000D27900940C26002BCDE905230792344462
:1053200014BF022301236A46CDE901650396049464
:10533000FFF7A5FE08B070BD70B592B006460D46E9
:10534000FFF7DCFC0446002838D1EB6903F4102396
:10535000B3F5803F32D12A1D1046FEF7B4FB68BB7F
:1053600007A93046FEF790FC044638BB0C23CDE974
:105370000400EA68069000930899039204AB304653
:10538000FEF750FC0446C8B99DF81030112B05D02B
:105390000C490D4840F21362FCF778FA2B6905932B
:1053A0006B69069303AA034607A93046FFF7ABFFD4
:1053B000044618B9EB6923F48033EB61204612B040
:1053C00070BD00BFA8CC00005ECE000070B50546E1
:1053D0000C46FFF7B1FFEB68064605F10C021BB166
:1053E000A3420DD123681360A3690BB11B682BB9CD
:1053F0002B685B6B13B9606B06F01EFA304670BD0C
:105400001A461B68EBE72DE9F043804695B00E463F
:105410001746994601F12405FA79B9797879346A01
:10542000FEF7A9FDD8F80030DB692044984215D872
:10543000043C47F8044B00230C21CDE90A37CDE9A1
:105440000C14CDE90E3910920994022309AA3146B1
:105450004046FFF714FE15B0BDE8F083002C36DBA4
:1054600035460FCD09AC0FC40FCD0FC495E807002A
:1054700084E8070031464046FFF76EFA0028EAD17B
:10548000129B7362139BB362336A3A46043B42F841
:10549000043B03920C22CDE90130CDE90423FB79D2
:1054A0000893CDE90609022301AA31464046FFF7D9
:1054B000E6FD0028CFD1119B43F0004311937368A0
:1054C0001293B36813930246034609A9C0E72A461C
:1054D00031464046FEF7D8FB00289DD0BBE72DE9BA
:1054E000F04F14460D46D279A1798DB0804660798F
:1054F000FEF741FD2B6A143023F0004383421DD197
:1055000001AA291D4046FEF726FC061E12DB099A59
:10551000002A13DA2B6A63F00043134009936B6A85
:105520000A93AB6A0B9300231A4601A94046FFF782
:10553000A6FD064630460DB0BDE8F08F2368E2793F
:10554000A17960790193FEF716FD0023CDE90333BD
:105550000290012301AA29464046FFF790FD064626
:105560000028E7D1D8F80C7005F1040B4FF0FF3A92
:10557000FFB9D8F8107005F10408002FDAD04146C1
:10558000381DFEF7AAFA90B9FD6823689D420ED92E
:10559000E279A1796079FEF7EEFC281AF860E279E9
:1055A000A1796079FEF7E7FCBB69181AB8613F681A
:1055B000E3E75946381DFEF790FA30B9D7F80C905A
:1055C0002368994503D1C7E901AA3F68D0E7FCD910
:1055D000E279A1796079FEF7CEFCA9EB0000F860D2
:1055E000F3E70000F0B5A5B00546FEF739FE044626
:1055F000002877D12B685A6A0146D208E86B06F07A
:1056000062F92A68EC62D2E908320EA9C5E90D43B5
:105610009A4294BF2A632B632846FFF79DF90446FC
:1056200000285CD119A92846FFF796F904460028FE
:1056300055D10346024619A92846FFF720FD044626
:1056400000284CD1294B1A9E1B9A6E601027CDE979
:1056500005732B68AA60D969099125491B6A0868F6
:105660000A93496801974FF001130B930CAB03C3E6
:105670003423CDE90762CDE91762169306AE2023E5
:10568000CDE90363029301AA01230EA92846FFF77F
:10569000F6FC20B110F1340F02D004461FE00124C3
:1056A0002023CDE90236049301AA01230EA928463E
:1056B0000197FFF7E4FC20B110F1340FEDD1002C7D
:1056C000EBD000220123CDE901230EA901AA28462F
:1056D000FEF7DAFA044610B92B681B6AAB6328465A
:1056E000FEF70CFA204625B0F0BD00BF2E140008CE
:1056F00026CE000070B590F840309CB00546019170
:10570000002B41D001AB02AA06A92846FEF7EAFC0D
:10571000831C044640D1019E2F21304606F069FAD1
:10572000002836D12B681B6AAB6311A92846FFF706
:1057300013F9044668BB0F9B1A93109B1B930246F8
:10574000034611A92846FFF79AFC044608BB40F619
:1057500022038DF80E003046ADF80C3006F079FAD1
:10576000129A139B8DF80F00CDE90F230492059335
:1057700002AA334606A92846FFF745FE044640B96B
:105780002B681B6AAB6304E0FFF7F1FB04460028BB
:10579000B8D020461CB070BD002808BF6FF01004C0
:1057A000F7E72DE9F0471F4692B003F00303012B02
:1057B000DDF86880019206460C4611D101AB03AAC0
:1057C00007A93046FEF78EFC0546B0B99DF81030AB
:1057D000222B00F08680B90534D56FF0100508E063
:1057E00090F84030002BE9D1FFF7C1FB05460028B7
:1057F000E4D0284612B0BDE8F087821CF9D1DDF86C
:1058000004A02F21504606F0F4F981460028F0D17B
:10581000FB05EED540F611038DF812005046ADF8A9
:10582000103006F016FA4FF0FF33CDE905398DF848
:105830001300534603AA07A93046FFF7E4FD0546C7
:105840000028D6D1089B6360099BA360039BE3609B
:10585000059B23610022069BC4F8188078056361CC
:10586000E761226210D44FF0FF33E362B8F1000F1A
:1058700002D0D8F800306BBB3268536B73B1F2685A
:1058800042B36FF00B05B4E713B147F48037E7611B
:105890004FF0FF320023C4E90423E4E7E36903F097
:1058A0000303012B0AD1506905F0BEFF6063002895
:1058B000E7D0F36823600025F4609AE7906905F06B
:1058C000B3FF60630028DCD0306804F12C01FEF7E0
:1058D000BBFCEEE76363E36903F00303012BE8D04D
:1058E000F2E76FF0140584E713B500240094FFF786
:1058F00058FF02B010BD000010B590F840309CB0C9
:105900000446019143B101AB02AA06A92046FEF765
:10591000E9FB30B11CB010BDFFF729FB0028F2D025
:10592000F8E79DF80C30222B18D002AA06A92046D1
:10593000FFF7D5FD0028EDD19DF80C30222BE9D1E1
:1059400006AA12A92046FEF706FA0028E2DB12D1C9
:105950000E490F4840F27172FBF798FF04AA11A993
:105960002046FEF791F90028D4D1199B142BDCD0E6
:105970006FF02600CEE71A9B0F931B9B109300231A
:105980001A4606A92046FFF77AFBC3E7A8CC000019
:105990007BCE0000F0B590F84030B3B0CDE90221E5
:1059A0000446002B48D0039B049305AA04AB11A91D
:1059B0002046FEF797FB002842D19DF8183063F08F
:1059C0007F038DF8183005AA034611A92046FFF77A
:1059D0009AFC002834D109AF02AB3A461CA92046F4
:1059E000FEF780FB054668B3821C7DD102982F210B
:1059F00006F0FFF8002877D197E80F000DAE86E893
:105A00000F0006AA07CA0EAB83E807009DF83830DE
:105A100003F07F038DF83830029B0193184606F09F
:105A200018F9AB1C8DF83B00019B22D132461CA912
:105A30002046FFF7E8FC21E0FFF799FA0028B2D0F2
:105A400033B0F0BD9DF818309DF8282003F07F0397
:105A50009A424BD1222ACFD10BAA27A92046FEF782
:105A600013F90028ECD12F9B142BC5D06FF0260022
:105A7000E6E732461CA92046FFF745FC0028DFD1A7
:105A8000012384F8413005AA03AB11A92046FEF793
:105A900029FB0028D4D1064684F8410005AA11A9A3
:105AA0002046FFF71CFD0028CAD10235C8D09DF85A
:105AB0002830222BC4D11CAA28A92046FEF74BF976
:105AC0000028BDDB05D10B490B484FF4FB62FBF707
:105AD000DDFE309B2593319B2693324633461CA92D
