:020000040800F2
:10000000000008241573010861730108D565000814
:10001000DB650008E1650008E765000800000000F6
:10002000000000000000000000000000AD250008F6
:1000300061730108000000004726000857260008E9
:10004000617301086173010861730108617301083C
:10005000617301086173010861730108617301082C
:10006000617301086173010861730108617301081C
:10007000617301086173010861730108617301080C
:1000800061730108617301086173010861730108FC
:1000900061730108617301086173010861730108EC
:1000A00061730108617301086173010861730108DC
:1000B00061730108617301086173010861730108CC
:1000C00061730108617301086173010861730108BC
:1000D00061730108617301086173010861730108AC
:1000E0006173010861730108000000006173010879
:1000F000617301086173010861730108617301088C
:10010000617301086173010861730108617301087B
:10011000617301086173010861730108617301086B
:10012000617301086173010861730108617301085B
:10013000617301086173010861730108617301084B
:1001400061730108617301080000000000000000F5
:10015000617301086173010861730108617301082B
:10016000617301086173010861730108617301081B
:1001700061730108617301086173010800000000E8
:1001800061730108617301086173010861730108FB
:1001900061730108617301086173010861730108EB
:1001A00061730108617301086173010861730108DB
:1001B00061730108617301086173010861730108CB
:1001C00061730108617301086173010861730108BB
:1001D00061730108617301086173010861730108AB
:1001E000617301086173010861730108617301089B
:1001F000617301086173010861730108617301088B
:10020000617301086173010861730108617301087A
:10021000617301086173010861730108617301086A
:10022000617301086173010861730108617301085A
:100230005505000811730108617301086173010815
:10024000617301086173010861730108617301083A
:10025000617301086173010861730108617301082A
:10026000617301086173010861730108617301081A
:10027000617301086173010861730108617301080A
:1002800061730108617301086173010800000000D7
:10029000617301086173010810B5054C237833B907
:1002A000044B13B10448AFF300800123237010BD49
:1002B0002004002400000000F4DD010808B5034B11
:1002C0001BB103490348AFF3008008BD00000000E4
:1002D00024040024F4DD0108154B002B08BF134B48
:1002E0009D46A3F5803A00218B460F461348144AD9
:1002F000121A1AF039FA0F4B002B00D098470E4B08
:10030000002B00D098470020002104000D000D486C
:10031000002802D00C4806F0ADFE1AF00FF82000BD
:10032000290004F093F907F061F800BF000008000D
:100330000000082400000000A94500082004002453
:10034000483F0024757000080000000007B50093C6
:1003500013460A460146044814F054FA003818BF00
:10036000012003B05DF804FB1422002407B50093BC
:1003700013460A460146044814F026FB003818BF0D
:10038000012003B05DF804FB142200240A46014654
:10039000034808B514F0ECFB003818BF012008BD75
:1003A00014220024F0B5304C8BB008270126D4F875
:1003B000E0300022032505A943F040032B48C4F890
:1003C000E030D4F8E03003F040030193019BCDE925
:1003D0000725CDE9057610F0F7F8002239462348C5
:1003E00010F0D8F9D4F8DC3005A9214843F40073A3
:1003F000C4F8DC30D4F8DC3003F400730293029BC1
:10040000D4F8E03043F00203C4F8E030D4F8E03030
:1004100003F002030393039BD4F8E0303B43C4F89A
:10042000E030D4F8E03008953B400493049B02236D
:10043000CDE90636092309934CF21803059310F011
:10044000C3F8C02305A90B4805930B23099310F0AB
:10045000BBF8002205217C200FF0A8FD7C200FF0C6
:10046000D7FD0BB0F0BD00BF004402580018025881
:1004700000040258000C025808B57C200FF0D6FD8D
:10048000034AD2F8DC3023F40073C2F8DC3008BD34
:100490000044025837B5124B0025124C2946236000
:1004A00004232046256163614FF48043C4E901556C
:1004B000E360FFF777FF01238DF807309DF80730E1
:1004C000012B06D020462946FFF7D6FF022003B0B5
:1004D00030BD204614F01AFF003818BF0120F6E79F
:1004E000002402481422002470B5084C084E20460F
:1004F000266014F073F90546002120462660FFF7B8
:10050000BBFF281E18BF012070BD00BF14220024AD
:1005100000240248014814F051BF00BF14220024F7
:1005200008B5034814F0DEFE043818BF012008BDEA
:10053000142200240146014814F0F8BD14220024BE
:10054000704708B5FFF7FCFF08BD704708B5FFF717
:10055000FCFF08BDFFF7DEBF00207047002070479A
:100560000368DB6A18474FF0FF307047D0E902019B
:100570007047D0E904017047D0E906017047D0E91F
:100580000931C26A006A424301FB0323A0FB010157
:100590001944704700487047F8C201085C3007F002
:1005A00055BB5C3007F06EBB38B503680546DB6CA5
:1005B0009847FFF799FF044685F8540038B92B682F
:1005C00085F8800028461B6D9847204638BD0148B5
:1005D000FCE700BF78ECFFFF074B10B50360044653
:1005E00090F880300BB1FFF7DFFF04F15C0007F0FB
:1005F00061FB204610BD00BF08C3010810B50446CA
:10060000FFF7EAFF8821204606F02AFF204610BDAA
:100610002DE9F74FDDE90CAB0D460168044617469E
:100620001E46CDE900ABC96B8847002831D023684E
:100630002046DB6C984794F8803043B92368204605
:10064000154D1B6D9847284603B0BDE8F08FD4E9DF
:1006500008895046594642464B461BF0B1FC82463B
:1006600042464B46384631461BF0AAFCA36D014674
:1006700052462846094DFFF769FE002808BF0025AD
:10068000FFF74EFF0028FBD1236820461B6D9847DB
:10069000D9E7034DD7E700BF74ECFFFF6DECFFFF18
:1006A00075ECFFFF2DE9F74FDDE90CAB0D46016856
:1006B000044617461E46CDE900AB096C8847002862
:1006C00031D023682046DB6C984794F8803043B9DA
:1006D00023682046154D1B6D9847284603B0BDE89A
:1006E000F08FD4E908895046594642464B461BF0E4
:1006F00067FC824642464B46384631461BF060FC5A
:10070000A36D014652462846094DFFF72FFE0028EB
:1007100008BF0025FFF704FF0028FBD1236820460F
:100720001B6D9847D9E7034DD7E700BF74ECFFFF77
:100730006CECFFFF75ECFFFFF0B585B00168044677
:1007400016460A9D0B9F00950197496C884770B328
:1007500023682046DB6C984794F880303BB92368C7
:100760002046144D1B6D9847284605B0F0BDD4E9CE
:1007700008230021A81A3044CDE902321BF020FCE6
:10078000054600213046DDE902321BF019FC2946FE
:10079000FFF7FCFD0028084D08BF0025FFF7C0FE4D
:1007A0000028FBD1236820461B6D9847DCE7034DEA
:1007B000DAE700BF74ECFFFF6EECFFFF75ECFFFFA4
:1007C0002DE9F0471E460368154604465B6ADDE9DD
:1007D000087A984702460B46284631461BF0F0FB44
:1007E000134302D00020BDE8F087236820465B6AEF
:1007F000984702460B46384651461BF0E1FB13432F
:10080000F0D115EB07082368204646EB0A099B6BDD
:100810009847494508BF40452CBF01200020E2E72A
:1008200001682DE9F04717469846096B0646DDE951
:10083000089A884702460B46384641461BF0C0FBE3
:10084000134302D00020BDE8F08717EB090433689A
:10085000304648EB0A0514F1FF32196B45F1FF33BE
:10086000884702460B46204629461BF0A9FB134346
:10087000E8D1336830469B6B9847A94208BFA04235
:100880002CBF01200020DEE738B503680446DB6C8E
:100890009847FFF7FFFD054684F8540050B12368E0
:1008A000022D20461B6D02D19847104838BD98474D
:1008B0000F48FBE704F13000FFF73CFE236B2046B6
:1008C0002371636CC4E90235C4E90435C4E9063513
:1008D000C4E90835236CC4E90A35012384F8803063
:1008E00023681B6D98472846E0E700BF73ECFFFFC5
:1008F00074ECFFFF2DE9F0471E46036815460446D9
:100900009B6ADDE9087A984702460B46284631463D
:100910001BF056FB134302D00020BDE8F08723688C
:1009200020469B6A984702460B46384651461BF0C4
:1009300047FB1343F0D115EB07082368204646EB2D
:100940000A099B6B9847494508BF40452CBF0120C9
:100950000020E2E70D4B4FF4007210B50360002356
:1009600004465C3040E9152340E9132340E9112394
:1009700040E90F230022002340E90D2307F05EF930
:100980004FF47A732046A36510BD00BF08C3010869
:100990006F23038000487047400000240020704708
:1009A000002070470A23038000487047B0000024ED
:1009B000BFF34F8F0549064BCA6802F4E062134348
:1009C000CB60BFF34F8F00BFFDE700BF00ED00E03D
:1009D0000400FA05F0B541F21802D0F8B84289B027
:1009E0000746A35C042B6BD104F5805641F2040347
:1009F0003168002955D12278AAB9E358012B41D199
:100A0000002541F2040341F21802E550032335604A
:100A1000A35441F21102A55441F21202A55241F22F
:100A20001402A3542BE0212A10D1E358052B29D11D
:100A3000E378A2781B0403EB022362781344227943
:100A400003EB026341F20802A350D9E7412A19D10E
:100A5000E358052B16D1E378A0781B0403EB0023A1
:100A600060780344207903EB006041F20803E05012
:100A7000D7F8BC325B6998470028C1D002252846C8
:100A800009B0F0BD002341F2040204A93846A35086
:100A900033608DF810300123ADF8163000F0F2FD10
:100AA000AEE70129ACD941F208020239A058D7F8C3
:100AB000BC2200EB013120469569E258A847DBE7EC
:100AC000072B4FF0000313D141F219016354184969
:100AD00091F8265041F2110115F004050AD00620C4
:100AE000A05441F212026354A35241F21402A054E2
:100AF0001D46C4E70823A35441F212026554A552CF
:100B000041F21402A354D0F8BC321B699847094B38
:100B1000094A00210948079206950092CDE9043759
:100B200004ABCDE9020106480ECB04F060FCA6E759
:100B300040000024B10900089D0F0008400D03008B
:100B40004004002438B5D0F8B832002541F218012D
:100B5000044603F58052156041F204029D500222C2
:100B60005A5441F210015D5441F214015A54D0F824
:100B7000B80218B119F080FDC4F8B852002038BD91
:100B800038B5044641F21C0019F06EFDC4F8B802F5
:100B9000E0B1022241F2180300F580510C4DC2521F
:100BA00000230B6041F20401435041F2080145501B
:100BB00041F20C01435041F21001435041F2140341
:100BC000C252D4F8BC32DB68984700B1022038BD6D
:100BD00000000408054B10B50446036004F0DEFB7A
:100BE000204604F089FC204610BD00BF18C601084D
:100BF000082908B509D88B1FD0F8BC02044950F861
:100C0000230000F04AFD024808BD0020FCE700BFB9
:100C1000800400242DE9F7430D7800230646D0F820
:100C2000B84215F06005ADF8063000F07681202D51
:100C300040F0898191F80180B8F1060F00F28381BC
:100C4000DFE818F03F0107003E00AF0006011D017C
:100C5000220141F21803CA88E05CDAB1022801D00F
:100C6000052813D1498804F580533046196041F2B4
:100C7000040341F21801E2500323635441F21401CA
:100C80006354214600F03AFD002515E0304600F09F
:100C9000F9FCF9E7052801D00228F7D14FF4837257
:100CA0000025E25241F211030622E55441F21203FB
:100CB000E55241F21403E254284603B0BDE8F08344
:100CC000CA8841F21800002A5FD0205C04F58053E6
:100CD000022801D0092852D14F8841F204091F602F
:100CE00041F2180344F80920DFB9032A21464FF0E6
:100CF000030298BF4FF0090804F8038041F2110382
:100D0000E75441F21203E75241F2140304F803805E
:100D10004FF4045323804123A370304600F0D9FCE4
:100D2000B2E7012F41F211001BD009210025023F3B
:100D3000E15441F212032554E55241F21403E15407
:100D400041F208032146E058D6F8BC3200EB0730E8
:100D5000DB69984734F809200146304600F0B9FCB9
:100D6000AAE70F220025E25441F212032554E5526E
:100D700041F21403E254304600F084FC9CE7002565
:100D800041F20402A5501D60F5E7022341F2110172
:100D90002354625441F21201625241F2140163542D
:100DA00072E741F2180204F58055A35C1035032B5D
:100DB00004D0062B2DD006222946AEE741F20403CB
:100DC00041F21100E358EBB1042341F21201A354A4
:100DD00000222254625241F21402A35441F2080349
:100DE000E05804F580531968D6F8BC3231B922783E
:100DF000412A03D11B6A2A469847DCE71B6A2A4628
:100E00000121F9E70521A154235441F21202A35212
:100E10000DE041F21903E35C012B0CD10721A15431
:100E200041F21102A35441F212030022E25241F2B4
:100E30001403E154BFE7002BBDD1564991F82610A9
:100E40004907B8D50221A15441F21102A354DCE7AD
:100E500041F2180341F21001E25C0A2A07D1022292
:100E60000025E25441F214036550E25224E70A22BD
:100E7000E2540E23635041F21403E25204E704F5F6
:100E800080510122183148E741F21802A35C092B76
:100E90003FF6FAAE4FF41B75DD40ED4315F001054A
:100EA0007FF4F2AE0223A35441F21002A55041F2A6
:100EB0001402A35204F580531D6041F20403E5506F
:100EC000FAE641F21800225C092A14D84FF41B7389
:100ED000D340DB4313F001030DD10222225441F22F
:100EE0001000235041F21400225204F58052136086
:100EF00041F20402A350274B93F8275015F0100538
:100F000007D03046454600F08CF8304600F084F8B3
:100F1000D2E648880EF0B4FFCEE64F780B2F12D8F9
:100F2000DFE807F006111111111116111111232C10
:100F300090F89C32032B06D102220DF106013D46AA
:100F400000F0C7FBB8E63046022500F09BFBB3E695
:100F50004B881B12212B05D1CA880F49092A28BFAB
:100F60000922FAE600221146F7E690F89C32032B9C
:100F7000E9D104F5805101220C31EEE68B78022B89
:100F8000E1D890F89C22032ADDD141F20C02A35053
:100F900092E600BF4000002464000024D0E9003045
:100FA000184700207047002070470020704700203D
:100FB000704709B1C0F8BC120020704710B5054C4D
:100FC000204604F05FFA2046034A0449BDE8104079
:100FD00006F04EB84004002400000024D50B0008A1
:100FE00008B580B1D0F8B43213B10023C0F8B432E0
:100FF00009B1C0F8B0120123027080F89C3201F0F0
:1010000061F8002008BD0220FCE719B1C0F8B41255
:10101000002070470220704708B501F07BF80020DF
:1010200008BDD0F8B43201795B6810B50446984722
:10103000204601F076F8002010BD08B5D0F8B43293
:101040000BB9022008BD1B6898470028FAD0F8E7C2
:1010500008B5D0F8B4325B689847002008BD38B5B1
:1010600000F52A750446284600F0F8FA012394F8A2
:10107000A812C4F89432B4F8AE32C4F8983201F031
:101080001F03012B08D0022B0BD07BB92946204629
:1010900000F004F9002038BD2946204600F030FA5F
:1010A000F8E72946204600F04FFAF3E701F0800107
:1010B000204601F047F8EDE770B5044616460D46A8
:1010C00041BBD0F89432032B1DD1D0E95812914284
:1010D0000CD9891A8A42C0F8601188BF8AB2314699
:1010E00098BF92B200F017FB284670BDD0F8B4321A
:1010F0001B6923B190F89C22032A00D1984720460F
:1011000000F011FBF0E7052BEED1C4F8941201F0CA
:1011100019F8E9E7D0F8B4329B6933B190F89C2212
:10112000032A02D100259847DEE70225DCE7F8B55F
:10113000044617460D46002947D1D0F89432022BB9
:101140003CD1D0E908639E4214D9F31A39469AB2C9
:10115000036200F0CBFA2B462A462946204601F0CE
:1011600020F894F8A032012B02D1002384F8A03299
:101170002846F8BDC269B2FBF3F603FB16265EB93A
:10118000934209D8D0F898329A4205D20A4600F024
:10119000ADFAC4F89852DEE7D4F8B432DB682BB16C
:1011A00094F89C22032A01D12046984780212046AA
:1011B00000F0C8FF204600F0C1FAD2E733F0040384
:1011C000CFD1802100F0BEFFCBE7D0F8B4325B690D
:1011D00033B190F89C22032A02D100259847C7E733
:1011E0000225C5E70022402370B5044601254026AC
:1011F000114600F09DFF8021334600222046C4F8AE
:101200005851C4F8646100F093FF0021D4F8B8325B
:10121000A561666284F89C52C4F894126160C4F8B7
:10122000A41223B1D4F8B43220465B68984700205A
:1012300070BD01740020704790F89C3280F89D3298
:10124000042380F89C320020704708B590F89C2257
:10125000032A04D1D0F8B432DB6903B198470020E7
:1012600008BD002070470020704700207047012211
:10127000017908B580F89C22D0F8B42252689047D2
:10128000002008BD10B50446802100F05BFF00215E
:101290002046BDE8104000F055BF000037B50B7880
:1012A00004460D4603F06003202B12D0402B10D0D3
:1012B000002B51D14B78092B4ED8DFE813F0F70003
:1012C00013014D000C014D00900013004D00DF0094
:1012D000AC00D4F8B432294620469B6898470020D9
:1012E00003B030BD00234988ADF806300B0A013B3E
:1012F000062B31D8DFE803F00416233030515B00B1
:10130000D0F8B0321B680DF10601207C9847BDF87B
:101310000620002A5FD0EB88002B53D1204600F036
:1013200002FADCE7027CD0F8B43232B99B6A0DF1E4
:101330000600984702234370E9E7DB6AF7E7C9B282
:10134000052921D8DFE801F0030C1014181CD0F88F
:10135000B0325B68002BD6D12046FFF793FFBEE783
:10136000D0F8B0329B68F5E7D0F8B032DB68F1E72F
:10137000D0F8B0321B69EDE7D0F8B0325B69E9E72D
:10138000D0F8B0329B69E5E7D0F8B4329B6B002B04
:10139000E2D00DF106029847B9E7037C002BDBD1C0
:1013A000D0F8B4320DF106005B6B9847AFE7037CD1
:1013B000002BD1D1D0F8B4320DF106001B6B984749
:1013C0000723B8E79A420146204628BF1A46ADF8DF
:1013D000062000F07EF9EB88002B80D19EE78B88F9
:1013E000002BB9D1CB88002BB6D14D887F2DB3D837
:1013F00090F89C32032BAFD0E9B280F89E1200F037
:10140000C2FE204600F08FF91DB1022384F89C3201
:1014100065E70123FAE78978384D012929709BD8BF
:1014200090F89C32022B08D0032B15D0FFF72AFF2F
:1014300029782046FFF70CFE51E700293FF46EAFF4
:1014400001210323416080F89C322046FFF7F5FD1F
:1014500002287FF463AF7FE731B90223416080F84F
:101460009C32FFF7F5FD59E7416801293FF456AF7B
:10147000C9B2FFF7EDFD29786160E6E7CA88012A65
:101480007FF46AAF90F89C32022B0AD8002B3FF40D
:1014900063AF0146002341F8083F204600F019F9E8
:1014A0001DE7032B7FF458AF011DF6E790F89C323F
:1014B000013B022B3FF650AFCB88022B7FF44CAFA1
:1014C0000123C360D0F8A4320BB10323C36002220E
:1014D00004F10C01E1E74B88012B7FF400AFC4F865
:1014E000A4321BE790F89C32013B022B3FF634AF4D
:1014F0004B88012B7FF4F3AE0023F0E77F05002437
:1015000038B50B7804460D4603F06002402A01D03E
:101510005B0615D494F89C32013B022B10D82B7932
:10152000022B0DD8D4F8B432294620469B68984740
:10153000EB881BB910B9204600F0F5F8002038BD43
:101540002046FFF79FFEF9E738B50A7804460B46B8
:1015500002F06002202A27D0402A25D092BB5A7878
:101560008D88012A09793DD0032A25D052BB90F8F5
:101570009C32022B4DD0032B24D101F00F031422F7
:1015800015F0800F02FB030354D09B69D3B101F027
:101590007F05142305FB0333C51811F07F0355D1D4
:1015A0002B600222294641E0D4F8B4221946204695
:1015B00092689047002038BD90F89C22022A1FD0E4
:1015C000032A03D02046FFF75DFEF3E75A882AB9C5
:1015D0004A0603D0DB880BB900F0B4FD204600F0CA
:1015E000A2F8E7E790F89C22022A09D0032AE9D161
:1015F0005B88002BDED14D06F0D000F0AAFDEDE7B0
:101600004B06DFD000F09EFD8021204600F09AFDC1
:10161000D0E74A06D6D12B064FF002024FF0000366
:101620004CBF00F1140100F5AA710B60204600F0D8
:1016300050F8BFE7D3F85831002BC3D001F07F0535
:10164000142303FB050505F5AA75A6E7204600F05F
:1016500087FD08B10123A3E72860A2E70B78037098
:101660004B784370CA788B7803EB022343804A7926
:101670000B7903EB02238380CA798B7903EB022376
:10168000C380704710B50446802100F05BFD002147
:101690002046BDE8104000F055BD30B588B10025AA
:1016A00001382B460135445D002CFAD1DBB2013301
:1016B0005B0013800B7003234B70022310F8015F53
:1016C00005B930BD5A1CCD540233D2B2DBB28C54B2
:1016D000F4E710B502241346C0F89442C0E907228B
:1016E0000A46002100F056FD002010BD08B5134643
:1016F0000A46002100F04EFD002008BD10B503246D
:101700001346C0F89442C0E957220A46002100F06F
:1017100048FD002010BD08B513460A46002100F020
:1017200040FD002008BD08B50423C0F89432002312
:101730001A46194600F02EFD002008BD08B5052305
:10174000C0F8943200231A46194600F02AFD002002
:1017500008BD0000094B30B51A46094CD3F8945027
:10176000A542FBD1036829B181680B604FF4407337
:10177000536130BDC1681B04F7E700BF0064025825
:1017800000030080024B034A1A6010F0EDBC00BF5A
:1017900080050024004000582DE9F043EBB0FFF72E
:1017A000F1FF0021B84812F090FF054603F0B0FDAC
:1017B000012809D1B4484DF65972002112F080FF7A
:1017C0004FF4FA700EF05CFB1C22002103A818F005
:1017D000CBFF0022022103A804F071F91C22002192
:1017E0000AA818F0C1FF00220123962100920AA83E
:1017F00004F07EF90B9B1A680A9B1A4206D00AA8CD
:1018000003F0BDF801210AA8FFF7A4FF1C22002164
:1018100011A8002418F0A8FF2D2111A804F065F9E3
:1018200018A803F007FE0EF0D9FC5122502129A878
:1018300003F048FB48F29C0302AA1021ADF80830DF
:1018400029A80223009403F09FFA42F29E0302AA01
:101850001021ADF8083029A80223009403F094FA6F
:101860000A200EF00DFB40F2422302AA1021ADF82F
:10187000083029A80223009403F086FA0A200EF00B
:10188000FFFA4AF2940302AA1021ADF8083029A801
:101890000223009403F078FA0A200EF0F1FA0121F5
:1018A00003A8FFF757FF0A200EF0EAFA214603A823
:1018B000FFF750FF0A200EF0E3FA012103A8FFF71B
:1018C00049FF0A200EF0DCFA40F2AA739D421FD1B4
:1018D00001216D4812F0F9FE022106466A4812F015
:1018E000F4FE07460321684812F0EFFE394602462F
:1018F000F0B200F01DF9024630B90146624812F01C
:10190000DFFE0EF091FCFEE721465F4812F0D8FEA4
:101910005E4B1A6802F07F42B2F1005F11D01A6884
:1019200002F07F42B2F1105F0BD01A6802F07F42E2
:10193000B2F1405F05D01B6803F07F43B3F1605FF5
:1019400019D14DF659739D4215D040F2AA739D42AC
:1019500011D000224D4C4C48114612F0B1FE0EF051
:1019600063FC204604F036FF236883F30888484B65
:1019700001201B6898470021012015F0EDFB454F21
:1019800015F044FB444E00F085FD002243493D46DE
:101990004348FFF725FB43494148FFF736FB4249DF
:1019A0003F48FFF706FB3E48FFF736FB4D200EF0A1
:1019B0003DFB65200EF03AFBDFF8F890DFF8F88089
:1019C0007269B3691A4202D048460FF0C7FFD8F8CF
:1019D0000020282192FBF1F4531C01FB1424C8F8C9
:1019E0000030002CECD115F0CFFFB0F5FA7F13D901
:1019F000DFF8C88098F8003073B12146224812F011
:101A000064FE4DF65973984206D1224621461E487F
:101A100012F056FE88F800403B78244C83B9244BE2
:101A200011A81B78227842FA83F3DBB22370129B51
:101A30001A68119B1A420CBF01210021FFF78AFE90
:101A40002B780133DBB22B702378FA2B02D8237862
:101A5000092B0AD8164A13785B425BB213701378CD
:101A6000227842FA83F3DBB223702A7823789A42F1
:101A7000A2D1129B11A81A68119B1A420CBF012116
:101A80000021FFF767FE97E78005002400000408A7
:101A9000040004086C08002400000440C000002476
:101AA000A40500240400002428010024BC00002414
:101AB000BB0000249022002468080024BA000024FF
:101AC000BFF34F8F0549064BCA6802F4E062134327
:101AD000CB60BFF34F8F00BFFDE700BF00ED00E01C
:101AE0000400FA050368184700F07B43B3F1005F78
:101AF0000ED000F07743B3F1405F09D000F07F4093
:101B0000B0F1805F14BF4FF0FF304FF001607047BD
:101B1000004870470000040800B597B0694605F01A
:101B200067FA18B9049817B05DF804FB0020FAE7CB
:101B30002DE9F04F2DED028B8BB00446AE48884660
:101B400004AFAE4E7A6002F04DFF14F0020F0FD0DA
:101B500014F0600F4FF0280000F0A78005F06AFC39
:101B6000C8F50012054608F1006106F057FB356024
:101B7000630744BFA24B3360250706D5882005F0D4
:101B800059FC0546FEF7E6FE356020060AD53168A9
:101B90002820396005F04EFC05464246396807F0BA
:101BA0006FFE356014F0400F964D0FD0C82005F041
:101BB00041FC4FF40073814600229349CDE9013383
:101BC000402300930DF072FEC5F80090A10608D5E1
:101BD0005C2005F02FFC044600228B490BF01AF91B
:101BE0002C6028683168002873D003685B6A9847C6
:101BF0000546002861D18549854818F0D9F9804605
:101C0000002863D003460422012107F1080018F0E0
:101C10008BFA2A462946404618F096FAB868FFF72C
:101C200063FF421C04464AD07948FFF775FF2146FE
:101C30007860714802F0CDFEB0F5804FDFF8B891C2
:101C400028BF4FF48040064618F00EFD82467B68A0
:101C50009D4280F0B38043463246012105EB040BE0
:101C6000504618F061FA2146484602F0B2FEBBFB2E
:101C7000F0F303FB10B060B92146484602F0A9FE1C
:101C800059460246484602F0B3FF42F2107005F092
:101C900021FD33465A465146484602F013FF4FF4A1
:101CA0007A70354405F016FDD1E705F0C3FB4FF41B
:101CB000001205464FF0006157E76FF0010420461F
:101CC0001C37BD46BDEC028BBDE8F08F6FF00204FF
:101CD000F5E7002972D06B46084608EE103A0B680B
:101CE0009B689847054600287FD1306803689B6A47
:101CF0009847102802463068B8BF10220168930048
:101D0000073323F00703ADEB030DD31704ACCDE984
:101D100000232B46D1F8149042462146C84720683C
:101D2000FFF7E2FE431C044661D00146324802F050
:101D300050FEB0F5804FDFF8C0A028BF4FF48040C0
:101D4000814618F091FC08EE900A7B689D4232D2E1
:101D50003068002218EE901A0368019205EB080221
:101D6000CDF80090D3F814B00023D84705EB040B4E
:101D70002146504602F02DFEBBFBF0F303FB10B0F2
:101D800060B92146504602F024FE594602465046AC
:101D900002F02EFF42F2107005F09CFC4B465A46B2
:101DA00018EE901A504602F08DFE4FF47A704D44B2
:101DB00005F090FCC9E718EE103A9D460E48002445
:101DC00002F038FE134B144800217B61134BC7E926
:101DD0000344BB6007F10803CDE902017A691048AA
:101DE00000920ECB03F003FB69E76FF0030418EEDB
:101DF000103A9D4663E700BFEC080024B0080024B9
:101E0000F8080024B4080024C5D001085CC3010808
:101E10005FC30108E51A0008400D0300C11A00085D
:101E20007008002410B5054C204603F02BFB20461B
:101E3000034A0449BDE8104005F01AB970080024AF
:101E400000000024D50B00080368774A93422DE96F
:101E5000F043BFB04AD1754C4FF4C05201217448D1
:101E6000D4F8E03043F00103C4F8E030D4F8E030B7
:101E700003F001030193019B0223CDE9092303230E
:101E8000CDE90B130A2309A90D930EF09DFBBC228B
:101E900000210FA818F068FC4FF480230EA80E93C1
:101EA0004FF44013309311F075FA0546D8B910F08D
:101EB000EFF9D4F8D83065202A4643F000630521B5
:101EC000C4F8D830D4F8D83003F000630293029BF2
:101ED000D4F8003123F00063C4F800310EF066F846
:101EE00065200EF095F83FB0BDE8F083514A93426B
:101EF000F9D14E4C002502270A26D4F8E0304FF0E5
:101F0000030809A94A4843F001034FF00809C4F83F
:101F1000E030D4F8E03003F001030393039BD4F8DE
:101F2000E03043F00203C4F8E030D4F8E03003F0CE
:101F300002030493049BD4F8E03043F00403C4F894
:101F4000E030D4F8E03003F004030593059BD4F8A7
:101F5000E03043F08003C4F8E030D4F8E03003F020
:101F600080030693069BD4F8E03043F48073C4F8F2
:101F7000E030D4F8E0300D9603F480730793079BAC
:101F80002023CDE90B58CDE909370EF01DFB09A937
:101F900027480D96CDE90B58CDE909970EF014FBB3
:101FA00043F6234309A924484FF001080B950D96E9
:101FB000CDE909370EF008FB09A920480B950D96CD
:101FC000CDE909870EF000FB09A91C480B950D9679
:101FD000CDE909970EF0F8FA042309A917480B95E3
:101FE0000D96CDE909370EF0EFFAD4F8D8304D2030
:101FF0002A4643F080634146C4F8D830D4F8D8303C
:1020000003F080630893089BD4F8D83043F0007342
:10201000C4F8D830D4F8D83003F000730E930E9B78
:102020000DF0C4FF4D205CE700000840004402585A
:102030000000025800000440000402580008025842
:1020400000F57171D0F80404FFF709B81C2303FBF5
:102050000103D0F80404D3F80822FFF72DB81C239D
:1020600003FB0103D0F804049A6CFFF760B8D0F8C2
:102070000404FFF7EAB813B5C1680446D0F80404B5
:10208000003918BF01210191FFF7ACF80199D4F88C
:10209000040402B0BDE81040FFF7CBB8D0F8040448
:1020A000FFF7CAB8D0F80404FFF7DDB8D0F804048D
:1020B000FFF7D7B8D0F80404FFF7D7B8D0F8040476
:1020C000FFF7D5B838B5114A0623114C0025C4E9ED
:1020D00000230123C4F80404C0F8C042204625634D
:1020E0002561E560E562C4E90635C4E908550FF0ED
:1020F00067FB4FF40071204610F01EF84FF4007299
:10210000294620460FF0F8FF284638BD000004405D
:102110009022002408B5D0F8C0020FF0DAFB0020AE
:1021200008BD08B5D0F8C0020FF0F2FB002008BDD2
:1021300010B51446D0F8C0021A4623460FF0F2FE3E
:10214000002010BD08B5D0F8C0020FF067FF0020D6
:1021500008BD08B5D0F8C0020FF098FF002008BDF8
:1021600011F0800FD0F8C0324FF01C0217BF01F001
:102170007F0102FB013102FB013191F83E0008BFF3
:1021800091F8FE01704708B5D0F8C0020FF0B6FE16
:10219000002008BD08B5D0F8C0020FF01FFF0020D6
:1021A00008BD08B5D0F8C0020FF0F4FE002008BD4D
:1021B000122301480B807047DC00002404230148EF
:1021C0000B807047F000002430B5A1F11004002509
:1021D00000F00F02CD7302390009D3B2092ACCBF37
:1021E000373330330B748C42F2D130BD10B5044C10
:1021F0000A4604482146FFF750FA204610BD00BFAA
:10220000982600246EC3010810B5044C0A46044801
:102210002146FFF742FA204610BD00BF9826002451
:1022200079C3010810B5044C0A4604482146FFF75B
:1022300034FA204610BD00BF9826002491C301083F
:1022400010B5044C0A4604482146FFF726FA2046FA
:1022500010BD00BF982600249CC3010810B5044699
:102260000DF026FE2146FFF7AFFF0DF027FE04F12B
:102270001001FFF7A9FF0DF027FE04F12001FFF781
:10228000A3FF302010BD0000322310B5034C0B809B
:10229000A01CFFF7E3FF204610BD00BFF4000024A0
:1022A000002050709070D07070477047C368184716
:1022B0000A4B01220A4810B51A7086B0094B002457
:1022C0000293094B04940393084B009302AB0ECB8B
:1022D00005F076FD204606B010BD00BFE8080024DA
:1022E0005C0B0024000B00246755000871240008D3
:1022F00008B5044802F09EFB034807F0EFF8002001
:1023000008BD00BFEC080024F808002410B50446FE
:102310000168D0E90123054802F0D4FB206818F0D9
:10232000ABF92046BDE8104018F0A6B9EC0800242F
:10233000B0F1104F1FB5044610D300F1E042002366
:102340000B48039206F006F8039A0023CDE900013A
:10235000074806F07BFA80B204B010BD014605487C
:1023600002F037FB21460246024802F041FCF2E748
:10237000F8080024EC080024B0F1104F13B50C4607
:1023800008D24B1E024490420CD010F8011B03F8F7
:10239000011FF8E70023CDE9002300F1E0420348E4
:1023A00006F09DF9204602B010BD00BFF8080024D9
:1023B000B1F1104FF0B506468BB00D4614461CD354
:1023C00000230022244801F1E04505F0C3FF00236B
:1023D0008B4208BF844205D2002200231E4805F02C
:1023E000B9FF044600232A4631461B48CDE9004385
:1023F00006F0C4F980B20BB0F0BD104618F034F905
:1024000022463146074618F0A1F90C2018F02CF9A5
:10241000124B002284600593114B0492CDE90230E7
:1024200002ABC0E900750FCB06AD85E80F001021A7
:102430000C4803F013F9044660B195E80F0084E8F6
:102440000F000949204603F0ACFA22460749054827
:1024500003F0C4F90020CEE7F80800248F24000818
:102460000D230008000B0024AB220008AD22000859
:1024700010B40168D0E90132541001EB6200D207B8
:1024800048BF0A595DF8044B48BFD3581847D0E9F4
:102490000030184710B5074802F0A4FA064806F0C5
:1024A000BDFE1823054A30210548BDE8104005F05F
:1024B00046BB00BFEC080024F8080024AAC30108AA
:1024C000B808002470B5012386B0204A6621204C4C
:1024D0000025204E2046CDE903325A235922CDE96A
:1024E00001313D233B210093422306F073FF324626
:1024F0001949204604F0BCFD184C194B29462561AA
:1025000004F14000236005F0ECFB04F1540005F0F9
:1025100095FB2B4620464FF480522821009505F06C
:1025200043FC20460F4C32460F4904F0A1FD2A46D9
:102530004FF4D061204603F001F832460B492046A3
:1025400006B0BDE8704004F093BD00BF005A6202BF
:10255000F808002400000024712500085C0B00240A
:10256000ECC90108000B0024DD7E00085B55000863
:1025700038B5074B0546044645F8BC3B06F0AEFFB0
:10258000284605F097FB201D02F034FD204638BD9B
:1025900068CA010810B50446FFF7EAFF4FF402715C
:1025A000204604F05DFF204610BD00001EF0040F21
:1025B0000CBFEFF30880EFF30980816911F8021C6A
:1025C000002932D101B590E80F10E047BDE8005076
:1025D0008CE80300244B93E80600914208BF704743
:1025E0001A6041B91EF0100F10D1204B186820F06E
:1025F000010018600AE02CE9F00F1EF0100F08BF70
:102600002CED108A81F822E0C1F838C0906B92F866
:10261000221061F0FF0E1EF0100F08BFB0EC108A00
:10262000B0E8F00F80F309887047114A13689942A7
:10263000FAD801B552F821C00FC8E047BDE80050F4
:10264000CCF80000704701B501F000FBBDE8014087
:10265000EFF3098CBEE701B501F0BCFABDE801401B
:10266000EFF3098CB6E700006001002434EF00E0CE
:10267000F0C40108014608B530B96FF0030000F05E
:10268000F0F96FF0030008BD132001F07FFE30B9B0
:102690004FF0FF3000F0E5F94FF0FF30F3E7002096
:1026A000F1E7000008B5EFF305832BB9EFF31083D2
:1026B00013B9EFF3118333B16FF0050000F0D1F9D6
:1026C0006FF0050008BDDFF808C000DFFAE700BFC3
:1026D00075260008EFF310832BB9EFF31180003853
:1026E00018BF0120704701207047000038B505462B
:1026F000A0B1846802686CB114F0030302D1C16810
:102700000F2926D800246FF00801002000F0AAF954
:10271000204638BDC368002BF4D11546104BD3F8C2
:10272000900078B100F01BFC0446A0B10123F32215
:10273000A3700023656022700A4AC4E90233084B83
:102740005A66E5E701221021D3F8800000F08EFBE5
:10275000EAE71546EBE76FF0040100F083F9D7E7ED
:102760004C010024D1270008930710B502F00104A2
:1027700022D400F10C0384B153E8000F00EA0102F7
:102780008A4203D0BFF32F8F002005E020EA010228
:1027900043E8002404B1EFE710BD53E8000F0842FE
:1027A00003D1BFF32F8F002005E020EA010243E8A8
:1027B000002404B1F1E7EFE7C06801EA00031CB1AF
:1027C000994218BF0020E7E7002B08BF0020E3E78D
:1027D000F8B50546846804B9F8BD94F82320284666
:1027E000616AA768FFF7C0FF064638B1204601F0CE
:1027F000A6FB00223146204601F020FD3C46EAE7D8
:10280000F8B50D4617461E46044620B10378F32B53
:1028100001D1002907DA20466FF0030100F022F908
:102820006FF00300F8BDFFF79FFF0028FAD186B1D3
:102830003146432001F0AAFD40B1074B20465E69B6
:10284000314601F061FB756286F823706FF001007C
:10285000E8E76FF00200E5E74C01002470B505469B
:1028600010B10378F32B07D028466FF0030100F076
:10287000F9F86FF0030070BD836863B1284601F07A
:1028800055FB00226FF0020101F0D8FCA868002877
:10289000F4D101F0B9FBAB78002613F001032E70E0
:1028A0000FD0094B2946D3F8904024B1204600F0C0
:1028B00070FB3046DFE7D3F8800000F00CFB2046C9
:1028C000D9E71846D7E700BF4C0100242DE9F041B5
:1028D000064620B10378F32B01D1002909DA6FF005
:1028E00003056FF00301304600F0BCF82846BDE850
:1028F000F08100F10C0353E8002F42EA010543E8A0
:10290000005000B1F7E7B4681CB9204601F07CFB29
:10291000ECE794F823203046616AD4F80880FFF78A
:1029200023FF074678B194F823309B0756BF656AAA
:10293000054620EA0505204601F001FB0022394644
:10294000204601F07BFC4446DEE70000024608B565
:10295000EFF3058333B100206FF0050100F082F83A
:10296000002008BDFFF7B6FE0028F4D11046DFF8BE
:1029700008C000DFF5E700BFED260008024638B5C5
:10298000EFF305834BB192B96FF003046FF00301CD
:10299000104600F067F8204638BDFFF79BFE002880
:1029A000F1D11046DFF82CC000DF0446F3E71378BE
:1029B000F32BE9D10029E7DB02F10C0353E8000F08
:1029C00040EA010443E8004505B1F7E7104601F08D
:1029D00085F9E0E7CD28000838B504461D46EFF339
:1029E000058343B18CB920466FF0030100F03AF83B
:1029F0006FF0030038BDFFF76DFE0028F2D12046CE
:102A00002B46DFF824C000DFF4E72378F32BEAD16C
:102A1000002DE8D10029E6DB2046FFF7A5FE0028BF
:102A200008BF6FF00200E5E701280008024608B57C
:102A3000EFF305833BB110466FF0050100F012F88B
:102A40006FF0050008BDFFF745FE0028F3D11046E2
:102A5000DFF804C000DFF5E75D2800087047704725
:102A6000704770477047704770477047EFF31083A7
:102A70002BB9EFF31180003818BF012070470120F7
:102A800070470000064BDA6A3AB1D0695B6C1BB143
:102A90001B69984228BF184670474FF0FF30F5E792
:102AA0004C010024014BD868704700BF4C01002442
:102AB00070B5464C237A012B00F0858033B14FF07E
:102AC000FF30FFF7CBFF4FF0FF3070BD404DEB689C
:102AD000E3652B8AD5E90B61A4F85430AB68304626
:102AE000236400F0ABF908B1C4F88060D5E9056152
:102AF000304600F0A3F908B9D4F880606667D5E9DC
:102B00000761304600F09AF908B9D4F88060A667EA
:102B1000D5E90961304600F091F908B9D4F8806030
:102B2000E6676E6B3EB131683046D6E9022300F0AD
:102B3000F5F9C4F88460AE6B3EB131683046D6E931
:102B4000022300F0EBF9C4F88860EE6B3EB1316807
:102B50003046D6E9022300F0E1F9C4F88C602E6C0F
:102B60003EB131683046D6E9022300F0D7F9C4F807
:102B700090606E6C3EB131683046D6E9022300F0B9
:102B8000CDF9C4F89460AE6C3EB131683046D6E9F8
:102B9000022300F0C3F9C4F89860EE6C3EB13168CE
:102BA0003046D6E9022300F0B9F9C4F89C602D6DD7
:102BB0003DB129682846D5E9022300F0AFF9C4F8F1
:102BC000A0500123237200207FE700BF4C010024A6
:102BD00080C4010870B5254D2B7A012B07D06FF00A
:102BE00006004FF0FF34FFF739FF204670BD01F0BB
:102BF00001FC10B94FF0FF30F3E71D4AFF231D4ED3
:102C000082F8223092F82230D26863F0FF031A492A
:102C1000C2F302227068DB4314BFB3FA83F32023AC
:102C2000C3F12003934298BF531CFE2202FA03F320
:102C30000F4ADBB2D37701F0FBFD04460028D9D15F
:102C400001F038FE286101F021FE0C4801F06EF918
:102C500001F0D2F93368DB074CBF0223032383F36F
:102C60001488BFF36F8F02232B72BEE74C01002440
:102C700000ED00E080C40108572600086801002428
:102C800010B50F4C237A022B13D101F007FE01235C
:102C90006372BFF34F8F0B4A5168C90003D54FF0E1
:102CA00000615160A37204232372BDE81040FFF756
:102CB000E9BE6FF00700FFF7D1FE002010BD00BF96
:102CC0004C01002400ED00E038B51E4C0546237A87
:102CD000042B35D1FFF7D6FEE26AA842034694BF23
:102CE00000F1FF332B4612B1D069C01AD061626C7B
:102CF00012B11069C01A1061E06803440544E36032
:102D0000E368AB4213D102230020237201F07CF967
:102D100000236372BFF34F8FA27A22B1A3724FF0E8
:102D20008052094B5A60BDE8384001F0AFBD013315
:102D3000E36001F027F9236D002BE1D09847DFE72E
:102D400038BD00BF4C01002400ED00E0704738B5ED
:102D500004460D46FFF783FE29462046BDE838406D
:102D600001F00ABD08B5FFF7F1FFEFF3058333B1BA
:102D70006FF00500FFF772FE6FF0050008BDFFF76A
:102D800075FE0028F4D1DFF808C000DFF6E700BFC9
:102D9000B12A000808B5EFF3058333B16FF00500E1
:102DA000FFF75CFE6FF0050008BDFFF75FFE00282F
:102DB000F4D1DFF808C000DFF6E700BFD52B00082C
:102DC00008B5EFF305832BB16FF00500FFF746FE62
:102DD000002008BDFFF74AFE0028F5D1DFF804C047
:102DE00000DFF6E7812C0008024608B5EFF3058303
:102DF0002BB16FF00500BDE80840FFF72FBEFFF7CD
:102E000035FE0028F5D11046DFF804C000DF08BD0C
:102E1000C92C000808B5EFF3058313B1054BD8683A
:102E200008BDFFF723FE0028F8D1DFF80CC000DF53
:102E3000F6E700BF4C010024A52A000810B598B1A0
:102E400040EA010313F007030ED117290AD90160E4
:102E5000083910220C18426084600B5081684A6067
:102E6000C3600123184610BD0023FBE7F0B580B313
:102E700099B132F003032CD10F3100F1080521F094
:102E800007072B462D685C68E91A24F00304091B28
:102E90008F4204D929680029F3D10846F0BD46685D
:102EA0003A4304683E444660204450F8041C083805
:102EB0008E4288BF4660586818B903F108015A600D
:102EC000EBE720F0030019181D504A601960083123
:102ED000E3E70021E1E730B590B1D9B1A1F10805F0
:102EE00000F108040022AC420BD151F8043C23F05D
:102EF000030443681B1B436042B941F8042C0120C2
:102F000030BD236822463BB11C46ECE751F8083C33
:102F10001360F4E70846F3E71846F1E730B5C0B1AF
:102F200089B1C2B1CBB100240160C3604361C0E983
:102F3000014202FB01F41D1905611846013904D153
:102F4000A21A99500121084630BD8518056028460F
:102F5000F4E70146F7E71146F5E71946F3E70346BC
:102F600010B5A8B100F1140252E8000F10B9BFF378
:102F70002F8F04E0016842E8001404B1F4E738B18F
:102F8000043353E8002F511C43E8001404B1F8E760
:102F900010BD30B5F0B1C3688B421BD803698B42BA
:102FA00018D900F114031A680A60BFF35F8F53E861
:102FB000002F0C689442F6D143E8001505B1F2E702
:102FC000043050E8003F5A1E40E8002101B1F8E704
:102FD000002030BD6FF00300FBE7EFF310832BB947
:102FE000EFF31180003818BF0120704701207047AF
:102FF000036B30B5E3B1CD780024DA78AA420FD361
:103000001A46C1E901248AB19160A4B161602830F7
:1030100050E8003F5A1C40E8002101B1F8E730BDFC
:103020005A681C46002AECD01346E6E7C162ECE77A
:10303000C1E90133C1620163E9E7D1E9013223B19A
:103040009A608A681AB153607047C262F9E70363F5
:103050007047F8B5877804468FB3C56800270146E6
:1030600005F10C062846FFF7E8FF27703046FFF70A
:1030700090FFAB68002B48D03046FFF770FF044646
:10308000002842D0284600F051FF06463A4639460D
:1030900001F0D4F8304600F0A5FF6A6A0646816860
:1030A00004F10C0017F052FBF923A7702370F368AA
:1030B000E37021462846BDE8F840FFF799BF8568D0
:1030C000AB68002BF5D05B78832BF2D1284600F05B
:1030D0002DFF06463A46394601F0B0F8304600F07A
:1030E00081FF06466A6A04F10C01806817F02EFB26
:1030F000F3680BB1E2781A700023214605F10C0049
:103100002370BDE8F840FFF744BFF8BD2DE9F0415A
:103110000C4617469846054618B10378FA2B00D19D
:1031200041B928466FF00301FFF79FFC6FF00300E1
:10313000BDE8F0818368C3B15B78832B15D100F0C3
:10314000F5FE06460122002101F078F8304600F035
:1031500049FF06466A6A2146806817F0F7FAF06868
:103160000028E5D007700020E2E705F10C00FFF72A
:10317000F6FE064670B121466A6A0C30002417F04C
:10318000E5FAF923314628463370B470F770FFF73B
:103190002FFFE8E7B8F1000F10D04146932001F06F
:1031A000F5F840B1074B2846596900F0ADFEEFF342
:1031B0000983C3E902476FF00100B9E76FF002002D
:1031C000B6E700BF4C0100242DE9F84F88460746BA
:1031D00038B131B1B0FA80F3B1FA81F10B441F2B51
:1031E00006DC6FF0030100200024FFF73EFC70E0D6
:1031F00008F1030626F003060C3606FB00F9F2B1CF
:1032000094683CB1A30702D1D368332B05D86FF083
:103210000801E8E7D368002BF9D1D2F800A0D2E981
:1032200004533DB115F0030B01D1994554D96FF00A
:103230000901D8E7002BFAD11CB19B460CE092465D
:103240001546274BD3F8A000D8B1FFF788FE0446F7
:10325000A0B14FF0010B35BB214B00224946D86F7E
:10326000FFF704FE0546C0B9BBF1000F06D01C4BAA
:103270002146D3F8A00058B1FFF78BFE6FF0040190
:10328000B1E701223421D3F88000FFF7EFFDDEE73C
:10329000D3F88000FFF71FFEF0E74BF0020B4A4621
:1032A000002117F061FAFA233246394604F10C0086
:1032B0002370002384F802B0A360C4F804A0C4E91A
:1032C0000983C4E90B332B46FFF728FE044B054A5C
:1032D0001A672046BDE8F88F002CE4D1B1E700BFA3
:1032E0004C0100245330000800F1280310B553E8C6
:1032F000002F12B9BFF32F8F04E0511E43E80014D2
:1033000004B1F4E70AB9002010BDC06A0123002807
:10331000F9D0821CD2E84F1FC2E8443F04B1F9E75C
:1033200011F0FF0FF0D08068F1E700002DE9F041C7
:103330000F4615469846044618B10378FA2B00D17B
:1033400041B920466FF00301FFF78FFB6FF00300D8
:10335000BDE8F081FFF7C8FF064600283AD00146D5
:103360002046FFF76AFE626A06F10C01384617F044
:10337000EDF90DB1F3782B70002504F10C073146FF
:1033800038463570FFF705FEA3680BB90020DFE76C
:103390003846FFF7E4FD06460028F7D0204600F047
:1033A000C5FD07462946012200F048FF384600F0D7
:1033B00019FE626A0746816806F10C0017F0C6F92B
:1033C000F923B570314633702046FB68F370FFF780
:1033D0000FFEDBE7B8F1000F10D04146832000F06C
:1033E000D5FF40B1074B2046596900F08DFDEFF342
:1033F0000983C3E902756FF00100A9E76FF00200CD
:10340000A6E700BF4C01002408B5064B08219A6EC0
:10341000D86EFFF7D9FE044BD864B0FA80F04009AB
:10342000404208BD80C401084C0100242DE9F04150
:1034300006460F4690461C46EFF305834BB196B9FE
:1034400030466FF00301FFF710FB6FF00300BDE89B
:10345000F081FFF7C2FD0028F1D130462346DFF8A6
:1034600048C000DFF3E73378FA2BE9D1002FE7D02B
:10347000002CE5D106F10C00FFF771FD054680B187
:10348000726A39460C3017F061F9F9232846AC709E
:103490002B7085F80380C5E9017600F01FFC2046FB
:1034A000D5E76FF00200D2E70D310008F8B5044609
:1034B0000F4616461D46EFF3058343B18CB92046EF
:1034C0006FF00301FFF7D1FA6FF00300F8BDFFF7CB
:1034D00084FD0028F2D120462B46DFF844C000DFEF
:1034E000F4E72378FA2BEAD1002FE8D0002DE6D1BB
:1034F0002046FFF7F9FE054670B100F10C01626A43
:10350000384617F023F90EB1EB7833702846EC609B
:1035100000F0E4FB0020D9E76FF00200D6E700BF1F
:103520002D330008EFF310832BB9EFF3118000382F
:1035300018BF0120704701207047000070B5A8B384
:103540008468D0E900566CB114F0030302D1C2685C
:103550001B2A1AD800246FF008010020FFF783FA15
:10356000204670BDC368002BF4D1124BD3F89400F1
:1035700030B901221C21D3F88000FFF777FC01E06D
:10358000FFF7EDFC044660B10123F522A370002390
:10359000E670227065602376C4E90233C4E904331F
:1035A000DEE76FF00401FFF75EFAD9E7054606464D
:1035B000DBE700BF4C010024284B70B55D69044671
:1035C0000E4635B96FF00701FFF74DFA4FF0FF30A7
:1035D00070BD10B10378F52B07D020466FF00301C2
:1035E000FFF741FA6FF00300F2E7037E53B9C0E939
:1035F0000353EB6A436103B118610123EC620020BD
:103600002376E5E7C278D1070DD5C168A9420AD172
:10361000FF2B06D16FF00F01FFF725FA6FF00200C4
:10362000D6E70133EBE7002EF8D093070AD5E06820
:1036300095F9203090F920209A4203DA80F8203062
:1036400000F086FC3146532000F0A0FE18B1294658
:10365000204600F059FC6FF00100B9E74C0100244E
:103660002E4B5A6970B5044632B96FF00701FFF767
:10367000FAF94FF0FF3070BD10B10378F52B07D089
:1036800020466FF00301FFF7EEF96FF00300F2E759
:10369000037E33B96FF00E01FFF7E5F96FF002001A
:1036A000E9E7C168914202D06FF00D01F4E7013BF8
:1036B000DBB2037613BB43690BB101691961216960
:1036C000F1B14B6192F92130D56ADDB982F8203031
:1036D000A36883B1204600F029FC06462A46294605
:1036E00000F0ACFDF36AC4E90365636103B11C61DA
:1036F0000123F4622376002000F086FC0020BAE764
:10370000D362DFE7E978890706D5A96821B191F985
:1037100020108B42B8BF0B466D69D6E74C010024E0
:1037200070B5044610B10378F52B07D020466FF032
:103730000301FFF798F96FF0030070BD037EBBB182
:103740006369C0680BB122691A61226902B35361CF
:1037500090F92120C36AEBB990F92030934203D04D
:1037600080F8202000F0F4FBA068F8B900F04CFCD1
:10377000A078002610F001002670DED0134B214601
:10378000D3F89450DDB12846FFF703FC3046D4E768
:10379000C362DDE7D978890706D5996821B191F927
:1037A00020108A42B8BF0A465B69D4E7204600F081
:1037B000BDFB00226FF0020100F040FDD4E7D3F81A
:1037C0008000FFF788FB2846B7E700BF4C010024C4
:1037D0002DE9F0410446002601270CB9BDE8F0812F
:1037E000E378D4F814801B0712D5A36826767BB142
:1037F000204600F09BFB00220546114600F01EFD0E
:10380000EB6AC4E90356636103B11C61EC6227767D
:103810004446E2E710B4C3789B071DD5C06890F911
:103820002120C36ADC78A40709D59C688C4208BFB4
:103830008C6824B194F92040A242B8BF22465B694B
:10384000002BEFD190F92030934205D080F8202052
:103850005DF8044B00F07CBB5DF8044B7047000042
:10386000024608B5EFF3058333B100206FF0050180
:10387000FFF7F9F8002008BDFFF754FE0028F4D147
:103880001046DFF808C000DFF5E700BF3D3500084F
:10389000024608B5EFF305833BB110466FF0050112
:1038A000FFF7E1F86FF0050008BDFFF73BFE0028C9
:1038B000F3D11046DFF804C000DFF5E7B9350008A2
:1038C000024608B5EFF305833BB110466FF00501E2
:1038D000FFF7C9F86FF0050008BDFFF723FE0028C9
:1038E000F3D11046DFF804C000DFF5E761360008C9
:1038F000024608B5EFF305833BB110466FF00501B2
:10390000FFF7B1F86FF0050008BDFFF70BFE0028C8
:10391000F3D11046DFF804C000DFF5E721370008D7
:10392000EFF310832BB9EFF31180003818BF01209B
:103930007047012070470C30D0E85F3F13B9BFF3E8
:103940002F8F04E05A1EC0E8512F01B1F4E798B25E
:10395000003818BF0120704730B500F10C02C18952
:10396000D2E85F3F994202D8BFF32F8F04E05C1C7E
:10397000C2E8554F05B1F3E7C0899BB2984294BFA6
:103980000020012030BD0000F8B515464FF6FE734B
:10399000421E06460F469A4201D8884207D26FF06F
:1039A000030100240020FFF75FF82046F8BD7DB139
:1039B000AC682A6844B114F0030302D1E9680F2906
:1039C00022D86FF00801ECE7EB68002BF9D115461F
:1039D000114BD3F8980080B1FFF7C1FA0446A8B1A3
:1039E0000123F622A370002365602270A3600B4AB6
:1039F000094BA781E6819A66D7E701221021D3F807
:103A00008000FFF733FAE9E71546EAE76FF00401B3
:103A1000FFF72AF8C9E700BF4C010024213A00084B
:103A2000836810B504465BB1FFF785FF40B12046BF
:103A300000F07CFA0022BDE81040114600F0FEBB09
:103A400010BD38B5054610B10378F62B07D02846CF
:103A50006FF00301FFF708F86FF0030038BD8468CA
:103A60003CB100F063FA0122002100F0E7FB0020E6
:103A7000F4E7FFF771FF38B928466FF01001FEF741
:103A8000F3FF6FF00200E9E72046E7E770B505466F
:103A900010B10378F62B07D028466FF00301FEF72C
:103AA000E3FF6FF0030070BD836863B1284600F048
:103AB0003DFA00226FF0020100F0C0FBA868002868
:103AC000F4D100F0A1FAAB78002613F001032E70B8
:103AD0000FD0094B2946D3F8984024B12046FFF770
:103AE00058FA3046DFE7D3F88000FFF7F4F92046B4
:103AF000D9E71846D7E700BF4C01002410B50446AB
:103B0000EFF3058333B100206FF00501FEF7ACFF42
:103B1000002010BDFFF704FF0028F4D12046DFF895
:103B200008C000DFF5E700BF8939000810B504467A
:103B3000EFF3058343B184B920466FF00301FEF72C
:103B400093FF6FF0030010BDFFF7EAFE0028F2D1EB
:103B50002046DFF830C000DFF5E72378F62BEBD105
:103B60002046FFF7F9FE20B1204600F0B7F800200C
:103B7000E9E720466FF01001FEF776FF6FF00200D4
:103B8000E1E700BF433A0008024608B5EFF30583BA
:103B90003BB110466FF00501FEF766FF6FF00500C0
:103BA00008BDFFF7BDFE0028F3D11046DFF804C0C2
:103BB00000DFF5E78D3A000810B5D0E85F3F5A1CEA
:103BC000914200D80022C0E8542F04B1F5E798B222
:103BD00010BD000038B51C4C00F066FEE3680133F0
:103BE000E36000F0CFF9002000F00EFA236D03B17E
:103BF0009847226C32B3A369E16B994203D0D9692B
:103C0000E36301B9DA61DA69C2B9237A022B19D107
:103C1000656ABDB1E36B95F9202093F920309A4293
:103C200010D1284600F08BF9E06B00F0A3F928468C
:103C300000F0E2F9236CE563EB6103E0013ADA613D
:103C4000002AE2D038BD00BF4C01002470B5224CE0
:103C500004F1560504F15A06B4F85410D5E85F3F54
:103C600013B9BFF32F8F04E05A1EC5E8502F00B1DF
:103C7000F4E79BB25BB33046FFF79EFFE36D53F86A
:103C8000200020B30378F13B082BE5D801A252F8BD
:103C900023F000BFB93C0008593C0008BF3C0008B5
:103CA000593C0008593C0008C33C0008C73C0008C8
:103CB000593C0008CB3C0008236E9847CCE7636E64
:103CC000FBE7A36EF9E7E36EF7E7236FF5E7002064
:103CD000BDE8704000F098B94C01002470B5164C56
:103CE0000546B4F8541004F15602D2E85F3F9942F9
:103CF00002D8BFF32F8F04E0581CC2E8560F06B15C
:103D0000F3E79BB2994205D829460220BDE87040EE
:103D1000FFF71DB804F15800FFF74EFFE36D43F8BD
:103D20002050637A23B9054B4FF080525A6070BD22
:103D30000123A372FBE700BF4C01002400ED00E06B
:103D4000EFF310832BB9EFF31180003818BF012077
:103D50007047012070470378F12B00D07047C0688E
:103D6000F9E7000010B5C469621CD0E904310CD138
:103D700003B1596142691AB113610023436101E043
:103D8000074A13630023C36110BD1BB1DA6959618F
:103D90002244DA614269002AEED1014AD362F1E796
:103DA0004C01002401230A4A90F9201043701C3270
:103DB000936810B51BB193F920408C4205DCC0E933
:103DC0000232906003B1D86010BD1A469B68F1E7DB
:103DD0004C010024014B5869704700BF4C0100247E
:103DE00008B500F0FBFCDFF810C000DF4FF0FF313A
:103DF0000020FEF735FEFEE7A5420008930710B548
:103E000002F0010422D400F1280384B153E8000F2A
:103E100000EA01028A4203D0BFF32F8F002005E0A1
:103E200020EA010243E8002404B1EFE710BD53E8A3
:103E3000000F084203D1BFF32F8F002005E020EAD6
:103E4000010243E8002404B1F1E7EFE7806A01EAE8
:103E500000031CB1994218BF0020E7E7002B08BF00
:103E60000020E3E7084A0021136B10B53BB94FF07F
:103E7000FF34C0E90431C46121B1086110BD1946A5
:103E80001B69F3E71063F9E74C010024002310B528
:103E90000380044683789A0708D513F0100F016B4E
:103EA0000E4B0FD0D3F88400FFF773F8A378DB072D
:103EB00012D50A4B2146D3F8880038B1BDE810402E
:103EC000FFF767B8586FFFF706F8EFE7D3F8800001
:103ED000BDE81040FEF7FFBF10BD00BF4C0100243D
:103EE000C2780346D20701D4FFF7D0BF0422427044
:103EF0000022C260034A516B816001B1C860536304
:103F0000704700BF4C01002491F92020836810B550
:103F10001BB193F92040944205DAC1E90230816077
:103F200003B1D96010BD18469B68F1E783689A68B1
:103F3000826002B1D06000221846DA607047C26821
:103F40002AB18368936003B1DA600023C3607047CD
:103F500010B50146044664B12378F12B07D008461A
:103F6000FFF7EDFF2046BDE81040FFF7CDBFE46846
:103F7000F1E710BD0123014643700148FFF7C4BFBC
:103F80006801002438B5164DEC6A44B3E369013B7F
:103F9000E36123BB6378732B06D009D8532B0BD076
:103FA00003F0DF03432B0DD12046FFF7D4FE09E0D9
:103FB00003F0EF03832BF6E72046FFF7CCFE214604
:103FC000FFF728FC2046FFF7BAFFFFF7D3FF24696D
:103FD00024B1E369002BDDD000236361EC6238BDBE
:103FE0004C01002490F82230826B13F0100F0CBFAC
:103FF000602020201044704702234370014B9861D9
:10400000704700BF4C01002470B5124D04462E7A53
:10401000696990B9022E0FD16C6A6CB194F92020B5
:1040200091F920309A4207DD2046FFF788FF0846C5
:10403000FFF7B8FE6670AC6170BD022E05D190F935
:10404000202091F920309A42F1DC2046BDE87040F2
:10405000FFF790BF4C0100242DE9F04F85B0814659
:10406000029128B96FF003010024FEF7F9FCBCE0CF
:10407000002A45D0966846B1B40702D1D368432BD5
:1040800006D86FF008010020EEE7D368002BF8D1C6
:104090009769D2E904453CB1600702D1002D40F098
:1040A000B2806FF00A01EEE72FB17B1E372B03D9E8
:1040B0006FF00B01E7E71827002D40F0A880D2E948
:1040C00000A301934EBB574BD3F88800F0B1FEF725
:1040D00046FF064600283AD04FF00108002C44D194
:1040E000DFF840B1E5B9504ADBF88400556DB8B14E
:1040F000FEF735FF0246E0B148F01008344623E0F1
:1041000092461446182715460192DCE70122442105
:10411000D3F88000FEF7AAFEDBE74FF00008DDE7EA
:1041200022462946DBF87400FEF7A0FE024600286E
:10413000E4D1B8F1000F16D0DBF8882052B1104658
:104140003146FEF726FF002248F002087CB96FF0E6
:10415000040198E73146DBF880000392FEF7BBFECE
:10416000039A1446F0E74246EEE72246344640F210
:10417000F1137FB2FD2184F802802380019BC4F8F3
:1041800004A0E370002384F8207084F82170618417
:104190006563C4E90233C4E90433C4E90633C4E9FE
:1041A0000933C4E90B32A5F140031344C4E90E39C5
:1041B0001E4B13601C4B1B685B071AD4A36B0020BB
:1041C0001A4603F1340143F8040B9942FBD1184B12
:1041D0002046C2E90D394FF08073D363029B13620E
:1041E000104B144A1A66FFF70FFF204605B0BDE8D2
:1041F000F08FAD084FF0CC33113D002DDED0013DE6
:1042000042F8043FF9E7002F7FF44FAF1827690702
:104210007FF447AFA5F14801074B99427FF64FAFB6
:104220003FE700BF4C01002480C40108A52E5AE2DC
:10423000E13D000861420008B7FFFF7F38B5044642
:104240001546FFF7CFFE01602046FFF78BFD1DB13D
:10425000BDE83840FFF7D8BEBDE83840FFF78ABE5A
:1042600010B543780446332B0CD1416A90F82320D3
:10427000FFF7C4FD014628B120460022BDE81040EA
:10428000FFF7DCBF10BD10B50446806918B10022ED
:104290001146FFF7D3FF6378232B02BFA3680022E8
:1042A0009A6110BD70B50F4C267A022E18D1636A40
:1042B000B3B16569E86AFFF78BFA2846FFF7E3FFB9
:1042C00004F11C00FFF732FE4670A061EFF3098392
:1042D000AB63002328466361BDE87040FFF700BE72
:1042E00070BD00BF4C01002410B5044610B1037826
:1042F000F12B07D020466FF00301FEF7B1FB6FF002
:10430000030010BD437803F00F03022B1ED0032BD4
:104310002BD0012B2ED1FFF712FEE06AFFF758FADF
:104320002046FFF7B0FF6178022926D11548FFF734
:10433000FDFD154B41709861EFF30982A2630022E5
:104340005A612046FFF7CCFD0020DAE70E4B1A7ABF
:10435000022A02D15B6A002BDFD16FF002012046F6
:10436000FEF77EFB6FF00200CBE7FFF7E8FDFFF7FB
:10437000F9FCD2E76FF00201F2E70020FFF744FEFC
:10438000DFE700BF680100244C01002438B5174C5A
:104390000246237A022B27D1606A60B160694B1C08
:1043A000427009D1FFF75EFD1148FFF7BFFD022300
:1043B0004370A061012038BDE36A002213B1DD69BA
:1043C000A9420BD2C161C0E904325AB11061002B7D
:1043D000EAD0DA695861511AD961E5E71A46491BF2
:1043E0001B69EBE7E062F2E70020E4E74C01002400
:1043F0006801002438B50D4C00210D48A26DFFF76F
:104400002BFE0C4D636EA8625BB1984758B9E26D04
:10441000E96C206EFFF720FEA864003818BF012069
:1044200038BD0120FCE70020FAE700BF80C4010886
:10443000714700084C01002410B50446EFF30583D2
:1044400033B100206FF00501FEF70AFB002010BD1C
:10445000FFF776FC0028F4D12046DFF808C000DF23
:10446000F5E700BF5940000808B5EFF3058313B125
:10447000054B586908BDFFF763FC0028F8D1DFF849
:104480000CC000DFF6E700BF4C010024D53D00085A
:1044900010B5044600F0AEF9EFF305833BB12046BA
:1044A0006FF00501FEF7DCFA6FF0050010BDFFF7B5
:1044B00047FC0028F3D12046DFF804C000DFF5E711
:1044C000E94200080C4A30B5536C002413B11D6951
:1044D0008D420AD90161C0E902431BB11D69986090
:1044E000691A19612CB1E06030BD1C46491BDB68BC
:1044F000ECE75064F8E700BF4C0100242DE9F041DF
:10450000184D6C6C54B3236901276E69013B23611C
:10451000236913BBE3680BB1A2689A606B64002344
:1045200004F11801E86C1A46FEF780FF58B12146E5
:104530000320D5E905836B61FEF709FC6B6913B9AC
:10454000B04508BF0026E378012B09D161692046F8
:10455000FFF7B8FF6C6C002CDAD16E61BDE8F0811A
:104560006770F7E74C01002408B5FEF74DFF18B956
:10457000034B044A1A6508BD4FF0FF30FBE700BF4C
:104580004C010024FD440008044607B54FF0FF33FA
:10459000002269462046FEF789FF0028F6D1DDE9B2
:1045A00000309847F2E7000008B5094A094B1A6045
:1045B000094B9B1A094A1360094A0A4B1A600A4BB5
:1045C0009B1A0A4A136000F05FF800F091F800BFF0
:1045D00000FC0724CC13002400000824C813002486
:1045E000483F0024CC16002400FC0724C8160024F1
:1045F00038B50E480B250E4B1C24456003600D4B4F
:10460000C4608360FFF72CF90B4B18600B480C4B10
:10461000C460C0E900350B4B8360FFF721F90A4BFA
:104620001860BDE8384015F089BE00BF981300241B
:1046300054C50108AC130024A813002468130024F7
:1046400061C501087C13002478130024FDF7A4B889
:10465000024B4FF0FF311868FFF71AB9A813002476
:10466000014B1868FFF72CB9A8130024024B4FF038
:10467000FF311868FFF70CB978130024014B186854
:10468000FFF71EB97813002408B501F0D3FC0C4BDA
:104690000C4998684FF00053C21802F1604212684A
:1046A00043F8042B8B42F7D1054B4FF000529A6030
:1046B00014F0B6F815F006FABDE8084000F015B899
:1046C00000ED00E0980200207047704708B500F048
:1046D0003DF8FFF7F9FFFFF78BFFFFF7F6FF02F05A
:1046E00011FABDE80840FFF7B1BFFEF73BBB000081
:1046F000104C114B23614FF4805363614423E360FA
:104700000E4BA3601823A3610D4B07B52246002171
:104710000C482360FFF790FE034628B9224600901C
:104720001946094802F0F6F9FEF734FB00231A4651
:104730000093F5E7A0370024A0270024D01300241D
:104740007BC50108CD4600081D0101801FB5064B41
:104750006C460FCB84E80F002046FFF781F8034B2F
:10476000186004B010BD00BF80C501089827002460
:1047700008B500F0A3F80000002307B5421E00931F
:104780000023042A19D8DFE802F003080C101400F3
:10479000012219460B4802F0BDF9022219460A48C7
:1047A000F9E7032219460948F5E7042219460848A3
:1047B000F1E7052219460748EDE702461946064883
:1047C000E9E700BF2501028026010280270102805F
:1047D000280102802A0102800001028010B5FFF743
:1047E00043FE034B1B6813B1BDE81040184710BDD2
:1047F00014140024024B1B6803B11847704700BF14
:1048000014140024024B987A003818BF0120704716
:104810004C01002408B5FEF7D3FA0022034902F048
:1048200009FBBDE80840FEF7DFBA00BF05480008F5
:1048300010B50C4601F08CFD0028124A1ADB00F17D
:104840006043F02103F5614383F80013936800F19E
:10485000100243F82240BFF34F8F002808DB0123EA
:10486000420900F01F0003FA00F0074B43F8220052
:10487000002010BD00F00F03F021043B1344197613
:10488000E4E700BF00ED00E000E100E008B502F061
:1048900059FABDE8084001F05EBE0000014B1868FF
:1048A00001F08EBE10160024014B186801F04ABEBC
:1048B0001016002408B501F04BFD08BD024C08B5E8
:1048C00023689847FCE700BFF001002403680BB1A0
:1048D0000846184770470000044B0022C3E9012234
:1048E0001A611A60024ADA60704700BF1814002487
:1048F000CD48000810B50022034600F1110403F86A
:10490000012B03F8012B9C42FBD1418210BD00001A
:1049100042F60211024808B5FFF7ECFF08BD00BFE0
:104920002C140024034B186818B14FF0FF31FEF728
:10493000AFBF70479827002438B5054604686CB9A6
:10494000FFF7F0FF2C6824B92C1D204603F076F900
:104950002C60034B186808B1FEF7B2FF204638BD43
:10496000982700240368012200211B691847036867
:1049700000221B69114618476FF01500704707B5F4
:10498000019002F015F80121019812F0D9FF03B04F
:104990005DF804EB02F016B807B5019002F008F8D4
:1049A0000021019812F0CCFF03B05DF804EB02F097
:1049B00009B807B5CDE9001001F0FAFFDDE90010F4
:1049C00012F0BAFF03B05DF804EB01F0FBBF12F088
:1049D00009BE12F0E7BD12F007BE12F009BE12F0D8
:1049E00019BE000070B504461148FFF7A5FF03F09B
:1049F0002DF902F05FF902F081F9204612F0B2FCC5
:104A0000061E054618BF0126764202F089F902F01B
:104A100063F92DB9204612F0E5FD02F01DFD60603E
:104A20000348FFF789FF03F02DF9304670BD00BF42
:104A30004014002438B505460F48FFF77DFF03F00A
:104A400005F902F037F902F059F9284612F0A0FCF6
:104A5000041E18BF012402F063F902F03DF96868F2
:104A6000644208B102F0FEFC0348FFF765FF03F063
:104A700009F9204638BD00BF4014002473B5104E1C
:104A80000D4604463046CDE90032FFF755FF03F0EE
:104A9000DDF802F00FF902F031F9009B2A46019986
:104AA000204600F0D9FF044602F03AF902F014F96A
:104AB0003046FFF741FF03F0E5F8204602B070BD35
:104AC000401400242DE9F04F0746154699468846C4
:104AD0002DED028B83B012F085FD0646384612F0AC
:104AE00087FD8246384612F07FFD8346384612F035
:104AF00091FD08EE100AB5FBF6F306FB1354002CEB
:104B000071D1B8F1000F6ED009EB05030AEB0B0071
:104B1000834268D83548FFF70FFF03F097F8234624
:104B2000B9F1000F52D0002B4ED12946384612F071
:104B300039FDB5FBF0F400FB1454041B4C4528BFB1
:104B40004C4618F0030F01D1A6422BD9B44241467E
:104B5000786828BF3446224615F0F8FDA64206D9EB
:104B60007868321B18EE101A204415F0FDFDD7F8B6
:104B700004B0B2461023019302F09CF802F0BEF894
:104B800053465A462946384612F096FC88B102F040
:104B9000C7F802F0A1F8019B013B0193ECD14FF063
:104BA000FF330CE0B4FBF6F406FB04FAC3465446AC
:104BB000E0E7019002F0B4F802F08EF8019BA9EB57
:104BC00004092544A044ABE74FF0FF3307480193A5
:104BD000FFF7B2FE03F056F8019B184603B0BDEC98
:104BE000028BBDE8F08F4FF0FF33F6E7401400244E
:104BF0002DE9F04107460D46164612F0F9FC044631
:104C0000384612F0F1FC2044AC19A04204D24FF017
:104C1000FF342046BDE8F0811DD81E480024FFF770
:104C20008BFE03F013F876B35CBB4FF0100802F074
:104C300041F802F063F82946384612F0ABFB04460F
:104C4000A0B102F06DF802F047F8B8F10108EED11A
:104C50004FF0FF340EE02146384612F0A3FCB4FBBF
:104C6000F0F101FB10400028D1D1D6E702F058F84E
:104C700002F032F82946384612F094FC361A054400
:104C8000D1E74FF0FF340348FFF756FE02F0FAFF7A
:104C9000BFE700BF40140024094B30B51A46094C49
:104CA000D3F89450A542FBD1036829B181680B6009
:104CB0004FF44073536130BDC1681B04F7E700BF78
:104CC00000640258000300804168034630B471B1AB
:104CD000D0E9032000F0010402B944B1451001EB12
:104CE00060000CB149598A58996830BC104730BCF3
:104CF00070470000044B10B504460360806A08B199
:104D000001F004FA204610BD98C5010810B504460C
:104D1000FFF7F0FF4FF48271204602F0A1FB20461E
:104D200010BD000070B50A4E0546306818B14FF04E
:104D3000FF31FEF7ADFD2C6824B92C1D204602F092
:104D40007DFF2C60306808B1FEF7BAFD204670BDCB
:104D50009827002408B50346D0F8D80018B903F105
:104D6000D800FFF7DFFFBDE8084002F08BBF08B5B1
:104D70000346D0F8D80018B903F1D800FFF7D2FFE6
:104D8000BDE8084002F062BF7FB506461D460446F6
:104D900056F8303BCDE902211B6898479DF820303A
:104DA000304683F00103DDE9022100932B4613F026
:104DB0009FFA2368064620465B689847A81B18BFE1
:104DC000012004B070BD70B590B00D4614460021AE
:104DD0001C2202A815F0C8FC01260023294602A8BF
:104DE00000961A4600F084FE1C22002109A815F046
:104DF000BBFC0023214609A81A46009600F078FE65
:104E00000A9B1A68099B1A4203D16FF0010010B087
:104E100070BD039B1968029B194046D109A80A245A
:104E2000FFF7C7FD09A8FFF7AAFD002109A8FFF7B2
:104E3000C0FD002109A8FFF72FFF052002F04AFC62
:104E4000012109A8FFF7B5FD012109A8FFF724FFFB
:104E5000052002F03FFC013CE7D102A8FFF78FFDDF
:104E6000214602A8FFF718FF052002F033FC0121BC
:104E700009A8FFF711FF052002F02CFC012102A870
:104E8000FFF70AFF052002F025FC02A8FFF784FDCA
:104E900009A8FFF781FD0A9B1A68099B1A42B4D042
:104EA000039B1A68029B1A42AFD00020AFE7002292
:104EB000034600F1280143F8042B03F8012B994223
:104EC000FBD17047F8B51A4B0D4600F130070021B1
:104ED00003600446174B16460161A4228185436195
:104EE0008061C0E90711C0E90911384615F03CFCA2
:104EF000114B04F1D800C4F8D430FFF7D8FF204696
:104F0000FFF735FF324629462046A4F80051A4F8A1
:104F10000261FFF758FFB4F90221B4F900113846D5
:104F200013F0ACF92046FFF715FF2046F8BD00BF8F
:104F300098C50108C94C0008A0860100D0F890303F
:104F4000012B10B5044686B004D9002084F89400E3
:104F500006B010BDDBB204300493D0F88830039360
:104F6000B0F99C300293B0F99A300193B0F99830BF
:104F70000093B0F99630B0F99420B0F9921013F084
:104F8000DBFEB0FA80F04009E0E7000070B50A4EA1
:104F90000546306818B14FF0FF31FEF779FC2C68F8
:104FA00024B92C1D204602F049FE2C60306808B15F
:104FB000FEF786FC204670BD9827002408B5054BF7
:104FC000186810B91846FFF7E1FFBDE8084002F085
:104FD0003DBE00BF6814002408B5054B186810B921
:104FE0001846FFF7D3FFBDE8084002F04BBE00BFF4
:104FF0006814002438B5074B0546044645F8043BC1
:10500000FFF7DCFF284613F02DFE2046FFF7E4FFF4
:10501000204638BDF4C5010810B50446FFF7EAFF85
:10502000B021204602F01CFA204610BDF8B51D46FE
:105030001A4B04460F46164600215C2240F8043BFA
:1050400015F092FBBDF918304FF400322046A4F859
:105050009C302266BDF91C30099AA4F89E30C4F831
:105060009020BDF920300E4AA4F8A0300023C4F8E7
:105070008C200C4AA4F89670A4F89860A4F89A5072
:10508000C4F8A430A4F86430C4F8883084F89430AC
:10509000C4E92A23FFF752FF2046F8BDF4C50108F2
:1050A00040420F003D4F00082DE9F0479DF8207069
:1050B000044689469246022F98469DF8246024D8DB
:1050C000134BDB5D0BB3B6FBF3F503FB156515F076
:1050D000FF051AD103689B6898479DF82830204641
:1050E00084F8646084F865300B9B84F86090C4F8A1
:1050F0008830236884F861A0DB6884F8628084F8D3
:10510000637098472846BDE8F0874FF0FF30FAE714
:10511000E8C5010838B590F8943004460D4693B1BF
:1051200003689B6898472946C4F88C50201D13F0EB
:10513000E7FD0038236818BF0120DB6845422046A0
:105140009847284638BD4FF0FF35FAE7F8B50446D2
:105150000F4616460021202268301D4615F004FB3C
:1051600094F86030791C84F8683016BF002301235E
:1051700084F86970721C84F86A3094F8613018BF42
:10518000266784F86C3094F8623084F86D3014BF70
:105190000023012384F8743094F8633084F8783065
:1051A00094F8643084F879306B1C16BF0023012317
:1051B000E56784F88030D4F8883084F8843094F837
:1051C000653084F88530F8BDF7B50093054690F852
:1051D000943016460191DDE908740BB3ECB1E7B1E8
:1051E0002368EBB103689B68984733462846DDE99E
:1051F0000021FFF7ABFF23463A4605F16801281D61
:1052000013F0D4FE041E2B68284618BF0124DB6867
:1052100064429847204603B0F0BD6FF00104F9E7FF
:105220004FF0FF34F6E7F7B50093054690F8943059
:1052300016460191DDE908740BB3ECB1E7B12368C0
:10524000EBB103689B68984733462846DDE90021A7
:10525000FFF77CFF23463A4605F16801281D13F04D
:1052600083FE041E2B68284618BF0124DB686442B5
:105270009847204603B0F0BD6FF00104F9E74FF006
:10528000FF34F6E730B51D4685B090F894300446FB
:10529000CDE90221FBB103689B6898474FF0FF33CB
:1052A0002046DDE90221FFF751FF0A9B2A4604F15F
:1052B00068010193201D099B0093089B13F098FE41
:1052C0000038236818BF0120DB6845422046984714
:1052D000284605B030BD4FF0FF35F9E738B50A4C28
:1052E0000A4D2378BFF35B8F13F0010F09D12046DD
:1052F00001F0D2FE28B113F0E9FE2860204601F04B
:10530000E2FE286838BD00BF941400249C140024D9
:1053100038B50C4C0C4D2378BFF35B8F13F0010FA5
:1053200009D1204601F0B8FE28B113F09FFE287085
:10533000204601F0C8FEFFF7D1FF13F0CDFE28781C
:1053400038BD00BF9014002498140024D0E9021343
:1053500070B5D0E908250446521845EB030300F068
:10536000BBF8636B23B104F12800BDE87040184717
:1053700070BD000038B50446154600F097F8064B9E
:10538000002220462360002384F83850C4E9082313
:105390000023636338BD00BF18C6010813B5044677
:1053A00001A800F0BBFE204600F0A0F8636B23B11B
:1053B00094F838300BB101F073FD002301A863634A
:1053C00000F0B4FE02B010BD70B5044615461E468E
:1053D00000F08CF8A069C4E9085600F00AFE2A180B
:1053E000204646EB0103BDE8704000F075B884B07C
:1053F00073B5054607AC01A884E80E0000F08EFEE8
:105400006B6B23B995F838300BB101F035FD05F120
:10541000280694E80F0086E80F00DDE90C232846F3
:10542000FFF7D2FF01A800F081FE02B0BDE8704096
:1054300004B0704710B5044600F0EEFD01220146AD
:105440002046FFF797FF024B2046236010BD00BFA8
:105450000CC60108436B30B5044685B07BB100F142
:1054600028036D460FCB85E80F000023636394F893
:1054700038300BB101F014FD2846039B984705B066
:1054800030BD000010B5044600F0C6FD0122014603
:105490002046FFF76FFF024B2046236010BD00BF80
:1054A00024C6010803681B681847000010B5084BA4
:1054B00004460022084623600023A1610549C4E98F
:1054C00002230023C4E9043300F022FD204610BD6E
:1054D00030C60108A554000807B500F10801009086
:1054E000806900F053FD03B05DF804FB00F1080192
:1054F000806900F063BD0000034B10B504460360F3
:10550000FFF7F4FF204610BD30C6010800207047A9
:1055100000290CBF6FF01800002070470120704771
:1055200084B001A804B080E80E0070476FF0150049
:1055300070476FF0150070471120704738B5002391
:105540000446836519B90A4600F011F803E0002A01
:10555000FAD100F045F8204638BD10B5044600F0F9
:1055600052F8204610BD4FF0FF3100F058B9032922
:1055700038B5044607D9D31C23F003039A1A8A1AB4
:1055800022F003011A4600230D46E260C4E9043309
:105590000DBB22622560C4E9065100F005FA00F057
:1055A00005FA2581606004F13000A57284F824506A
:1055B000C4E90A5500F01AFA00280BDB04F1440094
:1055C00000F00CFA002805DB04F1480000F006FAB0
:1055D00000EAE07038BD23696D0801332361D7E725
:1055E00037B505460846019115F03EF8044638B136
:1055F000024601992846FFF7BAFF6C6103B030BD3F
:105600004FF0FF30FAE770B504460568B5B9A36AF4
:105610001BB14FF0FF31E06A984704F1480000F0F9
:10562000DFF904F1440000F0DBF904F1300000F090
:10563000E5F96069BDE8704015F01EB8EE6836B94E
:10564000EB6913B105F124009847AD68DEE7F36913
:1056500013B106F124009847F668F0E773B50646E3
:105660002731483021F00305019000F0BAF906F126
:105670001803B46901985CB9F3699D4223D8346A70
:105680005B1B6219F361012332622560A37107E09D
:105690002268954213D8E26872B11A60A3689360D9
:1056A00000F0A1F900234FF0FF32E361C4E90532B5
:1056B0002434204602B070BDA2681A60F0E704F1FD
:1056C0000803A468D7E700F08EF9F2E751F8083C28
:1056D00073B505460C460BB108469847EB6833B1E5
:1056E000A4F12406B34202D82B6AB34204D20023A9
:1056F00004F81E3C02B070BD05F14800019000F0B6
:1057000070F905F11802AB690198ABB11D6854F846
:10571000241C8D420CD30FD144F8183C13689B68AD
:1057200044F81C3C166002B0BDE8704000F05BB964
:1057300003F108029B68E8E7002344F8183C13686B
:10574000EEE7F8B54B6900F1440705460C469B1A95
:105750001646002BACBFD318131C4B610389384687
:105760008B8000F03EF9284603687BB35969626973
:10577000A1EB020CBCF1000F25DB914226D19B6806
:10578000A36013B104F108021A61036822460021E4
:1057900042F80C3F99601A61AB6A046020616BB1FA
:1057A00095F8242052B12A68A24207D1E2682AB9AA
:1057B0006169E86A891B21EAE17198473846BDE8CA
:1057C000F84000F010B903F10800CDE7A36013B171
:1057D00004F108021A610023E360DDE7F8B514461E
:1057E00005460F46A2F1240600F0E0F854F8103CFC
:1057F00002463146034444F8047C284644F8103CF1
:10580000FFF79FFF296914F81E4C05F130008C400A
:10581000E968761A00F0F4F834432046F8BD2DE923
:10582000F74F04460F464FF0000800F0BFF804F1B0
:105830004406054607EB000984F82480304600F052
:10584000D0F8636801A95B1B002B2368D8BF656093
:1058500001931BB15A69521B002A37DD236003B143
:105860001C61C1F80080019D15B12389013323819A
:10587000304600F0B8F801A965BB019D4FF0010A60
:10588000002D34D100F092F8002F82465CDBA9EBAA
:105890000005002D5ADCA36A9BB1304600F0A1F848
:1058A000A36A43B1226832B15169E06AA1EB0A01EF
:1058B00021EAE17198470123304684F8243000F052
:1058C00092F80023A37203B0BDE8F08F03F1080142
:1058D0009B68BEE7A8682B4600229A601A46DB68E0
:1058E000002BFAD10A6005F108010546C4E72B6ACE
:1058F000D5F808B013B105F124009847AA69002A29
:105900000BDB6B6913446B6100F050F829460246CB
:105910002046FFF716FF5D46B2E7E36873B1AB427E
:105920000CD8236AAB4209D3AB7922690133DBB2CD
:1059300013FA02F214BFAB7185F806A005F1240139
:105940002046FFF7C3FEE6E74FF0FF35304600F094
:1059500048F823683BB15969A1EB0A0121EAE171DA
:105960008D4228BF0D46304600F03DF8294604F12F
:10597000300000F048F8A37A7BB1304600F031F8EF
:10598000A37A3BB100233046A37203B0BDE8F04FC9
:1059900000F029B8304600F026F800F007F8054678
:1059A0004CE740F8081C704701F0CCB907B500F08F
:1059B000F8FF70B1084B6846196800F0E6FC4FF438
:1059C0007A720023DDE9000116F0AAFA03B05DF84F
:1059D00004FB02F0FFF8F9E71016002400207047DE
:1059E000704700F0E5BF00F0EDBF0000024908B5C8
:1059F00002F0CAF8002008BD34C6010802F0CDB894
:105A0000012102F0C7B808B5012341EAE172194645
:105A100002F0DEF8431E5842584108BDEFF31083F0
:105A200072B6054A117831B9DB43044903F001032A
:105A30000B70012313707047A1140024A0140024DC
:105A4000034B00221A70034B1B7803B162B67047F8
:105A5000A1140024A014002410461A4608B514F01E
:105A600075FE002008BD0000094B30B51A46094CF0
:105A7000D3F89450A542FBD1036829B181680B602B
:105A80004FF44073536130BDC1681B04F7E700BF9A
:105A9000006402580003008070B50E4604461546A7
:105AA00011F02AFF013609D02046002111F048FFED
:105AB00029462046BDE8704011F03EBF70BD70B56C
:105AC0000E460446154611F017FF01360CD020464D
:105AD0002946FFF7C9FF012111F032FF20460021BE
