:1000000000000120C56D0000FD6D00008D24000082
:10001000016E0000992400009F24000000000000F1
:10002000000000000000000000000000076E00005B
:10003000096E0000000000000B6E00000D6E000055
:100040000F6E00000F6E00000F6E00000F6E0000BC
:100050000F6E00000F6E00000F6E00000F6E0000AC
:100060000F6E00000F6E00000F6E00000F6E00009C
:100070000F6E0000559800000F6E00000F6E00001C
:100080000F6E00000F6E00000F6E00000F6E00007C
:100090000F6E00000F6E00000F6E00000F6E00006C
:1000A0000F6E00000F6E00000F6E00000F6E00005C
:1000B0000F6E00000F6E0000000000000000000046
:1000C0000F6E00000F6E00000F6E00000F6E00003C
:1000D0000F6E00000F6E00000F6E000010B5054C93
:1000E000237833B9044B13B10448AFF300800123E4
:1000F000237010BDB8020020000000005CE3000087
:1001000008B5034B1BB103490348AFF3008008BD9A
:1001100000000000BC0200205CE30000A3F5803A70
:10012000704700BF154B002B08BF114B9D46FFF7D2
:10013000F5FF00218B460F461148124A121A0BF0A8
:10014000B0FF0C4B002B00D098470B4B002B00D07E
:1001500098470020002104000D000B4802F02EFEFD
:100160000BF0C2FE2000290003F040F802F023FE4D
:100170000000080000000000A53100000000012080
:10018000B80200206813002095B900002DE9F04F57
:1001900000F5927A87B002EBCA03DFF880B10193D1
:1001A00007460C4616464FF00008D4E90035AB422E
:1001B0006FD3002D40F09680002007B0BDE8F08F8F
:1001C00001332360F1E7981C85424ED3634406EB6C
:1001D000C70193F801C0D1F82029D1F824391CEBCC
:1001E000020243F10003C1F82029C1F8243920603C
:1001F000DBE7D81C854238D3634406EBC7019A7805
:1002000093F801C04CEA022CE5E7991D8D422CD3EE
:10021000634406EBCA00DA789D78120442EA0522AC
:100220005D782A431D795B7942EA056246F83A20F7
:1002300043602160B9E7002E69D000EBC001314472
:10024000F42891F81C90D1F81D20D1F8211008D97C
:10025000B9F1000F05D10BEB0002002112F8F59C5B
:100260000A4603EB090E754502D24FF001089CE7E0
:1002700062B1013363440493019B8DF80C008DF847
:100280000D7005938DF80E9003A8904723684B449A
:1002900097E7B8F1000F8CD1D4F810C01CF8030018
:1002A00000288DD0F428C6D9A0F1F5020A2AC2D8B8
:1002B00001A151F822F000BFC7010000F3010000C6
:1002C0000B02000037020000370200003702000076
:1002D000C7010000F30100000B020000370200001C
:1002E000C1010000AB4215D8ED1A6560002D3FF446
:1002F00063AF002204E021692068CD18285CC8544F
:10030000616893B2994202F10102F4D854E74FF0C8
:10031000FF3052E76FF001004FE700BF5CCB0000F9
:100320000BB100F0ACB94FF0FF307047F0B58BB0B7
:10033000002607460D4604961446002A00F08E80DB
:10034000002800F08B80002900F08B800A4631469F
:100350000BF0A7FE21460DF10F00CDE90566CDE9B2
:100360000857079600F0CDFA002839D19DF80F30D4
:100370000690F3B103F006025423D340079A03F02A
:100380000103134310D006980899099D0094002397
:100390000593091A07AB04AA284400F007FBF8B933
:1003A000069B049A13440693224605A90020FFF7F2
:1003B000EDFE079B002213B113460028DAD0069207
:1003C0009DF80F2012B9079B002203B150B1002302
:1003D00006939DF80F3013B9079A002302B108B3B2
:1003E0000BB0F0BD204B02F01802D340079A03F087
:1003F0000103134310D00899099D059006980094B5
:10040000091A07AB04AA284400F0DCFA0028E7D157
:10041000069B049A13440693224605A90120FFF780
:10042000B5FED0E75B0601D4079B8BB1069808990F
:10043000099D009400230593091A07AB04AA2844D8
:1004400000F053FB0028CBD1069B049A134406937B
:10045000224605A90220FFF799FEBDE74FF0FF30C5
:10046000BEE76FF00500BBE70001010109B100F034
:100470002BBA4FF0FF30704709B100F02BBA4FF0A4
:10048000FF30704709B100F036BA4FF0FF307047C7
:100490001FB50023039351B1009103AB0146202205
:1004A00040F21F1000F0BEFA05B05DF804FB4FF0FB
:1004B000FF30F9E70AB100F025BB6FF0010070478B
:1004C00010B423B118B15DF8044B00F05BBB4FF0E2
:1004D000FF305DF8044B704707B50B468DF80700F9
:1004E00041B101220DF10701072000F026F903B008
:1004F0005DF804FB4FF0FF30F9E707B50B468DF8C8
:10050000070041B101220DF10701062000F015F9A5
:1005100003B05DF804FB4FF0FF30F9E708B100F0DD
:1005200014BA4FF0FF3070472DE9F7430C9F019349
:10053000DDE90A8904460D46164697B140F63812A1
:10054000002138460BF0ADFD019BCDF828803246E6
:1005500029462046CDE90B9703B0BDE8F04300F0F3
:1005600072B84FF0FF3003B0BDE8F0834BB141B13A
:1005700000EBC00003440020C3F81D10C3F8212085
:1005800070474FF0FF30704770B5044690B00028B8
:100590004BD0014608A8FFF77BFF00283ED101257C
:1005A00025772E46C5F3C40340336B4405F007029C
:1005B00013F8203C06FA02F21340E8B230D022468B
:1005C00001A900F015FB38B99DF8182052B304F1C9
:1005D0001C0305EBC5015A54F42D02D00135002847
:1005E000E0D00123122604250621032284F81339C2
:1005F00084F8E6680223002684F80A5984F8011971
:1006000084F8F82884F8EF3884F8DD6884F8D45842
:1006100084F8CB1884F8C22884F8B93810B070BDBB
:100620001846D9E76FF00700DBE74FF0FF30F5E73A
:100630000B4629B120B1014601222E20FFF770BEE2
:100640004FF0FF30704730B5059C039DA4B199B1C0
:1006500092B18BB1207315F0030018BF25F003058C
:10066000C4E90012A36018BF0435049B23611ABFBC
:10067000A5610020A56130BD4FF0FF30FBE738B524
:100680001C467BB11D686DB161B11B7B012B08BF9E
:1006900040F080002369A8470028207518BF6FF03C
:1006A000020038BD4FF0FF30FBE72DE9F74FDDE9E1
:1006B0000C5881460F4693461E46B8F1000F39D0BC
:1006C000002937D0002B35D0A5B32B68D8F818A057
:1006D0000BBB4346022201A9FFF7D1FFBDF804304E
:1006E0002B602C68A4B198B95C4528BF5C46346087
:1006F0008346544511D8002034B14346224607EBC7
:100700000B014846FFF7BBFF2B6832689B1A2B6032
:1007100003B0BDE8F08F0020E3E74346524607EB05
:100720000B014846FFF7ABFF0028E5D1A4EB0A0414
:10073000D344DEE74FF0FF30EAE738B51C4683B11B
:100740001B6873B169B1237B6568012B08BF00F09A
:100750007F002369A8470028207518BF6FF00200AA
:1007600038BD4FF0FF30FBE72DE9F04FC5B08B46A9
:10077000509901931646DDE94E32002900F0898038
:100780001EB1BBF1000F00F0848013B10199002964
:100790007FD05099D1F81890B9F1000F7CD006EBBA
:1007A000030A12B3134499071CBF23F00303043355
:1007B00002280BBFC3F38702DAB2C3F38723C3F364
:1007C0000723B9F5807F8DF81330ADF810008DF850
:1007D00012200AF1040328BF4FF4807955460424FF
:1007E0002BB9184645B0BDE8F08F5346DBE72B190F
:1007F0004B4527D9A9EB0407C8466FB104F1100295
:100800000DEB0200BA19AA422AD8019BAAEB0501F6
:100810003A4619440BF016FC3819404506D004AB93
:10082000C0F58072002118440BF03BFC509B4246FF
:1008300004A90020FFF781FF0028D3D1ED1B2B4630
:100840000446CDE79A071ABF23F0030808F104080D
:100850009846B8F5807F28BF4FF480782F46CCE7C4
:100860000293B542A6EB050303930ED9019BAAEBB5
:1008700005011944AA1B0BF0E5FB029B721B981B98
:1008800004AB3A4459461844C4E7711B3A465944EC
:10089000C0E74FF0FF30A5E76FF00100A2E708B511
:1008A00029B18B681BB109699847002008BD4FF03A
:1008B000FF30FBE71FB502930023CDE90033FFF7BC
:1008C00053FF05B05DF804FB0B46012201461C20D6
:1008D000FFF7D5BE13B50B46044648B1022201A965
:1008E0002020FFF7CCFEBDF80430238002B010BDFD
:1008F0004FF0FF30FAE70B46012201462520FFF7B3
:10090000BEBE0B46012201462D20FFF7B8BE73B5CF
:1009100006464FF47A7531460DF10700FFF7F1FFF7
:10092000044668B99DF807309B0609D4314642F267
:100930001070FFF7B4FF30B9013DADB2002DEAD120
:10094000204602B070BD0446FAE737B500230546DD
:1009500001228DF807300DF10601034614208DF8B1
:100960000620FFF7EAFEF8B103B030BD294642F297
:100970001070FFF794FF58B92B4601220DF10701C3
:100980002520FFF77CFE18B99DF80730DB06EBD475
:10099000013CA4B2002CE9D19DF8073013F0100FF0
:1009A00008BF6FF00400DFE71024F1E713B5049CE3
:1009B000CDE9003413460A4601460120FFF775FED3
:1009C00002B010BD13B5049CCDE9003413460A46AD
:1009D00001460220FFF769FE02B010BD2DE9F34188
:1009E000DDF820801546042207460C461E460DEB16
:1009F000020143460320FFF742FE68B9BDF8062016
:100A0000BDF804303B80326032B1AA4207D8434679
:100A100021460320FFF733FE02B0BDE8F0816FF0FE
:100A20000500F9E72DE9FF470C9D1E46002380468F
:100A300089469246ADF80E30002D53D0002951D092
:100A4000002E4FD0336001222B460DF10D01062000
:100A5000FFF715FE0446A0BB9DF80D7007F07F035D
:100A6000BB428DF80D3022D100222B46114648F4AE
:100A70008050FFF71FFF044618BB2846FFF747FFCB
:100A80000446F0B900953346524649460DF10E0032
:100A9000FFF7A4FF0446A0B99DF80D30BB4214D166
:100AA000BDF80E30434518BF6FF0040409E02B4633
:100AB00001220DF10D010620FFF73FFE044600283C
:100AC000D2D0204604B0BDE8F0872B4601220DF1BC
:100AD0000D0106208DF80D70FFF72FFE0028DFD0E6
:100AE0000446EEE74FF0FF34EBE713B5049CCDE985
:100AF000003413460A4601460320FFF7D6FD02B034
:100B000010BD000070B586B00023814214468DF8F8
:100B10000930ADF80A302FD3CDE90401134604A9FA
:100B200008220420FFF7C6FE20BB154E4FF4966541
:100B300021460DF10900FFF7E4FED8B99DF8093010
:100B40009B0608D421463046FFF7A9FE90B9013D27
:100B5000ADB2002DECD10022009403AB11460DF193
:100B60000A00FFF73BFF28B9BDF80A300A2B18BF6F
:100B70006FF0680006B070BD6FF00100FAE700BFCB
:100B800020A1070030B501F5FC5591B004351C4695
:100B900043B338B321B9018846F22B63994224D17B
:100BA00004230021CDE900310294014606AB052063
:100BB0000695FFF7D9FD98B92046FFF7A8FE78B94A
:100BC0002022009407AB0DEB02010DF11600FFF798
:100BD00005FF28B9BDF816300B2B18BF6FF00400C5
:100BE00011B030BD4FF0FF30FAE76FF00300F7E7C8
:100BF00010B50C468AB019B3F52803D96FF001007F
:100C00000AB010BD009202AB1C2203A900F540708F
:100C1000FFF708FF0028F3D1029B1C2BEED10499AB
:100C200061600599039BA16006999DF820202360CF
:100C3000E160DDF82130079921612275A361DFE7CA
:100C40004FF0FF30DCE710B5044600F086FF204689
:100C500010BD00000930C0B209289ABF024B53F8FA
:100C600020000248704700BF38DB000067CB00005F
:100C70007047704702F0C7BAE22800F27E81DFE8D1
:100C800010F0E4007C017C017C017C017C017C0192
:100C90007C017C017C017C017C017C017C017C016C
:100CA0007C01E300E600E800EA00EC00EE00F00062
:100CB000F2007C01F400F600F800FA00FC00FE00EF
:100CC000000102010401060108010A010C010E01E4
:100CD000100112011401160118011A011C017C01F6
:100CE0001E0120017C017C017C017C017C017C01D6
:100CF0007C017C017C017C017C017C017C017C010C
:100D00007C0122012401260128012A012C017C01F9
:100D10007C017C017C017C017C017C017C017C01EB
:100D20007C012E01300132013401360138013A01D3
:100D30007C017C017C017C017C017C017C017C01CB
:100D40007C013C013E0140017C014201440146011D
:100D50007C017C017C017C017C017C017C017C01AB
:100D600048017C017C014A014C017C014E0150018B
:100D700052015401560158015A015C015E016001A3
:100D80007C017C0162017C017C017C017C017C0195
:100D90007C017C017C017C017C017C017C017C016B
:100DA0007C01640166017C017C017C017C017C0189
:100DB0007C017C017C017C017C017C017C017C014B
:100DC0007C0168017C017C017C017C017C017C014F
:100DD0007C017C017C017C017C017C017C017C012B
:100DE0007C016A016C017C017C017C017C017C013D
:100DF0007C017C017C017C017C017C017C017C010B
:100E00007C016E01700172017C017C017C017C011E
:100E10007C017C017C017C017C017C017C017C01EA
:100E20007C01740176017C017C017C017C017C01E8
:100E30007C017C017C017C017C017C017C017C01CA
:100E40007C017C0178017A014D4B184670474D4B6F
:100E5000FBE74D4BF9E74D4BF7E74D4BF5E74D4BB6
:100E6000F3E74D4BF1E74D4BEFE74D4BEDE74D4BC6
:100E7000EBE74D4BE9E74D4BE7E74D4BE5E74D4BD6
:100E8000E3E74D4BE1E74D4BDFE74D4BDDE74D4BE6
:100E9000DBE74D4BD9E74D4BD7E74D4BD5E74D4BF6
:100EA000D3E74D4BD1E74D4BCFE74D4BCDE74D4B06
:100EB000CBE74D4BC9E74D4BC7E74D4BC5E74D4B16
:100EC000C3E74D4BC1E74D4BBFE74D4BBDE74D4B26
:100ED000BBE74D4BB9E74D4BB7E74D4BB5E74D4B36
:100EE000B3E74D4BB1E74D4BAFE74D4BADE74D4B46
:100EF000ABE74D4BA9E74D4BA7E74D4BA5E74D4B56
:100F0000A3E74D4BA1E74D4B9FE74D4B9DE74D4B65
:100F10009BE74D4B99E74D4B97E74D4B95E74D4B75
:100F200093E74D4B91E74D4B8FE74D4B8DE74D4B85
:100F30008BE74D4B89E74D4B87E74D4B85E74D4B95
:100F400083E74D4B81E74D4B7FE74D4B7DE74D4BA5
:100F50007BE74D4B79E74D4B77E74D4B75E74D4BB5
:100F600073E74D4B71E74D4B6FE74D4B6DE74D4BC5
:100F70006BE74D4B69E74D4B67E74D4B65E700BFAE
:100F80008ACB0000D0CB00001ACC000067CC000058
:100F9000B0CC00000FCD00005DCD0000B1CD000051
:100FA000FECD00003BCE00005FCE000097CE0000DB
:100FB000D5CE00000ECF00004DCF000092CF000034
:100FC000B6CF0000EECF000029D0000054D00000C2
:100FD0007FD000009FD00000D4D00000F2D00000ED
:100FE00017D100004FD100007AD10000A1D100003C
:100FF000C7D10000E9D100000AD2000024D20000CD
:1010000040D200005AD2000074D200009DD20000ED
:10101000FDD2000022D300004BD3000077D30000A4
:10102000A2D30000CAD30000F3D3000029D40000EB
:1010300060D4000088D40000B7D40000E6D40000DB
:1010400015D5000030D500004BD500007CD5000040
:10105000A1D50000E4D5000028D600006AD6000023
:1010600095D60000AED60000D9D6000005D7000006
:101070002FD700005DD7000082D70000ACD700005A
:10108000D0D70000FDD7000023D8000049D80000C9
:1010900072D80000A7D80000D8D800000CD90000F2
:1010A00047D9000078D90000A5D90000E4D9000094
:1010B0001FDA000037B51148114D002404701F21BC
:1010C00000F086FD0F480E21047000F07AFD0E4CF2
:1010D0000E490C482A4601F06CFE4FF0FF33009396
:1010E000052203230421204600F074FB08492A4608
:1010F000204603B0BDE8304001F05BBED4020020C2
:10110000E0000020D5020020D8020020470C00009B
:10111000091700002DE9FF41104FDFF844800391CB
:10112000144697F900204FF0A046012505FA02F277
:10113000C6F80C250146404600F00EFCA2B2039B07
:1011400000920021404600F018FC97F90030002082
:101150009D40C6F8085504B0BDE8F081D4020020D7
:10116000D80200202DE9F347DFF84490DFF844A0CF
:1011700099F900304FF0A048012404FA03F3002548
:101180000E461746C8F80C350146504600F0E4FB01
:101190002B460095BAB23146504600F0EEFB99F965
:1011A000003028469C40C8F8084502B0BDE8F087EA
:1011B000D4020020D802002003681BB903680BB9D1
:1011C000031D036018467047036801221B69002154
:1011D0001847036800221B69114618476FF0150075
:1011E000704707B5019001F033FB0198012106F02B
:1011F0009FF903B05DF804EB01F034BB07B5019033
:1012000001F026FB0198002106F092F903B05DF889
:1012100004EB01F027BB07B5CDE9001001F018FB86
:10122000DDE9001006F070F903B05DF804EB01F0A1
:1012300019BB03681BB903680BB9031D0360704732
:1012400038B505460A48FFF7F4FF284605F0F2FFD7
:10125000044650B9284606F07FF801F09BFF68600D
:101260000348FFF7E6FF204638BD4FF0FF34F7E7AD
:101270002C03002038B505460948FFF7DAFF284659
:1012800005F0F6FF041E686818BF0124644208B127
:1012900001F084FF0248FFF7CCFF204638BD00BFB5
:1012A0002C0300202DE9F74F15460F4606469946B8
:1012B00006F052F80446304606F036F880463046CE
:1012C00006F04CF88346304606F04AF8B5FBF4F1D8
:1012D00004FB11518246002957D1002F55D009EB4C
:1012E000050308EB0B0083424FD82948FFF7A1FF05
:1012F000B9F1000F02D041B14FF0FF312448FFF7A0
:1013000098FF084603B0BDE8F08F2946304606F046
:1013100013F8B5FBF0F300FB1353C31A4B4528BF7A
:101320004B46BA0701D1A34229D2A34228BF234684
:10133000984670681A4639460AF084FEA04506D2DF
:101340007068A4EB0802514640440AF0AAFE726895
:1013500023464FF0100B29463046CDE9002305F017
:10136000ABFF014630B1BBF1010BDDE90023F2D147
:101370004FF0FF31A9EB080945444744B8E7B3FBF8
:10138000F4F3634398463A46E3E74FF0FF31B8E79A
:101390002C0300202DE9F0410D461746064605F0C6
:1013A000C3FF0446304605F0D9FF2044EC19A042A3
:1013B00004D24FF0FF342046BDE8F0810BD8154829
:1013C000FFF737FF002417B184B14FF0FF34114805
:1013D000FFF72FFFEFE72146304605F0ADFFB4FBE6
:1013E000F0F303FB1044002CE3D1E8E74FF01008C2
:1013F0002946304605F03EFF044620B1B8F1010809
:10140000F6D14FF0FF342946304605F095FF3F1ADC
:101410000544D8E72C03002005F09EBF05F08CBFE3
:10142000416830B4034671B1D0E9032000F00104F3
:1014300002B944B1451001EB60000CB149598A581A
:10144000996830BC104730BC70470000044B10B5A1
:1014500004460360806A08B100F00AFE204610BD11
:1014600068DB000010B50446FFF7F0FF204680213E
:1014700001F092FE204610BD036870B5094D1B684F
:10148000044698472B68A34205D0A16F04F13000B1
:1014900006F03CF92C60236820465B68BDE870408C
:1014A000184700BF3C0300207FB51D460368044673
:1014B000CDE902211B6898472046FFF7DDFF9DF824
:1014C000203083F00103DDE90221009304F13000B4
:1014D0002B4606F04FF9236806465B68204698477E
:1014E000A81B18BF012004B070BD7FB51D4603685E
:1014F0000446CDE902211B6898472046FFF7BCFF50
:101500009DF8203083F00103DDE90221009304F10E
:1015100030002B4606F012F9236806465B68204629
:101520009847A81B18BF012004B070BD7FB50025E7
:10153000012416462B462A4602A800948DF808502E
:1015400000F049FB03A800942B462A4631468DF84B
:101550000C5000F040FB03A805F0C2FF002859D052
:1015600002A805F0BDFFA04202D1002004B070BD6A
:10157000294603A8FFF74FFE03A8FFF732FE0A260D
:10158000002103A8FFF747FE9DF90C304FF0A0455E
:1015900004FA03F3C5F80C35052001F034FE0321ED
:1015A00003A8FFF738FE9DF90C3004FA03F3C5F8E1
:1015B0000835052001F027FE013EE1D102A8FFF722
:1015C00010FE9DF9083004FA03F3C5F80C35052028
:1015D00001F019FE9DF90C3004FA03F3C5F8083543
:1015E000052001F010FE9DF908309C400520C5F84B
:1015F000084501F008FE02A8FFF700FE03A8FFF768
:10160000FDFD03A805F06CFF20B102A805F068FFFE
:101610000028AAD16FF00100A8E7000008B5024831
:10162000FFF7CAFD08BD00BF340300201A4B2DE9A7
:10163000F0410D4603600021184B016100F13008B4
:101640000446C0E90711C0E9091116468185144F07
:1016500043614822806140460AF023FD114BA36795
:101660003846FFF7A9FD3246294684F87C5084F8B5
:101670007D602046FFF75AFF94F97D2094F97C1095
:10168000404606F009F8084B38461C60FFF794FD09
:101690002046BDE8F08100BF68DB00002114000097
:1016A00034030020A08601003C030020416830B4D0
:1016B000034671B1D0E9032000F0010402B944B13E
:1016C000451001EB60000CB149598A58996830BC4B
:1016D000104730BC704713B590F93530446800931B
:1016E00090F9343090F9332090F93210201D06F033
:1016F000B1FD02B010BD4368DA6C22B9DA6C12B9E0
:1017000003F15002DA647047094B10B50360FFF72C
:10171000F2FF43685A6D824204BF00225A65FFF708
:10172000EAFF0446C06908B100F0A2FC204610BDE3
:10173000C0DB000010B50446FFF7E6FF2046542149
:1017400001F02AFD204610BD38B5054601F080F8AD
:10175000074B1B68002B08DD064C2378AB4218BFF3
:10176000002401F07FF8204638BD0024F9E700BFCF
:101770009803002040030020044A1368591C11609C
:10178000034A582000FB0320704700BF9803002045
:10179000400300200023082210B5C0E90E23038671
:1017A0000B4B03640446FF23A0F8443001F050F8CB
:1017B00094F84C00FFF7C8FF606028B9FFF7DCFF22
:1017C00094F84C3060600370BDE8104001F04AB8F6
:1017D00040420F0038B50446124820601248A0600D
:1017E0002046002584F834309DF9103084F83210FA
:1017F00084F8332084F83530C4E90455E460A561E9
:10180000E561E5624FF0FF3100F8365F00F0E0F986
:10181000064BA5642046236584F84C50FFF7BAFFB9
:10182000204638BDC0DB0000AD160000D716000012
:1018300038B50446124820601248A06020460025B2
:1018400084F83430FF2384F8321084F8332084F88D
:101850003530C4E904559DF91010E460A561E561D7
:10186000E562012200F8365F00F0AEF9064BA56490
:101870002046236584F84C50FFF78CFF204638BD86
:10188000C0DB0000AD160000D716000043685B6D9A
:10189000834210B504460FD0036D98476068D4E9C1
:1018A0000E120023043006F023FD6068216C043022
:1018B00006F02CFD63685C6510BD036870B50446D6
:1018C0001B690D46984760682564436DA34209D1A2
:1018D0002946043006F01AFD236820465B69BDE8FE
:1018E000704018472046FFF7D1FFF5E790F9362002
:1018F000531C09D0012393404FF0A04211B1C2F80C
:1019000008357047C2F80C35704738B5036804468F
:101910001B69984794F945506B1C84F8453045B9CC
:101920002046FFF7B3FF29462046BDE83840FFF7C1
:10193000DDBF38BD10B590F84530013B5BB20446C1
:1019400080F8453013B90121FFF7D0FF2368204606
:101950005B69BDE81040184737B504460191FFF7B1
:10196000D4FF60680199043006F008FD0546204662
:10197000FFF7E0FF284603B030BD30B5044687B01E
:10198000CDE904210393FFF7C0FF94F84450606849
:1019900001950A9D05990095DDE90332043006F0B2
:1019A00021FD05462046FFF7C5FF284607B030BD9C
:1019B0000020704700290CBF6FF01800002070470E
:1019C000012070476FF0150070476FF015007047E9
:1019D0001120704784B001A880E80E0004B0704761
:1019E000437D10B504461BB1037D0BB101F06CF8CB
:1019F000204610BD13B5044601A800F041FB637DED
:101A000053B9237D0BB101F04BF8206900F0F2FAD5
:101A1000C4E900010123637501A800F039FB02B09D
:101A200010BD37B504460D4601A800F029FB002380
:101A30000022C4E900236B7D4BB1286900F0DAFA7B
:101A4000D5E90032C01A61EB0201C4E9000101A826
:101A500000F01EFB204603B030BD30B585B0044613
:101A60000D4603A800F00CFB29466846FFF7D9FF96
:101A7000D5E90221009B9B18019A42EB0102C4E9BF
:101A8000003203A800F004FB204605B030BD07B5C6
:101A900001466846FFF7E1FFDDE900014FF47A7285
:101AA00000230AF095FE03B05DF804FB13B504466D
:101AB00001A800F0E5FA206900F09CFA002200235A
:101AC000C4E90001C4E9022301A800F0E1FA02B070
:101AD00010BDD0B5002300260027C0E90067C0E98B
:101AE00002670446016102754375FFF7DFFF204678
:101AF000D0BD10B5044600F0A7FA012201462046E9
:101B0000FFF7E7FF204610BD03681B681847000079
:101B100010B50446074B236000220023C4E90223CA
:101B200000230846A161C4E90433034900F0F2F937
:101B3000204610BDE0DB0000091B000007B5009047
:101B400000F10801806900F022FA03B05DF804FB9F
:101B500000F10801806900F032BA704770B50E4696
:101B60000446154605F0A4FC013609D020460021A4
:101B700005F0DEFC29462046BDE8704005F0C4BCF7
:101B800070BDF8B50F46044615461E4605F090FC9C
:101B9000013715D094F90030012098404FF0A04350
:101BA0005EB1C3F808052046012105F0C1FC2946B5
:101BB0002046BDE8F84005F0A7BCC3F80C05F2E7E5
:101BC000F8BD0322FFF7CABF13460022FFF7D9BFB3
:101BD0000022FFF7F9BF2DE9F0411746069E0446A3
:101BE0000D461A468FB9FFF7B9FF013508D094F9B1
:101BF000003001229A404FF0A0431EB1C3F80825DF
:101C0000BDE8F081C3F80C25FAE73346BDE8F041A2
:101C1000FFF7B7BF00487047E4DB0000024B1B68CA
:101C20000BB1024818477047E4000020E4DB0000D5
:101C3000F8B5446894F832608EBB03685B689847D7
:101C4000226A82422BD023692062821A1A40A3683A
:101C5000A2FB03C194F93420CAB1606A10EB0C05F1
:101C600041F10001002A1BDBC2F12000A2F1200398
:101C700025FA02FC01FA00F021FA03F34CEA000C09
:101C80004CEA030CD1400CFA02F2AA1A6262D4E9BF
:101C90000A3213EB0C0341EB0201C4E90A31F8BD2F
:101CA000E76833463A4628460AF0E2FD844607FBD9
:101CB00010506062EBE7824206D98A420BD9884213
:101CC00094BF002001207047884206D98A428CBF09
:101CD00000200120704701207047002070472DE947
:101CE000F3474668336B23F07F4A2AF0FF0A074622
:101CF000BAF1000F69D1FFF79BFF7368D7F8008036
:101D0000002B57D0D3E90040D6E90A23A2428341F1
:101D100005D3D8F8143002B0BDE8F04718477D6805
:101D2000D5E90A23A41AD5E9059260EB0300EB6913
:101D3000A24283410DD3EB6895F933C0A3FB044164
:101D400003FB0011BCF1000F19D12046814528BFCB
:101D500081462B6A09EB03022B691A401046D8F81A
:101D60001030019298473B685B689847019A01469A
:101D7000306AFFF7A0FF40B33B685B69CBE7AA6816
:101D8000501E001941F10001BCF1000F0EDBCCF137
:101D90002002ACF1200301FA02F220FA0CFC4CEA1A
:101DA000020C21FA03F34CEA0300CFE753460AF092
:101DB0005FFDCBE77369306A32691844D8F8103098
:101DC000104002B0BDE8F047184702B0BDE8F08708
:101DD000436893F830202DE9F0410546002A71D17F
:101DE00093F83230002B6DD103681B6898472B683D
:101DF000DB699847344B0268002A08BF1A4614462C
:101E00001946B4FBF3F301FB13430C46002BF7D147
:101E10006E682D4FB7FBF1F71F23B7600124013B1C
:101E200003D304FA03FC6745F9D1B2FBF1F286F85B
:101E30003330F2601F23012101FA03F4A24201D0E2
:101E4000013BF9D286F834304368191F1B2996BF2D
:101E50000121202399404FF00704A3F1040394BF0C
:101E600001F1FF314FF0FF319C4031617461E317A4
:101E7000A4FB07414FF0000807FB0311531E48F174
:101E8000FF37E01841EB070143460AF0F1FC2B68ED
:101E9000C6E90601C6E900885B6898476B6830624E
:101EA000002100200122C3E90A01C3F8248028464A
:101EB00083F832801A86FFF7BBFE2846BDE8F04162
:101EC000FFF70DBFBDE8F08140420F00F3B4456855
:101ED000069C8C60C1E900236C68002734B9CC6093
:101EE0007FB9696002B0F0BCFFF7F9BE6668019681
:101EF0002668B242019E73EB0606F0D32746E468DB
:101F0000ECE7F960D5E90A4194429941EAD202B07E
:101F1000F0BC704738B505460C46FFF759FF00F096
:101F200097FC6B681C60BDE8384000F09BBC70B546
:101F3000054600F08DFCD5E90034DB68984794F83D
:101F400032301BB1BDE8704000F08CBC012384F836
:101F500031306368A3B12846FFF76AFE6368D4E9AD
:101F60000A62D3E9000186428A4109D36A68DB68C4
:101F7000526863602368002BEBD090689847E8E7CD
:101F8000002384F831302846FFF7A9FEDAE710B5C0
:101F900086B0CDE904210393089C029000F058FC20
:101FA0000298FFF745FEDDE9033205990298009497
:101FB000FFF78CFF06B0BDE8104000F053BC38B509
:101FC00005460C4600F044FC6A685368A34209D1F8
:101FD000DB6853602846FFF782FEBDE8384000F01A
:101FE00041BC1346002BF8D0DA68A242F9D1E2686E
:101FF000DA60F2E713B50446FFF7EAFE00F028FCCA
:102000002046FFF715FE6368D3E90A01CDE9000118
:1020100000F028FCDDE9000102B010BD08B5FFF7B3
:10202000E9FF08BD024B00221A7006F0D9BA00BFC2
:10203000D803002008B506F041FA024B01221A70BD
:1020400008BD00BFD80300200048704710DC000026
:10205000024B1B680BB1024818477047E80000208C
:1020600010DC000091F90C2091F9041005F090BEED
:10207000024B1B6803B11847704700BF18040020CB
:1020800007B5019000F0E4FB019803B05DF804FB94
:1020900007B5019000F0E6FB019803B05DF804FB82
:1020A00003681BB903680BB9031D03607047000088
:1020B00010B5124B036004461148FFF7F1FFA36807
:1020C0002BB1104962680B68A34210D10A600E4B15
:1020D0000B481A68A24204BF00221A60FFF7E0FF13
:1020E000237B13B9201F00F095FD204610BD194633
:1020F0005B68A342FBD14A60E9E700BF4CDC00000B
:10210000200400201C0400202804002010B50446F0
:10211000FFF7CEFF2046102101F03EF8204610BD0B
:102120000B4B10B503600023C0E901310446027374
:102130000848FFF7B5FF41B1074B1A6862601C60A1
:102140000448FFF7ADFF204610BD6160F8E700BF0F
:102150004CDC0000200400201C040020F8B50646DA
:102160001448FFF79DFF144B1C680D4674B9072DEA
:1021700019D112482A46314609F054FF98B90D4842
:10218000FFF78EFF0E4B1C682046F8BDA76877B19D
:1021900038460AF0A6F9A84209D12A4631463846FF
:1021A00009F040FF18B90348FFF77AFFECE76468CD
:1021B000DCE700BF200400201C0400203CDC000001
:1021C00028040020007B704770B50D460026C0E94A
:1021D00000660B49044628460AF08BF9284403465A
:1021E00031461A782F2A06D101332360FFF7B6FF54
:1021F0006060204670BD002AF7D001310133F0E75E
:1022000054DC000000687047406808B520B1FFF753
:10221000D9FF431E5842584108BD10B50446FFF788
:10222000F3FF10B1606800B1043810BD406808B514
:1022300020B1FFF7C7FFB0FA80F0400908BD10B524
:102240000446FFF7F3FF10B1606800B1043810BD19
:102250004068003818BF012070476FF05700704782
:102260006FF0570070476FF05700704710B5044685
:102270000846FFF7BFFEC4E90001204610BD00007C
:1022800010B50446FFF744FC20460A4B40F8203BBB
:10229000A169FFF7EBFFD4E90823C4E90A23002270
:1022A0000023C4E90C230023C4E90E3384F8403032
:1022B000204610BD8CDC000010B50446FFF748FC3A
:1022C00094F840200023A3872AB184F84030BDE869
:1022D000104000F0F9BB10BD10B5044601F130000C
:1022E00000F045FAC4E90001204610BDD0E90C32E7
:1022F000013342F10002C0E90C32D0E90A3213F591
:102300007A7342F10002C0E90A327047D0E90A2329
:1023100012F57A7243F10003FFF710BC37B50D4692
:10232000044689696846FFF7A1FFD5E90A3200989B
:102330000199C01A61EB0201B0F57A7F71F10003D7
:1023400006D200220023C4E90023204603B030BD9A
:10235000B0F5FA6F71F1000301D20122F2E7002912
:102360004FF47A724FF00003D8BF00210AF080FAD0
:10237000C4E90001E9E7F7B5054668460C46FFF7F2
:10238000CDFFDDE900304FF47A710022A263A3FB98
:10239000017201FB0022D4E90A16C91942EB0602B8
:1023A000C4E90A12D4E90C125B1842EB0002284679
:1023B000C4E90C32C5E9003203B0F0BDF0B51E46E9
:1023C00085B090F83C30044617465BB9014602A838
:1023D000FFF7D1FF029BBB42039BB34104D3012310
:1023E00084F83D3005B0F0BD214602A8FFF774FF28
:1023F0004FF47A73A7FB032103FB0613D4E90810FB
:10240000521843EB000394F840000121A18760B902
:10241000A069006890F8200038B984F84010CDE930
:10242000002300F03DFBDDE900230021204684F875
:102430003E1005B0BDE8F040FFF780BB024B4FF007
:1024400080625A60704700BF00ED00E090F83C30B9
:1024500010B504464BB1002380F83C3090F83E3074
:1024600013B9012380F83D3010BD90F83F30002BA8
:10247000FAD0836B01338363FFF7E0FF2046FFF759
:1024800035FF2046FFF742FFEEE70000102300F083
:1024900007B8202300F004B8302300F001B840232F
:1024A0009C46F0B404AE7546E80801D3EFF3098604
:1024B0000E4F0FCE0FC70FBC0FC7404649465246BE
:1024C0005B460FC71DCE3100A60A00D304316E094A
:1024D00000D248311FC7EFF309806946EFF3148635
:1024E00063C76046014900F079F800BF2C04002062
:1024F000F0B52C4E2C4F85B000243546214656F8B9
:10250000042B3846013400F089F90D2CF6D1AB6C60
:1025100002936B6C01932B6C244C0093D5E90E2332
:10252000696B234800F07AF92168224800F076F9B7
:10253000E16AA26AA36AA06A266BE76B000CCDE988
:1025400001670090C3F307231B48D2B200F066F97D
:10255000A36A1E0603D5616B184800F05FF9A36AF1
:10256000180403D5A16B164800F058F9EB6C190755
:1025700012D5144800F052F92B6DDA070FD5124826
:1025800000F04CF9EB6C5B074CBF1048104805B0ED
:10259000BDE8F04000F042B90E4800F03FF90E48A7
:1025A000EEE700BF2C04002090DC000000ED00E00E
:1025B0009EDC0000EDDC0000FBDC00004ADD0000DA
:1025C00058DD000066DD000075DD0000A5DD0000BF
:1025D000B1DD000095DD000082DD000007B5044696
:1025E0000D461A48012100F0B9F868BB184800F000
:1025F00015F9302C19D0402C1CD0202C1FD1154897
:10260000154C00F00BF9154800F008F9FFF770FFC2
:10261000134800F003F90D4B00221A7000231149F2
:1026200000932A46204600F0A1F90F480F4C00F015
:10263000F5F8E8E70E480F4C00F0F0F8E3E70E4835
:102640000E4C00F0EBF8DEE70024E7E7F80400208A
:10265000BDDD0000E6DD00003E01FF8013DE00006E
:102660001EDE00003DDE0000F5DD00003F01FF80C2
:10267000FEDD00004001FF8009DE00003D01FF801B
:1026800009F064BD09F016BDF0B572B64FF0E02256
:10269000002313615168204F01F00F0101314FF009
:1026A000FF361D469A0002F1604202F561424FEA90
:1026B000C30CC2F88060C2F88061002202EB0C04F7
:1026C0003C440132082A84F80053F7D1013399427F
:1026D000E8DC124B4FF020625A6040F2FA529860E8
:1026E000DA6000221D6111469C1801320C2A217605
:1026F000FAD14FF0FF3259629A62094ADA621F2218
:102700001A63D0E90031002282F314889D4682F3D7
:1027100010880847F0BD00BF00E100E000ED00E0D8
:10272000020000C003460122D3E84F0FC3E8412F47
:10273000C0B20029F8D17047D0E85F3F5B18C0E80D
:10274000523F002AF8D198B27047D0E85F3F5B1A39
:10275000C0E8523F002AF8D198B270470346D3E848
:102760004F0FC3E8421FC0B2002AF8D1704713B51B
:10277000044600F06DF8D4E90001CDE9000100F055
:1027800071F8DDE9000102B010BD08B500F060F895
:10279000FEE773B5002201460446022000F094FBD8
:1027A0000D2600F055F80022254614F8013B23B908
:1027B00002B0BDE8704000F055B80A2B09D10D2ACF
:1027C00007D001220DF1070102208DF8076000F00B
:1027D0007BFB01222946022000F076FB14F8012C35
:1027E000E2E7000000B5A3B002460B4601A8842131
:1027F00000F04EFF832806D9074B1A681B79CDF8E5
:1028000083208DF88730002802DD01A8FFF7C1FF83
:1028100023B05DF804FB00BF4DDE00000FB407B528
:1028200004A951F8040B0191FFF7DCFF03B05DF838
:1028300004EB04B07047EFF31080C04300F00100D8
:102840007047EFF30580003818BF01207047000083
:1028500008B504F0DFFC024A13680133136008BDB9
:1028600080040020044A136823B1013B13600BB9B4
:1028700004F0D8BC704700BF8004002008B50B48A6
:10288000FFF750FF28B1FFF7E3FFBFF34F8F20BFE3
:10289000FDE7FFF7D6FF08B1FFF777FFFFF7CBFFA4
:1028A0000028F9D0012000F086FA00BFC004002003
:1028B0007047000070B5254C8EB034EA200428BF64
:1028C00004460D4616460021302202A809F0E9FB15
:1028D0001F4B01942344012B039505D91D4B9C42AA
:1028E00002D0033B9C422AD1EB6B02936B6B0893A3
:1028F000FFF7AEFF184A13680133012B136009D1AB
:1029000001AD0FCD154C0FC40FCD0FC40FCD0FC4AB
:102910002B68236001AC0FCC114D0FC50FCC0FC538
:102920000FCC0FC523682B600E4B1B68A5F1300040
:1029300043B19847FFF796FF00200EB070BD029696
:1029400001ABD4E7FFF7B4FFF4E700BF0101FF805C
:10295000C2FE007F4001FF80840400208C04002020
:10296000C4040020880400200020704708B50446F5
:102970000121064876461546FFF7F0FE20B932469B
:1029800029462046FFF796FFFFF778FFF80400205E
:1029900038B5064C23683BB9FFF73CF9044D0146B6
:1029A0002846FFF76DFC2560206838BD48050020EB
:1029B0000005002008B5836823B9054B1B6893F810
:1029C0003D0008BDC06898470028F6D0F9E700BF71
:1029D00048050020F7B5194F04464FF0FF356FF05A
:1029E00000462046FFF7E6FF30BBD4E90023B342A0
:1029F00008BFAA4202D03868FFF7E0FC01A8FFF741
:102A00003FFB2046FFF7D6FF98B9D4E90023B34235
:102A100008BFAA4207D100F079F801A8FFF738FBF8
:102A2000BFF36F8FDDE73B6893F83C30002BF2D1AA
:102A3000F3E701A8FFF72CFB03B0F0BD4805002029
:102A400070B50D4686B01646044628B921B3104627
:102A500006B0BDE870400847431C1AD0FFF798FF46
:102A600001466846FFF787FC009BE418019B43F191
:102A70000003CDE90243CDE90456FFF789FF02A820
:102A8000FFF7A8FF054B186806B0BDE87040FFF7D8
:102A900013BC6FF00043ECE706B070BD48050020A2
:102AA00013B5074C01212046FFF746FE034628B91F
:102AB0000090014622880348FFF758FF02B010BD7E
:102AC0004C0500202301048013B5094C0121204648
:102AD000FFF73BFE4FF6FF73984206D10023228892
:102AE000044800931946FFF741FF02B010BD00BF34
:102AF0004C05002024010480034B188880B2B0FAF2
:102B000080F04009704700BF4C05002008B5FFF772
:102B10009FFEFFF7F1FF28B105F0FAFABDE8084083
:102B2000FFF7A0BE05F0D0FAF8E76FF01C00704781
:102B30006FF0150070470120704700207047704704
:102B4000F8B5074F15460C468E18B44201D12846F9
:102B5000F8BD14F8011B384605F062FAF5E700BF2E
:102B60001807002038B511F001048DB205D00848CF
:102B700005F080FA041E18BF0124EB0605D50448B1
:102B800005F08CFA08B144F01004204638BD00BFAF
:102B90001807002010B5044609F03CFA204610BD85
:102BA00010B50C462AB1044805F004FA2070012043
:102BB00010BD1046FCE700BF1807002003681BB9D2
:102BC00003680BB9031D03607047000008B50F4888
:102BD000FFF7F4FF0E4B032253F8221069B10132C4
:102BE000402AF9D108F0B2FC182303600748FFF728
:102BF000E5FF4FF0FF32104608BD4FF0FF3143F8BC
:102C000022100248FFF7DAFFF5E700BFD4050020E5
:102C1000EC00002010B50146094A0A48FFF7CEFF34
:102C20004023002052F8044B8C4208BF42F8040CA9
:102C3000013BF7D1BDE810400248FFF7BFBF00BF1E
:102C4000EC000020D405002038B5084B0360084B89
:102C50001B680446154633B90648FFF703FA0548D2
:102C6000294605F033F9204638BD00BF5CDE000080
:102C700084070020180700200020704700207047BC
:102C80000EB42DE9F04187B00190FFF79FFF041EBD
:102C900013DB00230199039304A8FFF795FA04A816
:102CA000FFF7D6FA1E4E054668B908F04FFC13230D
:102CB000036046F824504FF0FF34204607B0BDE8CB
:102CC000F04103B0704704A8FFF7B0FA074604A824
:102CD0005FB1FFF7B4FA0390039B124A46F8243021
:102CE00000231355104A1355E7E7FFF796FA0546F8
:102CF0000028DAD0036804A8D3F80880FFF782FA26
:102D00000D9B024603A92846C04705460028E3D08C
:102D100008F01CFC6D42056046F82470CBE700BF4C
:102D2000EC000020540500209405002037B5014632
:102D30006846FFF749FA6846FFF76FFA044638B964
:102D400008F004FC132303604FF0FF3003B030BDE4
:102D5000036868461D69FFF755FA01462046A847F3
:102D6000041E04DA08F0F2FB64420460ECE7002081
:102D7000ECE708B5012000F01EF80000074A0849FA
:102D800013681844884289BF064B10600C224FF02C
:102D9000FF308CBF1A601846704700BFEC0100205E
:102DA00000F000206413002008B508B1FFF7EDFC27
:102DB000FEE70120704708B5FFF7F6FF01207047D6
:102DC0007047704708B5FFF7FBFF08BD08B5FFF770
:102DD000F8FF08BD037803F00303012B09D0037843
:102DE00003F00302012A04D043F002030370012020
:102DF000704700207047037823F0030343F001037A
:102E0000037070473F2870B504462EDC184E56F804
:102E100020305A1C13D1022811DCFFF72FFF034684
:102E200058B92046FFF728FF034630B9114D2B68EB
:102E3000BFF35B8FDB0704D50F4B46F824301846F1
:102E400070BD2846FFF7C6FF0028F5D00B490A4899
:102E50004FF4E132FFF7F8FE094A0A490648FFF746
:102E6000A8FF2846FFF7C7FFE6E70023E7E700BF14
:102E7000EC00002050050020DC050020A4DE00004E
:102E8000E00000203F2B000038B50546FFF7BAFFF1
:102E90000B4B002443F8254030B908F057FB0923B9
:102EA00003604FF0FF3038BD03685B699847051E2B
:102EB00004DA08F04BFB6D420560F2E72046F2E7CA
:102EC000EC000020FFF7E0BF13B5CDE90021FFF7CC
:102ED00099FFDDE9002140B908F038FB09230360C0
:102EE0004FF0FF34204602B010BD0368DB689847FE
:102EF000041EF7DA08F02AFB64420460F0E713B519
:102F0000CDE90021FFF77EFFDDE9002140B908F09F
:102F10001DFB092303604FF0FF34204602B010BDB3
:102F200003689B689847041EF7DA08F00FFB6442B9
:102F30000460F0E710B5FFF765FF044628B908F014
:102F400005FB09230360204610BD0368DB69984731
:102F5000041EF8DA08F0FAFA644204600024F2E78A
:102F60002DE9F84FB2F1000805460E4608DA08F0E0
:102F7000EDFA162303604FF0FF342046BDE8F88FCA
:102F8000FFF7D8FF044648B1DFF87CB0DFF87CA03B
:102F90001BF8059000273C46B84511DCA045ECDD48
:102FA000A8EB040231192846FFF78EFF0028E2DB68
:102FB00024181FBF3619144B16F8012C5A55DCE79C
:102FC000F25D0A2A1CD1B9F10D0F19D0BC420BDAFF
:102FD0003A1B31192846FFF777FF0028CBDB044462
:102FE000A742CADC0BF80590012251462846FFF79C
:102FF0006BFF0028BFDBC0D04FF00D030BF805308E
:1030000016F807900137C7E79405002052DE00004C
:10301000FFF790BF7FB5002A04460D4607DA08F097
:1030200095FA162303604FF0FF3004B070BD019293
:10303000FFF780FF019AF8B1134E01220DF10F0145
:103040002046FFF75CFF0028EDDBEED09DF80F3047
:103050000D2B08D1325D0A2A0AD01A460A233255AE
:103060002B700120E1E70A2B04D1325D0D2AF3E732
:103070003355E2E71A46F2E72946204604B0BDE898
:103080007040FFF73CBF00BF5405002013B5CDE9E9
:103090000021FFF7B7FEDDE9002140B908F056FA3C
:1030A000092303604FF0FF34204602B010BD0368CF
:1030B0001B699847041EF7DA08F048FA6442046076
:1030C000F0E7FFF7E3BF38B50D46FFF79BFE044678
:1030D00030B908F03BFA092303604FF0FF3038BDE8
:1030E0000368DB699847002814BF4FF400534FF47E
:1030F00000436B60236820469B6A98472861002044
:10310000EDE7FFF7E0BF000070B50E461549054634
:1031100009F0C4F9044618B9FFF774FE204670BDE3
:103120001149284609F0BAF920B90120FFF76AFED3
:103130000124F3E70D49284609F0B0F920B902202F
:10314000FFF760FE0224E9E72B78402B02D1D5F887
:103150000140E3E726F480312846BDE87040FFF7E0
:103160008FBD00BFC4DE0000CBDE0000BCDE00006F
:103170001FB5039008F046FF039A034620B900905C
:1031800001460348FFF7F2FB05B05DF804FB00BF02
:103190001F010180FFF7ECBF08F03CBF08F03ABF09
:1031A0007047704708B5094B094A1A60094B9B1ACA
:1031B000094A1360094B0A4A1A600A4B9B1A0A4AC9
:1031C000136004F009FCFFF7ECFF08BDEC050020DC
:1031D00000F0002000000120E8050020E4050020A8
:1031E0006813002000F00020E005002008B5FFF77C
:1031F000D7FFFFF7B9FBBDE8084008F0AFB80022E1
:103200001146FFF71DBC70B50446FEF71DFF0646CC
:10321000FEF704FF05463046FEF700FF431BA342BE
:10322000F9D370BD70B51446054618462368049A54
:103230006FF00046B34206D232B1114608F052FC9C
:10324000431C05D1206070BD15B18B4238BFE854D6
:10325000236801332360F6E72DE9F04F2DED028B53
:103260008DB007469DF870309DF868B0039388468E
:1032700091460021142207A8DDE91845069108F0BF
:1032800010FF039B002B14BF30232023BBF1010F41
:1032900008EE103A43D1002D41DA644265EB450552
:1032A000DA4606AB049300230293ABF10203DBB2D0
:1032B0000593059B012B5BD8BBF1020F04F00F03B4
:1032C0000CBF364A364A2409D25C44EA05742D09FB
:1032D000049B03F8012B0493029B5E1C54EA050334
:1032E00044D1BAF1000F24D0039B3BB11D9B009346
:1032F0004A462D2341463846FFF794FF029E1B9B0A
:1033000002369E421ADB039B3BB91D9B00934A4643
:103310002D2341463846FFF785FF013E1FE054EA62
:10332000050302D04FF0000ABBE730238DF81830B8
:1033300001261B9B9E4212DA4FF0000A1D9B009350
:103340004A4618EE103A41463846FFF76BFF1B9B82
:10335000013BB3421B93F1DCBAF1000FD3D106ACB1
:103360008EB90DB0BDEC028BBDE8F08F0296A0E7E0
:10337000204629460A22002309F07AFA3032D2B2D6
:1033800004460D46A4E71D9B0093013E4A46A35DFB
:1033900041463846FFF746FFE2E700BF02DF000084
:1033A00012DF00002DE9F04F8BB01C460023DDF842
:1033B000508009930E461746A2B1994212DB0CBF0A
:1033C000012301F1FF3606934FF0000B17F80B3085
:1033D00063B9099B30B1069A22B9B3428ABF069BF2
:1033E000C254835509980BB0BDE8F08F252B40F0EF
:1033F00042810BF10103FA5C2D2A09D0203AD2B2A6
:103400000B2A07D840F6090121FA02F2D20701D5AA
:103410000BF10203FA5C2A2A1DD100215A1C043444
:103420008E46BD5C2E2D07EB02033AD15D782A2D26
:103430002BD04FF0000CC7F1010A0AEB030213F87E
:10344000015F303D5FFA85F9B9F1090F20D80A22F2
:1034500002FB0C5CF1E7302A14D10133FA5C302A0C
:10346000FBD04FF0010E3B440021DA1B13F8015B47
:10347000303D5FFA85FCBCF1090FD2D80A2202FB6D
:103480000151F2E74FF0000EEDE754F804CB0232A1
:10349000BB5C682B08D1BD186D78682D0AD17223EA
:1034A0000EE06FF0004CF3E76C2B03D1BD186D7884
:1034B0006C2D2FD04C3BDBB22E2B2DD8734DEB5CFB
:1034C00003F00F0A924417F80A90B9F1640F3FD045
:1034D000B9F1780F00F2C180B9F16F0F1ED8B9F1C0
:1034E000630F76D0B9F1690F32D0B9F1580F40F0BF
:1034F000B480822B53D1073424F007042546626838
:1035000055F8083B0391B9F1750FCDE904E859D19D
:1035100000212AE08223D3E70023D1E7A9F170023A
:10352000082A00F29A8001A555F822F01936000009
:103530005B3600005B360000EB3500005B360000B8
:10354000F33400005B3600005B360000F33400000B
:10355000822B13D1073424F007042546626855F8FE
:10356000083B0391CDE904E80121CDE90032029145
:1035700009AA31460790FFF76FFE34E02546112B6C
:1035800055F8042B07D0722B15BF134653B2DA1728
:1035900042F3C012E5E713B242F3C032E1E7254639
:1035A000512B55F8042B0AD0722B04D0112B04D0C8
:1035B00013460022A6E7D3B2FBE793B2F9E713461E
:1035C000D2179FE7B9F1580F01D10321CDE70221AE
:1035D000CBE7254609AA15F8043BCDF80080314613
:1035E0000790FFF71FFE079808E0254655F8044BA3
:1035F00004EB0C0923780BB14C4503D10AF1010B04
:103600002C46E3E6CDF8008009AA31460790013444
:10361000FFF708FE0798EDE72546302355F8044BE1
:10362000CDF8008009AA31460790FFF7FBFD079807
:10363000CDF80080782309AA3146FFF7F3FD002377
:10364000CDE9033303230293E317CDE90043079841
:10365000CDF8148009AA31468DE7CDF800802523E6
:1036600009AA314607902546FFF7DCFDB9F1250F81
:1036700018BFDA46B7E7CDF8008009AA31460790AF
:103680002546FFF7CFFDDA46ADE700BFD3DE0000E9
:1036900013B500240094FFF785FE02B010BDFFF7BC
:1036A000AEBDFFF7ACBD00207047002070472DE98C
:1036B000F0411E4603689B6A1446DDE9067805461C
:1036C000984702460B462046314609F0D1F813438D
:1036D00002D00020BDE8F0812B6828469B6A9847FD
:1036E00002460B463846414609F0C2F81343F0D172
:1036F0002B68E4199B6B284646EB08069847A042C6
:10370000B1412CBF01200020E4E72DE9F0411E4625
:1037100003685B6A1446DDE9067805469847024669
:103720000B462046314609F0A3F8134302D000208F
:10373000BDE8F0812B6828465B6A984702460B4635
:103740003846414609F094F81343F0D12B68E41948
:103750009B6B284646EB08069847A042B1412CBF18
:1037600001200020E4E72DE9F0410168096B1446CF
:103770001D46DDE906780646884702460B46204688
:10378000294609F075F8134302D00020BDE8F08106
:103790003368E41945EB0805621E196B304665F184
:1037A0000003884702460B462046294609F060F888
:1037B0001343EAD1336830469B6B9847A042A94136
:1037C0002CBF01200020E1E7012000217047D0F844
:1037D000C0000021704790F8743113B1D0E91C018A
:1037E0007047002000217047FF2070470048704755
:1037F00022DF000010B504461946104604F16802A5
:1038000000F0ECFD431CD4F8C01009D023180122AD
:1038100093F8B4000023104205D04A3354F8231023
:103820000846002110BD01335200042B52B2F2D1E0
:10383000F6E72DE9F003D0E901140568069E67104C
:1038400005EB6400DDE90889E40744BFEC596158E1
:103850000696CDE90889BDE8F003084737B5054667
:103860000446194845F8040B4FF000008DF8040099
:103870009DF9180000902846FDF7DAFF0023032287
:103880000821C4E95821C4E95A3100200021C4E9C3
:103890001C014FF0FF31A1670121C4F888102846B0
:1038A000C4E917330799C4F85031C4F8703184F86B
:1038B0007431C4F8C03084F8B430A265FDF7FDFF60
:1038C000204603B030BD00BF30DF000084B0F0B54B
:1038D0009BB00446259E21A880E80E0072682499BA
:1038E0000023CDE9022306AF0097326888470546DA
:1038F00038B14FF0FF3528461BB0BDE8F04004B0AA
:10390000704704F168013846059100F0C3FD0028B6
:10391000EFDB0599384600F0B6FD0028E9DB03220D
:103920000223C4E91623202323667168384600F079
:10393000EAFC3146C4F85001384600F0EFFC00289C
:10394000D7DB33692366C4F86451D4E710B586B079
:103950000446684680E80C0006A800E90C000391C4
:1039600010E90700034BE36084E80700204606B037
:1039700010BD00BF333800002DE9F74F051DD0F80A
:103980006C710191044628461646DDE90CBADDE962
:103990000E98FDF7BAFF01992846FDF7DDFFD4F830
:1039A0006041013CFF08E400002C0FDA0024BC4217
:1039B0001ED100242746474508BF4C451ED1284646
:1039C000FDF7B8FF002003B0BDE8F08FC4F120027E
:1039D000A4F120032BFA04F10AFA02F211432AFAA5
:1039E00003F31943C9B22846FDF7B6FF083CDBE7ED
:1039F00000212846FDF7B0FF0134D8E70021284612
:103A0000FDF7AAFF3055013447F10007D3E7000066
:103A1000F0B51E4690F8743185B004460D46174641
:103A2000E3B11048FDF7C8FBD4F86431C4F86C3139
:103A3000DDE90A23CDE90076CDE90223A16D2A460E
:103A40002046FFF799FFD4F86831C4F86C31054679
:103A50000448FDF7B1FB284605B0F0BD6FF47A6568
:103A6000F9E700BFF005002030B585B0DDE90A4573
:103A70000821C0F86C11CDE90023CDE90245089A70
:103A80005A21FFF779FF05B030BD2DE9F74F051D2D
:103A9000D0F86C710191044628461646DDE90CBA4F
:103AA000DDE90E98FDF731FF01992846FDF754FF37
:103AB000D4F86041013CFF08E400002C0FDA002438
:103AC000BC421ED100242746474508BF4C451ED1A5
:103AD0002846FDF72FFF002003B0BDE8F08FC4F1AA
:103AE0002002A4F120032BFA04F10AFA02F2114396
:103AF0002AFA03F31943C9B22846FDF72DFF083C03
:103B0000DBE700212846FDF727FF0134D8E7315DC8
:103B10002846FDF721FF013447F10007D4E72DE9DE
:103B2000FF41051DD0F86C810391044628461746D5
:103B30001E46FDF7EAFE03992846FDF70DFFB6F194
:103B4000FF3F08BFB7F1FF3F0AD0D4F86041013C06
:103B5000E400002C13DA4FEAD8080024444520D1B1
:103B60000D9B0A9900932846DDE90B23FDF705FF1D
:103B70002846FDF7DFFE002004B0BDE8F081C4F167
:103B80002002A4F1200327FA04F106FA02F21143FD
:103B900026FA03F31943C9B22846FDF7DDFE083CB7
:103BA000D7E700212846FDF7D7FE0134D6E700000D
:103BB0007FB506461248FDF7FFFA96F874413CB906
:103BC000C6F870410E48FDF7F7FA204604B070BD04
:103BD000D6F87051013DC6F870517DB9CDE9025556
:103BE000CDE900554FF0FF324FF0FF33042130464E
:103BF000FFF795FF86F874510446E3E70024E1E7F8
:103C0000F00500201FB5002422F47F62CDE90244B4
:103C1000CDE9004422F00F022346FFF780FF204643
:103C200004B010BD2DE9F04186B0054642F2107493
:103C300001270DF1140800260120FFF732FD4FF097
:103C4000FF33CDE90287CDE900664FF0FF32052151
:103C50002846FFF764FF9DF81430DB0705D5013CCB
:103C6000EAD1204606B0BDE8F0810120FAE730B580
:103C700087B001220023039205AACDE90132ADF8F5
:103C8000143000934FF0FF324FF0FF33052105460B
:103C9000FFF745FF00BBCDE90200CDE900004FF082
:103CA000FF324FF0FF3366212846FFF738FF98B9FF
:103CB000CDE90200CDE900004FF0FF324FF0FF33B5
:103CC00099212846FFF72BFF041E18BF0124284620
:103CD0006442FFF7A7FF08B94FF0FF34204607B052
:103CE00030BD30B5002387B0CDE90233CDE90033D4
:103CF0004FF0FF324FF0FF3306210546FFF70FFF6D
:103D0000044618B14FF0FF3007B030BD2846FFF72A
:103D100089FF0028F6D00123039305ABCDE90143C9
:103D200000944FF0FF324FF0FF3305212846ADF8E5
:103D30001440FFF7F4FE0028E4D19DF8140080F051
:103D4000020040F34000DFE72DE9F04F1F4690F8F6
:103D5000743185B0DDE90EB906468846154633B1A3
:103D6000DFF88CA05BEA090307D1002401E06FF4BF
:103D70007A64204605B0BDE8F08FD6F850410023A4
:103D800022462846394608F073FD1BEB020149EB39
:103D90000303A14273F1000315482CBFA41A5C462B
:103DA000FDF70AFA3046FFF79CFFC8B9CDE902409B
:103DB000CDE900574246F16D3046FFF766FE2D19FA
:103DC000A04447F100073046BBEB040469F1000949
:103DD000A346FFF727FF40B15046FDF7EDF9C1E7D5
:103DE000044C0348FDF7E8F9C3E7034CF9E700BFCB
:103DF000F00500205CF0FFFF5DF0FFFF2DE9F04FC4
:103E00001E4690F8743189B0DDE9127904461546F2
:103E1000002B00F08E8000F168023146284600F049
:103E2000DDFAB0F1000803DA434809B0BDE8F08FCD
:103E300004EB080315EB070A93F8B4300593D4E9B3
:103E40001C2346EB090B524573EB0B03ECD32368A1
:103E50002A46196B20463346884702460B462846B9
:103E6000314608F005FD1343DED123681AF1FF3215
:103E7000196B20466BF10003884702460B465046FB
:103E8000594608F0F5FC1343CED104F18003DFF866
:103E9000ACB0069357EA090301D10020C5E7069BA1
:103EA0000598CDE902833A464B46CDE9005600F02D
:103EB000B3FA04EB8000D0F81811D0F828A10791CC
:103EC0005846FDF779F92046FFF70BFF60BBCDE9B7
:103ED000007933462A4607992046FFF793FE1AEBEE
:103EE000050546F10006B7EB0A0A69F100095AEA2E
:103EF0000903574610D008F1190304EBC30154F825
:103F000033204B68AA42B3413FBF08F1010804EBDC
:103F1000080393F8B43005932046FFF783FE18B1E9
:103F20005846FDF749F9B5E70448FDF745F9044857
:103F30007BE76FF47A6078E75BF0FFFFF005002025
:103F40005DF0FFFF30B587B00323039305AB029309
:103F50000023CDE900334FF0FF324FF0FF339F21B4
:103F60000546FFF7DCFD0446A0B99DF81430BF2BD1
:103F70000ED12846FFF7B5FECDE90244CDE9004455
:103F80004FF0FF324FF0FF3398212846FFF7C7FD6F
:103F9000204601E04FF0FF3007B030BD2DE9F0477B
:103FA000044692B04548FDF707F994F874310BB90F
:103FB000C4F87031D4F870710137012FC4F87071F2
:103FC00007D000253D48FDF7F7F8284612B0BDE8B8
:103FD000F0872046FFF74BFE013002D16FF47A657F
:103FE000F0E72046FFF7AEFF0028F7DB2046FFF79B
:103FF00019FE00285FD0DFF8D4A00025CDE90EA57A
:104000000DF118080EAE96E80C002146C4E91A55C9
:10401000C4E92055404604F16809FFF797FCCDF844
:10402000009098E80F0000F0ACF8A84201DA244DA7
:10403000C8E7CDE90EA50DF1280896E80C00214649
:104040004046FFF783FC0D9BCDF80490009398E861
:104050000E002046FFF73AFC0028E8DB2B465246CC
:1040600021463046CDE904A5FFF770FCCDF800905D
:1040700096E80F0000F0C5F80028D8DBD4F86831C6
:10408000C4F86C31D4E91C130E4A84F8747191425F
:1040900073F1000395D34FF0FF33CDE90255CDE91D
:1040A00000554FF0FF32B7212046FFF738FD0423BB
:1040B000C4F8603186E7044D84E700BFF0050020B6
:1040C0005EF0FFFF010000015DF0FFFF693A0000B4
:1040D00038B50546054B45F8043B0446FFF768FD37
:1040E0002846FDF711FB204638BD00BF30DF000039
:1040F00010B50446FFF7ECFF20464FF4BC71FFF704
:104100004BF8204610BD000010B5074904220446B4
:1041100007F088FF28B96379012B02D1A07901301B
:1041200010BD4FF0FF30FBE77CDF00008378012BF0
:1041300024D14268130EFF2B0ED10378812B0DD0B2
:10414000842B12D043B922F07F420A60C2789200D9
:10415000502AA8BF50224A600020704722F07F42B8
:104160008A61C3789B00CB61F6E722F07F42C1F8F9
:10417000D020C3789B00C1F8D430EDE74FF0FF307A
:1041800070472DE9F04D8AB004AE86E80F004FF07D
:10419000080A08AB4FF0000B0093CDE902AB07997A
:1041A000002200233046884700280BDB08A8FFF7D1
:1041B000ABFF051E08DB00270824B846AF4207D135
:1041C000002002E04FF0FF3528460AB0BDE8F08D30
:1041D00008AB0093CDE902AB07992246434630462F
:1041E000884700280ADB129908A8FFF79FFF0028DC
:1041F000EBDB083448F100080137DFE74FF0FF3010
:10420000E3E72DE9F04389B004AF109C87E80F0085
:10421000D4E90232D4F818806362013B42F1FF32E4
:10422000C4E91832B8F1000F65D0E569002D63D0FC
:104230002846FEF7AFFF6B1E0133ACBF2A460022B3
:104240000021064607F02DFF0023CDE90253079910
:104250000096424638468847002851DB337803F001
:104260000303032B02D07378002B49D0B7787B1C53
:104270000A2B236244DC6FF04C0E351D04F1240C34
:1042800004F14C0004F160020F214FF00008AEEB86
:10429000040E2B6815F8049B23F0FF0303F58073CD
:1042A0004CF8043B09F00F09013B434400F8019B23
:1042B0004FEAE378C2E9003803F101080EEB00038E
:1042C0009F4201EA090102F10802E2DC0023A36532
:1042D000012212EA010508D03033002554F82330BA
:1042E000A3653046FEF75AFF06E001335200042B67
:1042F000D2B2EED1F5E74546284609B0BDE8F083D5
:104300004FF0FF35EDE7282981BF90F828300120D4
:104310001B09984098BF4FF480707047F8B54B6800
:104320001C2B04460D4651D901F1B00004F12403C1
:10433000984201F1C00603D204F11C039E4223D827
:104340001022FF2107F0ADFE012305F1D0001F462A
:10435000227F07FA02F2012A46F8042B0CD9617F6A
:1043600046F8141CA96D8A4200D301B9AA6595F8D4
:104370004C201A4385F84C205B008642DBB204F1E6
:104380000204E5D10020F8BD01234FF0FF379C4621
:1043900040F8047B227F0CFA02F2012AC2600BD99A
:1043A000617F40F8041CA96D8A420CD2AA6595F879
:1043B0004C201A4385F84C205B00B042DBB204F17C
:1043C0000204E5D1DEE70029F0D0F0E7407808618B
:1043D000FF284FF0FF3018BF0020D4E7034670B528
:1043E000D2E90240A34271EB000007D2146A2CB15B
:1043F000012C0FD060320020844202DC4FF0FF30ED
:1044000070BDD2E900659E428D4102F10802F7D2EB
:104410000130F1E70020F3E72DE9F74F99460E9BB5
:104420000F9DCDE90002DDE90C6A093305F1A80B07
:1044300003244FF0080805EBC305009B13EA080F9F
:1044400019D05BF8247000233A463046514608F0F4
:104450000FFA13430FD1019BBB4279F100030AD33A
:10446000D5E90001731E4AF1FF32DB1942F1000267
:104470009842914103D2013C4FEA5808DDD22046D0
:1044800003B0BDE8F08F43680133DB080020C1E9C9
:104490000230704783785B075ABF90F90700C01756
:1044A0004FF0FF307047000010B5054B03602C3310
:1044B000044640F8043FFDF7FBFD204610BD00BF59
:1044C0008CDF0000A0F10400EEE700BF10B5044649
:1044D000FFF7EAFF20461421FEF75EFE204610BDDE
:1044E000A0F10400F2E703681A6AC36AD31A1944F8
:1044F000B1FBF2F302FB1311036B8B4210B50AD927
:104500004C09C06B01F01F0150F8243001228A4091
:10451000134340F82430002010BD0368013304D059
:104520004068431C5842584170470120704710B5FD
:104530000B6804689C4209D040684968884205D0ED
:104540008C4203D0181A18BF012010BD0020FCE7D0
:104550002DE9F04F85B0DDE90E46109D03900F4622
:10456000914698460DB9284659E0039B1868B9F161
:10457000000F1ED0D9F8003043451AD1D9F80410E5
:10458000A14216D8836901EB030AA24511D9AAEB0F
:10459000040AAA45D9F8083028BFAA46611A30464D
:1045A0005246194407F04EFD56445444A5EB0A0503
:1045B000D8E73A68436942450ED17968A1420BD8E1
:1045C00001EB030AA24507D9AAEB040AAA45BB6876
:1045D00028BFAA46611AE2E7B4FBF3F203FB1242DA
:1045E000D0F804B08AB99D420FD3B5FBF3FA03FBB0
:1045F0001A5AA5EB0A050095334622464146D8478C
:1046000068B92E442C445546ACE7A21A0093C7F86B
:104610000080BB687A604146D8470028A2D005B028
:10462000BDE8F08F1FB5069C0092CDE90134002251
:104630000B4600F11401FFF78BFF04B010BD0368B7
:104640009B6A10B5044613B9C06907F0E3FC236800
:10465000DB6A13B9A06A07F0DDFC23681B6B23B982
:10466000E06BBDE8104007F0D5BC10BD2DE9F04768
:1046700086B005460F46144600F11409D6184FF0CF
:10468000010A0DF11708A64203D1002006B0BDE8CB
:10469000F0870094CDE9018A3B460022494628462E
:1046A000FFF756FF01340028F0D10E980122414651
:1046B00002F0C0F8E7E72DE9F04F8BB013680493E0
:1046C00000265368059307460C46B0460DF1100BC3
:1046D00006AD4FF0100A5BF82690CDF800A02B46EF
:1046E000002249463846FFF79DFF70B110F1340FA4
:1046F00006D146B1B8F1000F14BF00206FF03300AF
:104700000BB0BDE8F08F0126E5E7B8F1000F04D04B
:10471000E269069B9B1A002BEBDB079B23F000430F
:10472000132BE6D93A68D2699342E2D84FF0FF33AF
:1047300003A810222946039302F07CF8079B03A8E4
:1047400023F000430090103B102249463846FFF703
:104750008DFF0028CAD1039B002BCAD10AAA86F07C
:10476000010302EB830304F11C0C53F8183CC4F85A
:104770000490C4E9023A95E80F004FF001088CE874
:104780000F00B6E7F7B5044604300E461546FFF7AE
:10479000C4FE10B1002003B0F0BD009001236A46B2
:1047A000294620460193FFF786FF0028F3D105F143
:1047B00024073846FFF7B1FE0028EBD131463846D2
:1047C000FFF7B5FE38B13A4629462046FFF773FF9A
:1047D0000028EED0DFE70120DDE72DE9F04F87B0BC
:1047E000DDE9104506468B46174625444FF0010982
:1047F0000DF1170AA3EB0408AC4201D1012011E02E
:1048000008EB04030093CDE901A93B460022594679
:104810003046FFF79DFE28B914F8013B9DF817209C
:104820009A42E9D007B0BDE8F08FF8B5C6690D68C7
:10483000083EB5420F4613D3B5FBF6F0013808F039
:104840002FF8841CA5EB8404B4FBF6F4204608F092
:1048500027F8A5EB800004FB160038602046F8BD61
:104860000020FCE72DE9F04F89B00746DDF84C90B9
:10487000059288464BB94FF0FF32C9F80020149AD0
:104880000020136009B0BDE8F08F0468013B07A960
:1048900020460793FFF7C9FF12A905462046FFF7F8
:1048A000C4FF4FF0040A06460DF1140BAE42059BFF
:1048B00003D3C9F80030129BE1E7AC1BB4FA84F4CF
:1048C00095FAA5F2B2FA82F2C4F11F04944228BF0D
:1048D0001446A2000092CDE901BA002241463846B2
:1048E000FFF736FE0028CDD10123A340ED1ADDE706
:1048F0002DE9F04F8BB09046149ADDF858A005933F
:1049000006460F46002A36D0013A0068079207A9EA
:10491000FFF78BFF059B04460DF1200B194605930D
:104920005046159B9847024628BB24B304F0010566
:10493000C5F102018900CDE901B100904246059B15
:1049400039463046FFF704FE0246A0B9E34303F0C0
:104950000109914507DC0AAB03EB8903023D53F8DB
:10496000083C2C44DAE70899159B504698470122E9
:104970000028EED0024610460BB0BDE8F08F031DB4
:104980001944881870472DE9F74307460C46154629
:1049900001F124094FF01008226AE16822F0004377
:1049A00001F10C00043B98421BD80C2300930A46EB
:1049B0002B1D61683846FFF735FE0646B0B9E7683B
:1049C000EA79A97968792F60FFF7D9FF3844E06068
:1049D000EA79A9796879FFF7D2FFA3691844A06141
:1049E00004E0002A06DB29606FF00106304603B0C0
:1049F000BDE8F0834A4621463846FFF75CFE06468E
:104A00000028F3D1A369C4F80C801433A361C3E771
:104A100070B5054692B004300E46FFF77EFD68BBC8
:104A20000190012301AA07A928460293FFF743FE3C
:104A3000044618B910A8FFF770FD10B1204612B057
:104A400070BD10AA07A92846FFF735FE38B903AA9A
:104A500007A92846FFF797FF18B1831CEAD0044640
:104A6000ECE79DF91030002BF1DB0822314605A858
:104A700007F0D8FA0028EAD10124DFE70024DDE7B7
:104A80002DE9F843054604300F4614461E46FFF74D
:104A900044FD10B10020BDE8F88301235062936209
:104AA00002F1240806F108094046FFF736FD002808
:104AB000F0D1424621462846FFF7FDFD0028EAD105
:104AC000324621462846FFF75EFF10B1831CEBD02B
:104AD000E1E7337903F07003202BF1D139464846E2
:104AE000FFF725FD0028EBD10120D4E72DE9F04F99
:104AF0002DED028B85B01F68029340F622035360B0
:104B00004368936008EE101A8368DFF83C91D36025
:104B1000054614464946384607F0EBFC07EB00080B
:104B200083464946404607F0CBFC0128064608EB81
:104B3000000A05D117F80B302E2B0AD15746E9E7AA
:104B4000022806D102463F49404607F06BFA00288A
:104B5000F4D057464FF0010B4946504607F0C9FCC8
:104B600082444946504607F0ABFC024690B1022809
:104B70000CD103903349504607F054FA039A28B9F0
:104B8000BBF1010B04D10AF10207C3E70BF1010BE2
:104B90009244E1E798F80000002845D0029BC3F852
:104BA00000802379222B49D104F1080A18EE101A4B
:104BB00052462846FFF77FFDB0BB05F1140B18EEF7
:104BC000101A22462846FFF7DEFE68BB237903F061
:104BD0007F03112B01D0222BF1D1E379B342EED127
:104BE0002368627904331344A279CDE90086134423
:104BF00018EE102A594652682846FFF7EEFD0028A5
:104C000012DBDCD095F84130002B83D194F90430CD
:104C1000002BBFF67FAF51462846FFF7F9FE00286C
:104C200007D001DB6FF0010005B0BDEC028BBDE8E1
:104C3000F08F237903F07F0323716BE76FF013008C
:104C4000F2E700BFC0DF000054DC0000C368184773
:104C500010B50C468269A068FF2107F022FA4FF0D8
:104C6000FF33236010BD38B58B6A016004460D46E2
:104C7000CBB1C361EB6A13B3A36204F120012846F0
:104C8000FFF7E6FF4FF0FF33636123681A6BEAB169
:104C9000E26300204FF0FF33C4E90133C4E90300AD
:104CA000A4F8400038BD486907F0ACF9E06100287D
:104CB000E0D12046FFF7C3FC6FF00B00F2E7A869D4
:104CC00007F0A0F9A0620028D7D1F2E7586AC0081F
:104CD00007F098F9E0630028DBD1EAE7F7B50C4666
:104CE00009684B1C0646174621D00068836900936B
:104CF0008568D4E90123A847054628B9336837B940
:104D000030682146FFF7A4FF284603B0F0BD9B6939
:104D10000193A36800933946D4E900233046FFF796
:104D20005CFD002805DBEBD16FF03305ECE70025D7
:104D3000EAE70546E8E72DE9F74F0C9CDDF838A0D7
:104D400007460D4691469846BAF1000F03D15046EA
:104D500003B0BDE8F08F2B6838684345826929D1DC
:104D60006B68A34226D803EB020BA34522D9ABEB19
:104D7000040BD345A4EB0300AB680D9928BFD346C1
:104D80005A46184407F05EF90D9B5B440D933B684F
:104D90009A695C44B4FBF2F302FB1343AAEB0B0BDE
:104DA00033B94A4629463846FFF798FF0028CFD145
:104DB000DA46C9E7B4FBF2F302FB13434BBB92455F
:104DC00027D3BAFBF2F302FB13ABAAEB0B0ACDF825
:104DD00000A0836822461E4641460D9BB04700282E
:104DE000B6D1B9F1000F04D10D9B53440D93544437
:104DF000DEE70D9B0093CDF804A0234642464946CA
:104E00003846FFF7EAFC0028A2DBEDD16FF0330053
:104E10009EE7E31AC5F800806B60D346C8E730B55B
:104E200043684B6087B0836801928B6002AA01AB34
:104E300005460C46FFF75AFEA0B99DF80C30222B10
:104E400012D104AA21462846FFF735FC50B9636801
:104E50002361A36863610E23A3611023E3602B69C0
:104E600023602C6107B030BD6FF01300FAE70369CF
:104E700000F110021BB18B4203D11B6813600020AC
:104E800070471A461B68F5E770B50D46144686B0A4
:104E900006464FF484720021204607F002F9AB6900
:104EA0000E2B0CD12046222300F8083B274907F09F
:104EB000FFFAAB690133AB61012006B070BD0F2B67
:104EC00005D12046222300F8083B2149EFE702AA3A
:104ED00029463046FFF757FD18B1821C08BF002055
:104EE000EBE79DF80C3003F07F02112A01D0222A53
:104EF000EDD11B060CD504A93046FFF789FD00282B
:104F0000DBDBE4D19DF80C3003F07F038DF80C302F
:104F10009DF80C302370112B08BF059B029A08BF27
:104F200063609DF80D309DF80E1004321A449DF810
:104F30000F3000930A4404F1080369683046FFF714
:104F400071FB002808BF0120B7E700BFC1DF0000E8
:104F5000C0DF00008869704710B501F110020C46EF
:104F6000FFF7A9FB38B9236963606369A3600E2367
:104F7000A3611023E36010BD2DE9F04107460C4604
:104F80001546FFF7E9FF064640B9A56104F124087C
:104F9000216A21F00043AB4203D3E5603046BDE80F
:104FA000F0810029A5EB030508DA42462146384680
:104FB000FFF781FB0028EBD00646EFE76FF0150600
:104FC000ECE7086A7047CB6948699B0303D50B6A15
:104FD000984238BF1846704770B594B01546039193
:104FE00003AB05AA09A90646FFF780FD0446C0B930
:104FF00001464FF48472284607F053F89DF81830A4
:105000002B70112B04BF089B6B60311D07A8FFF7A5
:105010008EFA05F10803044630B90C49184607F02A
:1050200047FA204614B070BD059A9DF819109DF8F6
:105030001B00009004320A449DF81A1030460A44BE
:105040000A99FFF7EFFA0446EBE700BF54DC0000D3
:1050500030B599B00546FFF706FE044658BB2B68ED
:1050600068631B6AAB63C5E90B000290012302AAC7
:105070000DA928460393FFF71EFB044600BB20231F
:1050800000930E9905AB10222846FFF7CBFA044691
:10509000B0B9069B6B60079B0D49AB6008220BA85B
:1050A00006F0C0FF044648B90A9B1A0C012A0BD12E
:1050B0009BB2012B08D8204619B030BD6FF03304E5
:1050C0002846FFF7BCFAF6E76FF01504F8E700BFD3
:1050D000C3DF000008B5FFF7B2FA002008BD2DE9D4
:1050E000F047064696B004300F469046FFF715FA93
:1050F00000287FD101230590069305994046B847C3
:10510000044620BB06994046B8470446F8B905AAAC
:105110000BA93046FFF7CFFA0446C0B94FF00C0A8E
:10512000139BDDF8389023F0004309F10C02043B97
:105130009A4210D9149B059305A8159B0693FFF777
:10514000ECF90028D9D0F56806F114096DBB2046AA
:1051500016B0BDE8F0870C99CDF800A008AB4A4620
:105160003046FFF75FFA0546002841D19DF823201D
:105170009DF822109DF82100FFF701FC9DF82030DA
:1051800003F070034844102B0E90C9D10A9B009382
:10519000CDE90178099B2A4606F114013046FFF754
:1051A000A7FB0028BCD00446D1E7EB69DA0311D491
:1051B000EB699B030CD5CDE901782B6A00936B6AF0
:1051C00005F12C0249463046FFF792FB0028EAD150
:1051D0002D68BBE7CDE901786B6900932B6905F178
:1051E0002C0249463046FFF783FB0028E0D0DAE77F
:1051F0000446ACE70024AAE7F8B52D4E04460D4658
:105200000127236BD4E90D0198421DD100294BD011
:10521000E06A22680344106A526A8A4294BF226399
:105220002163B3FBF0FC002100FB1C336163D20857
:10523000E06BE36206F035FF224631462046FFF779
:105240004EFF0028DDD026E0421C62630139E26B8C
:10525000A1634FEA501C00F01F0152F82CC007FA5E
:1052600001F111EA0C0FCDD12168E36A096A034408
:10527000B3FBF1F001FB10332B60266B0125636B50
:10528000B3420FD0590903F01F0052F8211005FA5C
:1052900000F0084000D1F8BD01336363A36B013B0C
:1052A000A363ECE70020F6E76FF01B00F3E700BF15
:1052B000E744000073B50C4604310646FFF79CFF37
:1052C0000546F0B904F108013046FFF795FF0546A1
:1052D000B8B9042300930246616804F11C03304608
:1052E000FFF7A0F910B110F1340F0DD1E3690133CC
:1052F000E36114224FF0FF33C4E90823A3621023B3
:10530000E360284602B070BD0546FAE72DE9F04F8C
:10531000044687B00E4600F1140B05A92046FFF79E
:105320006BFF054658B9DDF8149020684946FFF731
:105330008DFC054600283CD010F1340FEDD02846F6
:1053400007B0BDE8F08F01230DF113070293CDE9FB
:105350000087736A524659462046FFF7F9F878B934
:105360000123CDE90173CDF800804B465A4604F184
:1053700020012046FFF7DFFC20B110F1340FCCD024
:105380000546DCE708F10108B36A4345DBD823682A
:10539000A16A9A69706B06F055FE236AF362636A2C
:1053A0002068336304F12001FFF752FCC6F8249013
:1053B000C5E7804606F12C0AE6E72DE9F04F8FB0ED
:1053C000CDE90523CB6903F00302012A05460C460B
:1053D00000F020815E0315D4E66932051BD4276AEC
:1053E000069BDF4200F1198116F4003619D0DDF872
:1053F0001880E369B8F1000F25D123F40023069A41
:10540000E36104E000F00CF902460028E4D0104605
:105410000FB0BDE8F08F6269216A8A4288BF2262BC
:10542000DDE763699F42E2D923620DAA0123214689
:1054300028468DF83460FFF7C0FF021EE7DB236AC1
:105440009F42F2D8D3E79B0304F12C0623D52B68A7
:10545000A26ADB699A4240F09B802B681B6AAB63AF
:10546000D4E90832CDE90B2305F1140A0DA9284629
:10547000FFF7C2FE024608BBDDF8349028684946B3
:10548000FFF7E4FB024618B312F1340F16D14FF0C8
:10549000FF332B62EAE7236A002BDED004F12802F7
:1054A0000292013B04F12402019200933146D4E9B7
:1054B00004232846FFF7D6F9024620B1E36943F4F6
:1054C0000023E361A3E728683146FFF7C1FBC4E787
:1054D0000C9B2F680790002B54D0013B0CA9384639
:1054E0000C93FFF7A2F90C9BF969079A01338B42E1
:1054F0000C936FD1013090FAA0F3B3FA83F30893C1
:105500000133099393460BAF4FEA8B0307930423B0
:10551000CDE90173079B009352464B46314628461E
:10552000FFF709FC0B9B02460028ADD108995945AD
:1055300054D1099B0BF1010B5B45E5D8099B9B00FE
:1055400020E00123CDE9017300220B9BCDF800B0D0
:1055500051462846FEF7FCFF02460028AED1012343
:10556000CDE901735246CDF800B04B46314628468E
:10557000FFF7E1FB0246002886D10BF1010B0C9BE3
:105580009B45DED3C4E90993E36943F40033E36147
:10559000A94659F8143BDF69A36AFF1A474528BF9B
:1055A0004746059B0193A36A00934A46636A0297A4
:1055B00031462846FFF7BFFB0246E0B110F1340F39
:1055C0007FF47CAF21462846FFF7A0FE0246002864
:1055D000E7D073E793460DF12B07D0E70421CDE91F
:1055E00001710799009128465146FEF7B1FF024626
:1055F00000289ED062E7236A3B442362A36A3B44AF
:10560000A362059B3B4405932B681B6AAB63A8EB25
:105610000708EEE66FF00802F9E66FF01A02F6E608
:10562000CB695A032DE9F04144BF23F48023CB61B9
:10563000CB6948BF4FF0FF32054648BFCA6213F43A
:10564000003090B00C462CD00F6A2C22002102A80A
:1056500005F1140606F025FD2369069396E8070078
:10566000636907930123CDE9093710AB03E907000C
:105670004FF0FF38C5F81480226A63699A4213D349
:1056800004F12C08324641462846FFF727FB18B3A1
:1056900010F1340F05D121462846FFF737FE0028C8
:1056A000F0D010B0BDE8F08101230DF1070202A98E
:1056B000284600F01DF80028F3DB01230DF1070256
:1056C00021462846FFF779FE0028EADB6B690133A3
:1056D000D2D0CDF83480CDE7636A2361236A636159
:1056E000E36923F4003343F48033C4E90737D8E790
:1056F0002DE9F04F1D46CB69904603F00302022AC4
:1057000087B007460C4654D09A0305D4236A6669CD
:10571000B34208D3002003E0FFF782FF0028F5D052
:1057200007B0BDE8F08FF61AAE4228BF2E46B1464C
:1057300004F12C0104F1280A04F1240BB9F1000F43
:1057400001D13046ECE7E3695B0304D53B68A26A0C
:10575000DB699A4210D1236A0093CDE901BAD4E9FA
:10576000042338460591FFF77DF80028D8D1E36976
:10577000059943F48023E3613A68A36AD5690093ED
:10578000ED1A4D4528BF4D46CDE90185636A059167
:1057900000223846FEF7DCFE0028C1D1236A0599B5
:1057A0002B442362A36A2B44A362A844A9EB0509F6
:1057B000C4E76FF00800B3E770B50D4614461E4607
:1057C000FFF72EFF70B92B6A36B1012E01D11C44B0
:1057D00002E0022E07D01C46002CA6BF2C622046F9
:1057E0006FF0150070BD6B69F1E72DE9F041CB69F1
:1057F00003F00303012B86B005460C46164643D042
:10580000FFF7E1FB90421AD92846FFF709FF98B944
:1058100005AB029304F11003CDE900630590D4E9D0
:10582000042304F12C012846FFF71CF820B9E36992
:10583000666143F48033E36106B0BDE8F08126D2AF
:105840000F6AB8420DD14FF00008236AB34210D35B
:1058500000233A4621462846FFF7AEFF00EAE070F3
:10586000EAE7022300222846FFF7A6FF0028EADA2B
:10587000E2E7012305AA214628468DF81480FFF7A8
:105880009CFD0028E1DAD7E76FF00800D4E700209C
:10589000D2E7F0B5012680F84060A7B00446043096
:1058A000FEF73BFE0546002879D101462C2205A8CB
:1058B00006F0F7FB4FF000432822294610A80D936D
:1058C00006F0EFFB1A9623681B6A9D4202D36FF025
:1058D000330020E019A8FEF720FE00285FD119AAA6
:1058E00010A92046FEF7E7FEA8B90D9B002B34DB7C
:1058F00001AB1BAA0EA92046FFF7C2F800280ADB5D
:105900000BD1199B0E931A9B0F9300231A4605A9DE
:10591000204600F046F827B0F0BD039A0E99049B8C
:105920000F988A4201D1834217D0824201D1994215
:1059300013D00E92E8E79DF97030002B0DDA1DA907
:105940002046FFF765F80028E5DB1BD01BAA10A94D
:10595000204600F046FA0028DDD11BAA10A92046F7
:10596000FFF711F80028E6D0831CD4D110AF0FCF79
:1059700005AE0FC60FCF0FC697E80700013586E8C2
:105980000700A0E79DF8703003F07F038DF87030BA
:105990001BAA034610A9204600F047F9DBE70020C8
:1059A000B9E72DE9F04F2DED028B9BB00D46079323
:1059B000CB6904920133CB610B1D08EE103A064609
:1059C0004B68079889680593C5E9011302EB001439
:1059D00013469C4214D1059B0A9300230991069318
:1059E00069683068FFF732F9044688B114F1340F62
:1059F00000F0E18020461BB0BDEC028BBDE8F08FCB
:105A0000D8682A6A02445868121A2A621033E0E7FA
:105A100005F11C084FF0FF33102241460BA806F198
:105A2000200A10270B9300F005FF00942246CDE9D1
:105A300001876B6851463046FFF77DF90446002820
:105A4000D4D18346B84629E0079B9B4580F28F80DE
:105A5000049A4FEA0B1302EB0B19D358434540F05D
:105A60008680D9E902120BA800F0E4FED9F80C30C8
:105A70000293D9F808300022CDE9007351466B68D3
:105A80003046FFF758F904460028AFD1D9F8043062
:105A90009844D9F80C300BF1010B1F442B6A23F00A
:105AA0000043043BBB42CFD804230DF12C080293E2
:105AB000CDE900786B68002251463046FFF73BF98C
:105AC0000446002892D14FF0FF33024673615146DD
:105AD0003046FFF703F90446002887D13068036990
