:10000000000001200D6E0000456E0000FD24000080
:10001000496E0000092500000F25000000000000C7
:100020000000000000000000000000004F6E000013
:10003000516E000000000000536E0000556E00007D
:10004000576E0000576E0000576E0000576E00009C
:10005000576E0000576E0000576E0000576E00008C
:10006000576E0000576E0000576E0000576E00007C
:10007000576E0000AD980000576E0000576E0000EC
:10008000576E0000576E0000576E0000576E00005C
:10009000576E0000576E0000576E0000576E00004C
:1000A000576E0000576E0000576E0000576E00003C
:1000B000576E0000576E00000000000000000000B6
:1000C000576E0000576E0000576E0000576E00001C
:1000D000576E0000576E0000576E000010B5054CBB
:1000E000237833B9044B13B10448AFF300800123E4
:1000F000237010BDB8020020000000009CE3000047
:1001000008B5034B1BB103490348AFF3008008BD9A
:1001100000000000BC0200209CE30000A3F5803A30
:10012000704700BF174B002B08BF134B9D46FFF7CE
:10013000F5FF00218B460F461348144A121A0BF0A4
:10014000BCFF0E4B002B00D098470D4B002B00D06E
:1001500098470020002104000D000D48002802D01F
:100160000C4802F061FE0BF0CBFE2000290003F0EA
:100170006FF802F056FE00BF00000800000000000B
:100180000932000000000120B8020020681300209E
:10019000292E0000000000002DE9F04F00F5927AB2
:1001A00087B002EBCA03DFF880B1019307460C4623
:1001B00016464FF00008D4E90035AB426FD3002D4E
:1001C00040F09680002007B0BDE8F08F0133236037
:1001D000F1E7981C85424ED3634406EBC70193F8C0
:1001E00001C0D1F82029D1F824391CEB020243F1D7
:1001F0000003C1F82029C1F824392060DBE7D81CAE
:10020000854238D3634406EBC7019A7893F801C05E
:100210004CEA022CE5E7991D8D422CD3634406EB92
:10022000CA00DA789D78120442EA05225D782A43F2
:100230001D795B7942EA056246F83A204360216005
:10024000B9E7002E69D000EBC0013144F42891F8E1
:100250001C90D1F81D20D1F8211008D9B9F1000F58
:1002600005D10BEB0002002112F8F59C0A4603EBC6
:10027000090E754502D24FF001089CE762B10133C7
:1002800063440493019B8DF80C008DF80D70059369
:100290008DF80E9003A8904723684B4497E7B8F178
:1002A000000F8CD1D4F810C01CF8030000288DD0AA
:1002B000F428C6D9A0F1F5020A2AC2D801A151F842
:1002C00022F000BFD3010000FF0100001702000070
:1002D000430200004302000043020000D30100007B
:1002E000FF0100001702000043020000CD010000E2
:1002F000AB4215D8EB1A6360002B3FF463AF0022CA
:1003000004E021692068CD18285CC854616893B264
:10031000994202F10102F4D854E74FF0FF3052E75E
:100320006FF001004FE700BFCCCB00000BB100F035
:10033000A9B94FF0FF307047F0B58BB000260746E3
:100340000D4604961446002A00F08D80002800F027
:100350008A80002900F08A800A4631460BF0ADFE03
:1003600021460DF10F00CDE90566CDE90857079646
:1003700000F0CDFA002838D19DF80F300690EBB18F
:10038000980703F0060203D4042A01D0079B83B127
:1003900006980899099D009400230593091A07AB54
:1003A00004AA284400F008FBF8B9069B049A1344F9
:1003B0000693224605A90020FFF7EEFE079B0022C8
:1003C00013B113460028DBD09DF80F30069213B905
:1003D000079A002302B150B1002306939DF80F3015
:1003E00013B9079A002302B108B30BB0F0BD190787
:1003F00003F0180203D4102A01D0079B8BB1069892
:100400000899099D009400230593091A07AB04AAD3
:10041000284400F0DDFA0028E7D1069B049A134433
:100420000693224605A90120FFF7B6FED0E75B063A
:1004300001D4079B8BB106980899099D009400236D
:100440000593091A07AB04AA284400F054FB0028BE
:10045000CBD1069B049A13440693224605A9022099
:10046000FFF79AFEBDE74FF0FF30BEE76FF00500E3
:10047000BBE709B100F02EBA4FF0FF30704709B169
:1004800000F02EBA4FF0FF30704709B100F039BAD2
:100490004FF0FF3070471FB50023039351B1009117
:1004A00003AB0146202240F21F1000F0C1FA05B054
:1004B0005DF804FB4FF0FF30F9E70AB100F028BB0C
:1004C0006FF00100704710B423B118B15DF8044B10
:1004D00000F072BB4FF0FF305DF8044B704707B57A
:1004E0000B468DF8070041B101220DF107010720ED
:1004F00000F026F903B05DF804FB4FF0FF30F9E798
:1005000007B50B468DF8070041B101220DF1070137
:10051000062000F015F903B05DF804FB4FF0FF3042
:10052000F9E708B100F017BA4FF0FF3070472DE936
:10053000F7430C9F0193DDE90A8904460D461646F0
:1005400097B140F63812002138460BF0B6FD019BFA
:10055000CDF82880324629462046CDE90B9703B0D6
:10056000BDE8F04300F072B84FF0FF3003B0BDE8D3
:10057000F0834BB141B100EBC00003440020C3F84D
:100580001D10C3F8212070474FF0FF30704770B541
:10059000044690B000284BD0014608A8FFF77BFF27
:1005A00000283ED1012525772E4610ABC5F3C401A6
:1005B000194405F0070306FA03F211F8203C134032
:1005C000E8B230D0224601A900F036FB38B99DF8D8
:1005D000182052B304F11C0305EBC5015A54F42D45
:1005E00002D001350028E0D001231226042506217F
:1005F000032284F8133984F8E6680223002684F87D
:100600000A5984F8011984F8F82884F8EF3884F836
:10061000DD6884F8D45884F8CB1884F8C22884F8AC
:10062000B93810B070BD1846D9E76FF00700DBE7A6
:100630004FF0FF30F5E70B4629B120B1014601220A
:100640002E20FFF773BE4FF0FF30704730B5059C8A
:10065000039DA4B199B192B18BB1207315F0030041
:1006600018BF25F00305C4E90012A36018BF0435C4
:10067000049B23611ABFA5610020A56130BD4FF026
:10068000FF30FBE738B51C467BB11D686DB161B129
:100690001B7B012B08BF40F080002369A84700287E
:1006A000207518BF6FF0020038BD4FF0FF30FBE738
:1006B0002DE9F74FDDE90C5881460F4614461E46DA
:1006C000B8F1000F39D0002937D0002B35D0A5B3B1
:1006D0002B68D8F818A00BBB4346022201A9FFF7EC
:1006E000D1FFBDF804302B602A68A2B198B99442BA
:1006F00028BF144634608346544511D8002034B1D5
:100700004346224607EB0B014846FFF7BBFF2B6829
:1007100032689B1A2B6003B0BDE8F08F0020E3E73E
:100720004346524607EB0B014846FFF7ABFF002854
:10073000E5D1A4EB0A04D344DEE74FF0FF30EAE74B
:1007400038B51C4683B11B6873B169B1237B6568FA
:10075000012B08BF00F07F002369A84700282075FF
:1007600018BF6FF0020038BD4FF0FF30FBE72DE9F6
:10077000F04FC5B08B46509901931646DDE94E32D5
:10078000002900F08C801EB1BBF1000F00F08780C3
:100790001BB10199002900F082805099D1F818907E
:1007A000B9F1000F7ED006EB030A22B31344990778
:1007B0001CBF23F003030433020A02288DF8112022
:1007C0000BBF9A088DF812309B0A1B0A08BF8DF8E0
:1007D0001220B9F5807F8DF813308DF810000AF1E2
:1007E000040328BF4FF48079554604242BB91846DA
:1007F00045B0BDE8F08F5346D9E72B194B4525D9B5
:10080000A9EB0407C8465FB104AA1019BA19AA4295
:100810002AD8019BAAEB05013A4619440BF01EFCAD
:100820003819404506D004ABC0F580720021184449
:100830000BF043FC509B424604A90020FFF780FFC9
:100840000028D5D1ED1B2B460446CFE79A071ABFE7
:1008500023F0030808F104089846B8F5807F28BF04
:100860004FF480782F46CEE70293B542A6EB0503FE
:1008700003930FD9019BAAEB05011944AA1B0BF0A6
:10088000EDFB029B981B731B3B441A4604AB594675
:100890001844C3E7731B5B443A461946BEE74FF062
:1008A000FF30A5E76FF00100A2E708B529B18B681A
:1008B0001BB109699847002008BD4FF0FF30FBE7E6
:1008C0001FB502930023CDE90033FFF750FF05B0B9
:1008D0005DF804FB0B46012201461C20FFF7D2BE47
:1008E00013B50B46044648B1022201A92020FFF7A8
:1008F000C9FEBDF80430238002B010BD4FF0FF30B8
:10090000FAE70B46012201462520FFF7BBBE0B4646
:10091000012201462D20FFF7B5BE73B506464FF400
:100920007A7531460DF10700FFF7F1FF044668B90B
:100930009DF807309B0609D4314642F21070FFF74C
:10094000B4FF30B9013DADB2002DEAD1204602B06E
:1009500070BD0446FAE737B50023054601228DF83D
:1009600007300DF10601034614208DF80620FFF72D
:10097000E7FEF8B103B030BD294642F21070FFF730
:1009800094FF58B92B4601220DF107012520FFF7EE
:1009900079FE18B99DF80730DB06EBD4013CA4B210
:1009A000002CE9D19DF8073013F0100F08BF6FF04D
:1009B0000400DFE71024F1E713B5049CCDE900340F
:1009C00013460A4601460120FFF772FE02B010BD31
:1009D00013B5049CCDE9003413460A4601460220B3
:1009E000FFF766FE02B010BD2DE9F341DDF820806F
:1009F0001546042207460C461E460DEB02014346EF
:100A00000320FFF73FFE68B9BDF80620BDF80430AB
:100A10003B80326032B1AA4207D8434621460320C8
:100A2000FFF730FE02B0BDE8F0816FF00500F9E796
:100A30002DE9FF470C9D1E460023804689469246BD
:100A4000ADF80E30002D53D0002951D0002E4FD0DC
:100A5000336001222B460DF10D010620FFF712FE37
:100A60000446A0BB9DF80D7007F07F03BB428DF8D4
:100A70000D3022D100222B46114648F48050FFF75A
:100A80001FFF044618BB2846FFF747FF0446F0B98E
:100A900000953346524649460DF10E00FFF7A4FF7C
:100AA0000446A0B99DF80D30BB4214D1BDF80E30FC
:100AB000434518BF6FF0040409E02B4601220DF1F5
:100AC0000D010620FFF73CFE04460028D2D0204648
:100AD00004B0BDE8F0872B4601220DF10D01062080
:100AE0008DF80D70FFF72CFE0028DFD00446EEE7EE
:100AF0004FF0FF34EBE713B5049CCDE90034134607
:100B00000A4601460320FFF7D3FD02B010BD0000E6
:100B100070B586B00023814214468DF80930ADF8D7
:100B20000A3043D3030A8DF81130030C8DF81000FE
:100B30008DF81230000E0B0A8DF813008DF8153069
:100B4000080E0B0C8DF814108DF816308DF8170068
:100B5000134604A908220420FFF7B2FE20BB154E5D
:100B60004FF4966521460DF10900FFF7D0FED8B984
:100B70009DF809309B0608D421463046FFF795FEC4
:100B800090B9013DADB2002DECD10022009403AB31
:100B900011460DF10A00FFF727FF28B9BDF80A300A
:100BA0000A2B18BF6FF0680006B070BD6FF001002F
:100BB000FAE700BF20A1070030B501F5FC5491B061
:100BC00004341D4693B388B321B9018846F22B63E0
:100BD00099422ED1230A8DF81930230C00218DF86B
:100BE0001A300423CDE900318DF818400146240E57
:100BF000029506AB05208DF81B40FFF7B8FD98B9AC
:100C00002846FFF78AFE78B92022009507AB0DEB46
:100C100002010DF11600FFF7E7FE28B9BDF8163006
:100C20000B2B18BF6FF0040011B030BD4FF0FF3038
:100C3000FAE76FF00300F7E710B50C468AB0002919
:100C400031D0F52803D96FF001000AB010BD009231
:100C500002AB1C2203A900F54070FFF7E9FE002853
:100C6000F3D1029B1C2BEED19DF80C3023709DF824
:100C70000D30BDF8122063709DF80E30A370E28035
:100C80009DF80F30059AE370A2609DF82030069A17
:100C9000BDF810102375E260DDF82130079AA180BD
:100CA0002261A361D1E74FF0FF30CEE710B50446D3
:100CB00000F087FF204610BD0930C0B209289ABF56
:100CC000024B53F820000248704700BFA8DB000029
:100CD000D7CB00007047704702F0C7BAE22800F295
:100CE0007E81DFE810F0E4007C017C017C017C0166
:100CF0007C017C017C017C017C017C017C017C010C
:100D00007C017C017C01E300E600E800EA00EC00E5
:100D1000EE00F000F2007C01F400F600F800FA00AA
:100D2000FC00FE00000102010401060108010A01A5
:100D30000C010E01100112011401160118011A0113
:100D40001C017C011E0120017C017C017C017C01D5
:100D50007C017C017C017C017C017C017C017C01AB
:100D60007C017C017C0122012401260128012A0149
:100D70002C017C017C017C017C017C017C017C01DB
:100D80007C017C017C012E013001320134013601ED
:100D900038013A017C017C017C017C017C017C01F1
:100DA0007C017C017C013C013E0140017C0142014F
:100DB000440146017C017C017C017C017C017C01B9
:100DC0007C017C0148017C017C014A014C017C01D1
:100DD0004E01500152015401560158015A015C0163
:100DE0005E0160017C017C0162017C017C017C016F
:100DF0007C017C017C017C017C017C017C017C010B
:100E00007C017C017C01640166017C017C017C0128
:100E10007C017C017C017C017C017C017C017C01EA
:100E20007C017C017C0168017C017C017C017C01EE
:100E30007C017C017C017C017C017C017C017C01CA
:100E40007C017C017C016A016C017C017C017C01DC
:100E50007C017C017C017C017C017C017C017C01AA
:100E60007C017C017C016E01700172017C017C01BE
:100E70007C017C017C017C017C017C017C017C018A
:100E80007C017C017C01740176017C017C017C0188
:100E90007C017C017C017C017C017C017C017C016A
:100EA0007C017C017C017C0178017A014D4B184664
:100EB00070474D4BFBE74D4BF9E74D4BF7E74D4B7B
:100EC000F5E74D4BF3E74D4BF1E74D4BEFE74D4B5E
:100ED000EDE74D4BEBE74D4BE9E74D4BE7E74D4B6E
:100EE000E5E74D4BE3E74D4BE1E74D4BDFE74D4B7E
:100EF000DDE74D4BDBE74D4BD9E74D4BD7E74D4B8E
:100F0000D5E74D4BD3E74D4BD1E74D4BCFE74D4B9D
:100F1000CDE74D4BCBE74D4BC9E74D4BC7E74D4BAD
:100F2000C5E74D4BC3E74D4BC1E74D4BBFE74D4BBD
:100F3000BDE74D4BBBE74D4BB9E74D4BB7E74D4BCD
:100F4000B5E74D4BB3E74D4BB1E74D4BAFE74D4BDD
:100F5000ADE74D4BABE74D4BA9E74D4BA7E74D4BED
:100F6000A5E74D4BA3E74D4BA1E74D4B9FE74D4BFD
:100F70009DE74D4B9BE74D4B99E74D4B97E74D4B0D
:100F800095E74D4B93E74D4B91E74D4B8FE74D4B1D
:100F90008DE74D4B8BE74D4B89E74D4B87E74D4B2D
:100FA00085E74D4B83E74D4B81E74D4B7FE74D4B3D
:100FB0007DE74D4B7BE74D4B79E74D4B77E74D4B4D
:100FC00075E74D4B73E74D4B71E74D4B6FE74D4B5D
:100FD0006DE74D4B6BE74D4B69E74D4B67E74D4B6D
:100FE00065E700BF6BDA00001CCC000066CC000097
:100FF000B3CC0000FCCC00005BCD0000A9CD00000C
:10100000FDCD00004ACE000087CE0000ABCE000030
:10101000E3CE000021CF00005ACF000099CF00009E
:10102000DECF000002D000003AD0000075D00000F2
:10103000A0D00000CBD00000EBD0000020D10000F9
:101040003ED1000063D100009BD10000C6D100005A
:10105000EDD1000013D2000035D2000056D20000BE
:1010600070D200008CD20000A6D20000C0D20000D6
:10107000E9D2000049D300006ED3000097D30000EE
:10108000C3D30000EED3000016D400003FD400000C
:1010900075D40000ACD40000D4D4000003D5000007
:1010A00032D5000061D500007CD5000097D5000046
:1010B000C8D50000EDD5000030D6000074D6000081
:1010C000B6D60000E1D60000FAD6000025D7000011
:1010D00051D700007BD70000A9D70000CED7000071
:1010E000F8D700001CD8000049D800006FD80000D5
:1010F00095D80000BED80000F3D8000024D9000025
:1011000058D9000093D90000C4D90000F1D90000DB
:1011100030DA0000FACB000037B51148114D002439
:1011200004701F2100F088FD0F480E21047000F0AC
:101130007CFD0E4C0E490C482A4601F070FE4FF023
:10114000FF330093052203230421204600F076FBA1
:1011500008492A46204603B0BDE8304001F05FBE92
:10116000D4020020E0000020D5020020D802002098
:10117000AD0C0000711700002DE9FF41104FDFF8A2
:1011800044800391144697F900204FF0A0460125B2
:1011900005FA02F2C6F80C250146404600F010FCA4
:1011A000A2B2039B00920021404600F01AFC97F97E
:1011B000003000209D40C6F8085504B0BDE8F0811D
:1011C000D4020020D80200202DE9F347DFF8449034
:1011D000DFF844A099F900304FF0A048012404FA48
:1011E00003F300250E461746C8F80C350146504655
:1011F00000F0E6FB2B460095BAB23146504600F0AF
:10120000F0FB99F9003028469C40C8F8084502B028
:10121000BDE8F087D4020020D80200200346006811
:1012200018B9186808B9181D1860704703680122BA
:101230001B6900211847036800221B6911461847E3
:101240006FF01500704707B5019001F039FB019868
:10125000012106F091F903B05DF804EB01F03ABB0F
:1012600007B5019001F02CFB0198002106F084F9EC
:1012700003B05DF804EB01F02DBB07B5CDE900101C
:1012800001F01EFBDDE9001006F062F903B05DF825
:1012900004EB01F01FBB03681BB903680BB9031D06
:1012A0000360704738B505460A48FFF7F4FF284643
:1012B00005F0E4FF044650B9284606F071F801F045
:1012C0009BFF68600348FFF7E6FF204638BD4FF0FC
:1012D000FF34F7E72C03002038B505460948FFF72F
:1012E000DAFF284605F0E8FF041E686818BF0124ED
:1012F000644208B101F084FF0248FFF7CCFF2046AA
:1013000038BD00BF2C0300202DE9F74F14460F46CF
:101310000646994606F044F80546304606F028F899
:101320008046304606F03EF88346304606F03CF8EC
:10133000B4FBF5F105FB11418246002958D1002F7D
:1013400056D009EB0403D844434551D82A48FFF747
:10135000A2FFB9F1000F44D0002940D12146304608
:1013600006F00EF8B4FBF0F800FB1848A0EB0808F4
:10137000C84528BFC846BB0701D1A84528D2A84503
:1013800028BFA8467068424639460AF067FEA8455D
:1013900006D27068A5EB0802514640440AF08DFE63
:1013A00072682B464FF0100B21463046CDE90023E2
:1013B00005F0A6FF014630B1BBF1010BDDE90023CA
:1013C000F2D14FF0FF31A9EB080944444744C0E78C
:1013D000B8FBF5F805FB08F398463A46E2E74FF00C
:1013E000FF310548FFF757FF084603B0BDE8F08F0F
:1013F0004FF0FF31F8E700BF2C0300202DE9F0414A
:101400000D461646074605F0B3FF0446384605F07C
:10141000C9FF2044AC19A04204D24FF0FF3420464B
:10142000BDE8F08119D81548FFF735FF00240EB349
:10143000F4B94FF010082946384605F03FFF04463E
:1014400020B1B8F10108F6D14FF0FF3429463846F3
:1014500005F096FF361A0544E9E72146384605F0BF
:101460008FFFB4FBF0F101FB1044002CD5D1DAE77B
:101470004FF0FF340148FFF70EFFD0E72C030020A8
:1014800005F08EBF05F07CBF416830B4034671B1F2
:10149000D0E9032000F0010402B944B1451001EB8A
:1014A00060000CB149598A58996830BC104730BC6B
:1014B00070470000044B10B504460360806A08B111
:1014C00000F00AFE204610BDD8DB000010B504462F
:1014D000FFF7F0FF2046802101F090FE204610BD6E
:1014E000036870B5094D1B68044698472B68A342F2
:1014F00005D0A16F04F1300006F02EF92C602368AE
:1015000020465B68BDE87040184700BF3C030020E0
:101510007FB51D4603680446CDE902211B68984744
:101520002046FFF7DDFF9DF8203083F00103DDE961
:101530000221009304F130002B4606F041F92368A4
:1015400006465B6820469847A81B18BF012004B0D8
:1015500070BD7FB51D4603680446CDE902211B68B6
:1015600098472046FFF7BCFF9DF8203083F0010329
:10157000DDE90221009304F130002B4606F004F966
:10158000236806465B6820469847A81B18BF0120C1
:1015900004B070BD7FB50025012416462B462A46AF
:1015A00002A800948DF8085000F049FB03A80094AD
:1015B0002B462A4631468DF80C5000F040FB03A81C
:1015C00005F0B2FF002859D002A805F0ADFFA042F7
:1015D00002D1002004B070BD294603A8FFF74DFEDC
:1015E00003A8FFF730FE0A26002103A8FFF745FEF7
:1015F0009DF90C304FF0A04504FA03F3C5F80C3503
:10160000052001F032FE032103A8FFF736FE9DF905
:101610000C3004FA03F3C5F80835052001F025FE67
:10162000013EE1D102A8FFF70EFE9DF9083004FA51
:1016300003F3C5F80C35052001F017FE9DF90C30B9
:1016400004FA03F3C5F80835052001F00EFE9DF9F4
:1016500008309C400520C5F8084501F006FE02A8A8
:10166000FFF7FEFD03A8FFF7FBFD03A805F05CFFF5
:1016700020B102A805F058FF0028AAD16FF00100A0
:10168000A8E7000008B50248FFF7C8FD08BD00BF85
:10169000340300201A4B2DE9F0410D460360002170
:1016A000184B016100F130080446C0E90711C0E998
:1016B000091116468185144F4361482280614046D6
:1016C0000AF0FBFC114BA3673846FFF7A7FD324633
:1016D000294684F87C5084F87D602046FFF75AFF45
:1016E00094F97D2094F97C10404605F0FBFF084BEF
:1016F00038461C60FFF792FD2046BDE8F08100BF30
:10170000D8DB00008914000034030020A08601000B
:101710003C030020416830B4034671B1D0E9032096
:1017200000F0010402B944B1451001EB60000CB1B6
:1017300049598A58996830BC104730BC704713B576
:1017400090F935304468009390F9343090F93320A3
:1017500090F93210201D06F0A3FD02B010BD4368C1
:10176000DA6C22B9DA6C12B903F15002DA6470470C
:10177000094B10B50360FFF7F2FF43685A6D8242D0
:1017800004BF00225A65FFF7EAFF0446C06908B1AA
:1017900000F0A2FC204610BD30DC000010B504466D
:1017A000FFF7E6FF2046542101F028FD204610BD3A
:1017B00038B5054601F084F8074B1B68002B08DD9F
:1017C000064C2378AB4218BF002401F083F8204672
:1017D00038BD0024F9E700BF980300204003002033
:1017E000044A1368591C1160034A582000FB032067
:1017F000704700BF98030020400300200023082208
:1018000010B5C0E90E2303860B4B03640446FF2387
:10181000A0F8443001F054F894F84C00FFF7C8FFEA
:10182000606028B9FFF7DCFF94F84C30606003700B
:10183000BDE8104001F04EB840420F0038B50446F4
:10184000124820601248A0602046002584F83430F9
:101850009DF9103084F8321084F8332084F8353044
:10186000C4E90455E460A561E561E5624FF0FF312C
:1018700000F8365F00F0E0F9064BA56420462365CA
:1018800084F84C50FFF7BAFF204638BD30DC00002A
:10189000151700003F17000038B5044612482060B5
:1018A0001248A0602046002584F83430FF2384F8D5
:1018B000321084F8332084F83530C4E904559DF99A
:1018C0001010E460A561E561E562012200F8365F71
:1018D00000F0AEF9064BA5642046236584F84C5011
:1018E000FFF78CFF204638BD30DC000015170000E4
:1018F0003F17000043685B6D834210B504460FD06C
:10190000036D98476068D4E90E120023043006F096
:1019100015FD6068216C043006F022FD63685C658B
:1019200010BD036870B504461B690D469847606892
:101930002564436DA34209D12946043006F010FD09
:10194000236820465B69BDE8704018472046FFF7D2
:10195000D1FFF5E790F93620531C09D001239340BD
:101960004FF0A04211B1C2F808357047C2F80C35EB
:10197000704738B5036804461B69984794F9455089
:101980006B1C84F8453045B92046FFF7B3FF294664
:101990002046BDE83840FFF7DDBF38BD10B590F8F0
:1019A0004530013B5BB2044680F8453013B9012154
:1019B000FFF7D0FF236820465B69BDE81040184759
:1019C00037B504460191FFF7D4FF606801990430F0
:1019D00006F0FEFC05462046FFF7E0FF284603B070
:1019E00030BD30B5044687B0CDE904210393FFF73D
:1019F000C0FF94F84450606801950A9D05990095D0
:101A0000DDE90332043006F017FD05462046FFF7F6
:101A1000C5FF284607B030BD0020704700290CBF25
:101A20006FF0180000207047012070476FF015001C
:101A300070476FF0150070471120704784B001A8FF
:101A400080E80E0004B07047437D10B504461BB11A
:101A5000037D0BB101F06EF8204610BD13B50446AE
:101A600001A800F041FB637D53B9237D0BB101F068
:101A70004DF8206900F0F2FAC4E900010123637512
:101A800001A800F039FB02B010BD37B504460D4681
:101A900001A800F029FB00230022C4E900236B7D8C
:101AA0004BB1286900F0DAFAD5E90032C01A61EBCF
:101AB0000201C4E9000101A800F01EFB204603B0AA
:101AC00030BD30B585B004460D4603A800F00CFBD0
:101AD00029466846FFF7D9FFD5E90210009B019A15
:101AE0005B1842EB0002C4E9003203A800F004FBDB
:101AF000204605B030BD07B501466846FFF7E1FF57
:101B0000DDE900014FF47A7200230AF06DFE03B0A4
:101B10005DF804FB13B5044601A800F0E5FA20695E
:101B200000F09CFA00220023C4E90001C4E902236A
:101B300001A800F0E1FA02B010BDD0B500230026E4
:101B40000027C0E90067C0E9026704460161027529
:101B50004375FFF7DFFF2046D0BD10B5044600F007
:101B6000A7FA012201462046FFF7E7FF204610BDF5
:101B700003681B681847000010B50446074B236034
:101B800000220023C4E9022300230846A161C4E91E
:101B90000433034900F0F1F9204610BD50DC000089
:101BA000711B000007B5009000F10801806900F08A
:101BB00022FA03B05DF804FB00F10801806900F02F
:101BC00032BA704770B50E460446154605F094FCCF
:101BD000013609D02046002105F0CEFC29462046DA
:101BE000BDE8704005F0B4BC70BDF8B50F460446C2
:101BF00015461E4605F080FC013715D094F90030DB
:101C0000012098404FF0A0435EB1C3F8080520467C
:101C1000012105F0B1FC29462046BDE8F84005F059
:101C200097BCC3F80C05F2E7F8BD0322FFF7CABF63
:101C300013460022FFF7D9BF0022FFF7F9BF2DE9B5
:101C4000F0411746069E04460D461A468FB9FFF727
:101C5000B9FF013508D094F9003001229A404FF0C5
:101C6000A0431EB1C3F80825BDE8F081C3F80C25D8
:101C7000FAE73346BDE8F041FFF7B7BF00487047C9
:101C800054DC0000024B1B680BB102481847704738
:101C9000E400002054DC0000F8B5446894F8326099
:101CA0008EBB03685B689847216A81422BD0236909
:101CB00094F934202062411A1940A368A1FB03C1A2
:101CC000CAB1656A15EB0C0541F10001002A1BDB66
:101CD000C2F12000A2F1200325FA02FC01FA00F073
:101CE00021FA03F34CEA000C4CEA030CD1400CFA45
:101CF00002F2AA1A6262D4E90A3213EB0C0341EB36
:101D00000201C4E90A31F8BDE76833463A4628467D
:101D10000AF0BAFD844607FB10506062EBE782428E
:101D200006D98A420BD9884294BF0020012070470F
:101D3000884206D98A428CBF0020012070470120CA
:101D40007047002070472DE9F3474668336B23F056
:101D50007F4A2AF0FF0A0746BAF1000F68D1FFF761
:101D60009BFF7368D7F80080002B56D0D3E9004260
:101D7000D6E90A13A142934105D3D8F8143002B032
:101D8000BDE8F04718477D68D5E90A31E41A62EBEF
:101D9000010CD5E90592EB69A24273EB0C030DD35C
:101DA000EB68A3FB044103FB0C1195F933C0BCF1B4
:101DB000000F19D12046814528BF81462A6AD8F8EC
:101DC000103091442A6909EA0202104601929847AC
:101DD0003B685B689847019A0146306AFFF79FFFAE
:101DE00030B33B685B69CAE7AA68501E001941F12D
:101DF0000001BCF1000F0CDBCCF12002ACF12003A0
:101E000020FA0CF001FA02F2104321FA03F318430E
:101E1000D1E753460AF038FDCDE77369306A32697D
:101E20001844D8F81030104002B0BDE8F047184709
:101E300002B0BDE8F0870000436893F830202DE938
:101E4000F0410546002A73D193F83230002B6FD150
:101E500003681B6898472B68DB699847354B026815
:101E6000002A08BF1A4611461C46B1FBF3F304FBD7
:101E700013132146002BF7D16E682E4FB7FBF4F7F2
:101E80001F23B7600121013B03D301FA03FC67451F
:101E9000F9D186F83330B2FBF4F21F23F26001214E
:101EA00001FA03F4A24201D0013BF9D286F83430A2
:101EB0004068031F1B2B96BF0123202083404FF057
:101EC0000701A0F1040001FA00F194BF03F1FF3310
:101ED0004FF0FF334FF00008501E336171614FEA3D
:101EE000E173A1FB074107FB031748F1FF312018FD
:101EF00047EB010143460AF0C7FC2B68C6E906011F
:101F0000C6E900885B6898476B6830620021002052
:101F10000122C3E90A01C3F82480284683F83280ED
:101F20001A86FFF7B9FE2846BDE8F041FFF70BBF60
:101F3000BDE8F08140420F00F0B44568049C8C601D
:101F4000C1E900236C6800262CB9CC6066B96960D1
:101F5000F0BCFFF7F8BE2768BA42676873EB070763
:101F6000F3D32646E468EFE7F160D5E90A419442ED
:101F700071EB0303ECD2F0BC704738B505460C4654
:101F8000FFF75AFF00F09CFC6B681C60BDE838400E
:101F900000F0A0BC70B5054600F092FCD5E9003415
:101FA000DB68984794F832301BB1BDE8704000F010
:101FB00091BC012384F831306368ABB12846FFF748
:101FC0006BFE6368D4E90A61D3E90002864271EBD3
:101FD000020209D36A68DB68526863602368002BD9
:101FE000EAD090689847E7E7002384F83130284624
:101FF000FFF7A9FED9E710B586B0CDE90421039318
:10200000089C029000F05CFC0298FFF745FEDDE9B9
:102010000332059902980094FFF78EFF06B0BDE8E1
:10202000104000F057BC38B505460C4600F048FC9F
:102030006A685368A34209D1DB6853602846FFF7FA
:1020400082FEBDE8384000F045BC1346002BF8D0B6
:10205000DA68A242F9D1E268DA60F2E713B5044621
:10206000FFF7EAFE00F02CFC2046FFF715FE636840
:10207000D3E90A01CDE9000100F02CFCDDE9000103
:1020800002B010BD08B5FFF7E9FF08BD024B002202
:102090001A7006F0CFBA00BFD803002008B506F0CA
:1020A00037FA024B01221A7008BD00BFD803002086
:1020B0000048704780DC0000024B1B680BB10248EF
:1020C00018477047E800002080DC000091F90C20E0
:1020D00091F9041005F082BE024B1B6803B118474A
:1020E000704700BF1804002007B5019000F0E8FB1E
:1020F000019803B05DF804FB07B5019000F0EAFB1E
:10210000019803B05DF804FB03681BB903680BB9C1
:10211000031D03607047000010B5124B03600446B6
:102120001148FFF7F1FFA3682BB1104962680B68F3
:10213000A34210D10A600E4B0B481A68A24204BF9A
:1021400000221A60FFF7E0FF237B13B9201F00F085
:1021500097FD204610BD19465B68A342FBD14A603B
:10216000E9E700BFBCDC0000200400201C040020C4
:102170002804002010B50446FFF7CEFF20461021AA
:1021800001F03CF8204610BD0B4B10B50360002356
:10219000C0E90131044602730848FFF7B5FF41B1B9
:1021A000074B1A6862601C600448FFF7ADFF2046C9
:1021B00010BD6160F8E700BFBCDC00002004002017
:1021C0001C040020F8B506461448FFF79DFF144B89
:1021D0001C680D4694B1A76877B138460AF08DF9AE
:1021E000A84209D12A463146384609F027FF18B9D6
:1021F0000A48FFF789FF0FE06468EBE7072DF7D186
:1022000008482A46314609F019FF0028F0D1034852
:10221000FFF77AFF044B1C682046F8BD200400201D
:102220001C040020ACDC000028040020007B704768
:1022300070B50D460026C0E900660C4904462846E4
:102240000AF063F928442060314623681A782F2A5F
:1022500006D101332360FFF7B5FF6060204670BDF3
:10226000002AF8D0013301312360EEE7C4DC00001E
:1022700000687047406808B520B1FFF7D7FF431EDC
:102280005842584108BD10B50446FFF7F3FF10B19E
:10229000606800B1043810BD406808B520B1FFF790
:1022A000C5FFB0FA80F0400908BD10B50446FFF73D
:1022B000F3FF10B1606800B1043810BD4068003809
:1022C00018BF012070476FF0250070476FF02500A0
:1022D00070476FF02500704710B504460846FFF7B9
:1022E000BDFEC4E90001204610BD000010B5044643
:1022F000FFF742FC20460A4B40F8203BA169FFF75C
:10230000EBFFD4E90823C4E90A2300220023C4E92F
:102310000C230023C4E90E3384F84030204610BD5E
:10232000FCDC000010B50446FFF746FC94F84020A2
:102330000023A3872AB184F84030BDE8104000F0A4
:10234000F9BB10BD10B5044601F1300000F047FAAA
:10235000C4E90001204610BDD0E90C32013342F13E
:102360000002C0E90C32D0E90A3213F57A7342F167
:102370000002C0E90A327047D0E90A2312F57A72E6
:1023800043F10003FFF70EBC37B50D4604468969DB
:102390006846FFF7A1FFD5E90A3200980199C01AF3
:1023A00061EB0201B0F57A7F71F1000306D20022E1
:1023B0000023C4E90023204603B030BDB0F5FA6F16
:1023C00071F1000301D20122F2E700294FF47A7281
:1023D0004FF00003D8BF00210AF056FAC4E900010B
:1023E000E9E7F7B5054668460C46FFF7CDFFDDE99E
:1023F00000364FF47A700022A263A3FB007200FB48
:102400000622D4E90A10C91942EB0002C4E90A12F3
:10241000D4E90C125B1842EB06022846C4E90C32E0
:10242000C5E9003203B0F0BDF0B51E4685B090F8A6
:102430003C30044617465BB9014602A8FFF7D1FFBE
:10244000029BBB42039BB34104D3012384F83D307C
:1024500005B0F0BD214602A8FFF774FF4FF47A7370
:10246000A7FB032503FB0653D4E9081594F84000A5
:1024700052184FF0010143EB0503A18760B9A06931
:10248000006890F8200038B984F84010CDE90023A6
:1024900000F03CFBDDE900230021204684F83E10DB
:1024A00005B0BDE8F040FFF77DBB0000024B4FF0E8
:1024B00080625A60704700BF00ED00E090F83C3049
:1024C00010B504464BB1002380F83C3090F83E3004
:1024D00013B9012380F83D3010BD90F83F30002B38
:1024E000FAD0836B01338363FFF7E0FF2046FFF7E9
:1024F00033FF2046FFF740FFEEE70000102300F017
:1025000007B8202300F004B8302300F001B84023BE
:102510009C46F0B404AE7546E80801D3EFF3098693
:102520000E4F0FCE0FC70FBC0FC74046494652464D
:102530005B460FC71DCE3100A60A00D304316E09D9
:1025400000D248311FC7EFF309806946EFF31486C4
:1025500063C76046014900F079F800BF2C040020F1
:10256000F0B52C4E2C4F85B000243546214656F848
:10257000042B3846013400F089F90D2CF6D1AB6CF0
:1025800002936B6C01932B6C244C0093D5E90E23C2
:10259000696B234800F07AF92168224800F076F947
:1025A000E16AA26AA36AA06A266BE76B000CCDE918
:1025B00001670090C3F307231B48D2B200F066F90D
:1025C000A36A1E0603D5616B184800F05FF9A36A81
:1025D000180403D5A16B164800F058F9EB6C1907E5
:1025E00012D5144800F052F92B6DDA070FD51248B6
:1025F00000F04CF9EB6C5B074CBF1048104805B07D
:10260000BDE8F04000F042B90E4800F03FF90E4836
:10261000EEE700BF2C04002000DD000000ED00E02C
:102620000EDD00005DDD00006BDD0000BADD0000A6
:10263000C8DD0000D6DD0000E5DD000015DE00008D
:1026400021DE000005DE0000F2DD000007B50446D3
:102650000D461A48012100F0B9F868BB184800F08F
:1026600015F9302C19D0402C1CD0202C1FD1154826
:10267000154C00F00BF9154800F008F9FFF770FF52
:10268000134800F003F90D4B00221A700023114982
:1026900000932A46204600F0A1F90F480F4C00F0A5
:1026A000F5F8E8E70E480F4C00F0F0F8E3E70E48C5
:1026B0000E4C00F0EBF8DEE70024E7E7F80400201A
:1026C0002DDE000056DE00003E01FF8083DE0000AC
:1026D0008EDE0000ADDE000065DE00003F01FF8001
:1026E0006EDE00004001FF8079DE00003D01FF80CA
:1026F00009F038BD09F0EABCF0B572B64FF0E0223F
:10270000002313615168204F01F00F0101314FF098
:10271000FF361D469A0002F1604202F561424FEA1F
:10272000C30CC2F88060C2F88061002202EB0C0486
:102730003C440132082A84F80053F7D1013399420E
:10274000E8DC124B4FF020625A6040F2FA52986077
:10275000DA6000221D6111469C1801320C2A217694
:10276000FAD14FF0FF3259629A62094ADA621F22A7
:102770001A63D0E90031002282F314889D4682F367
:1027800010880847F0BD00BF00E100E000ED00E068
:10279000020000C003460122D3E84F0FC3E8412FD7
:1027A000C0B20029F8D17047D0E85F3F5B18C0E89D
:1027B000523F002AF8D198B27047D0E85F3F5B1AC9
:1027C000C0E8523F002AF8D198B270470346D3E8D8
:1027D0004F0FC3E8421FC0B2002AF8D1704713B5AB
:1027E000044600F06DF8D4E90001CDE9000100F0E5
:1027F00071F8DDE9000102B010BD08B500F060F825
:10280000FEE773B5002201460446022000F092FB69
:102810000D2600F055F80022254614F8013B23B997
:1028200002B0BDE8704000F055B80A2B09D10D2A5E
:1028300007D001220DF1070102208DF8076000F09A
:1028400079FB01222946022000F074FB14F8012CC8
:10285000E2E7000000B5A3B002460B4601A88421C0
:1028600000F03BFF832806D9074B1A681B79CDF887
:1028700083208DF88730002802DD01A8FFF7C1FF13
:1028800023B05DF804FB00BFBDDE00000FB407B548
:1028900004A951F8040B0191FFF7DCFF03B05DF8C8
:1028A00004EB04B07047EFF31080C04300F0010068
:1028B0007047EFF30580003818BF01207047000013
:1028C00008B504F0CBFC024A13680133136008BD5D
:1028D00080040020044A136823B1013B13600BB944
:1028E00004F0C4BC704700BF8004002008B50B484A
:1028F000FFF750FF28B1FFF7E3FFBFF34F8F20BF73
:10290000FDE7FFF7D6FF08B1FFF777FFFFF7CBFF33
:102910000028F9D0012000F084FA00BFC004002094
:1029200070470000F0B5254D8FB035EA200528BF6F
:1029300005460E4617460021302202A809F0BDFBCD
:102940001F4B01952B44012B01AC039605D91D4B60
:102950009D4202D0033B9D4229D1F36B0293736BDE
:102960000893FFF7ADFF184A13680133012B13607A
:1029700009D126460FCE154D0FC50FCE0FC50FCE70
:102980000FC533682B600FCC114D0FC50FCC0FC591
:102990000FCC0FC523682B600E4B1B68A5F13000D0
:1029A00043B19847FFF796FF00200FB0F0BD0297A4
:1029B0000894D6E7FFF7B4FFF4E700BF0101FF80FA
:1029C000C2FE007F4001FF80840400208C040020B0
:1029D000C4040020880400200020704708B5044685
:1029E0000121064876461546FFF7F0FE20B932462B
:1029F00029462046FFF796FFFFF778FFF8040020EE
:102A000038B5064C23683BB9FFF738F9044D014649
:102A10002846FFF76BFC2560206838BD480500207C
:102A20000005002008B5836823B9054B1B6893F89F
:102A30003D0008BDC06898470028F6D0F9E700BF00
:102A400048050020F7B5194F04464FF0FF356FF0E9
:102A500000462046FFF7E6FF30BBD4E90023B3422F
:102A600008BFAA4202D03868FFF7DEFC01A8FFF7D2
:102A70003BFB2046FFF7D6FF98B9D4E90023B342C9
:102A800008BFAA4207D100F077F801A8FFF734FB8E
:102A9000BFF36F8FDDE73B6893F83C30002BF2D13A
:102AA000F3E701A8FFF728FB03B0F0BD48050020BD
:102AB00070B50D4686B01646044628B9F1B11046E9
:102AC00006B0BDE870400847431C19D0FFF798FFD7
:102AD00001466846FFF785FC0098019B241843F1E6
:102AE0000003CDE90243CDE90456FFF789FF02A8B0
:102AF000FFF7A8FF044B1868FFF714FC06B070BD81
:102B00006FF00043EDE700BF4805002013B5074C08
:102B100001212046FFF748FE034628B900900146F0
:102B200022880348FFF75AFF02B010BD4C05002071
:102B30002301048013B5094C01212046FFF73DFE17
:102B40004FF6FF73984206D1002322880448009371
:102B50001946FFF743FF02B010BD00BF4C0500202F
:102B600024010480034B188880B2B0FA80F0400939
:102B7000704700BF4C05002008B5FFF7A1FEFFF726
:102B8000F1FF28B105F0EAFABDE80840FFF7A2BE60
:102B900005F0C0FAF8E76FF01C0070476FF0150001
:102BA000704701207047002070477047F8B5074E06
:102BB00015460C468F18BC4205D014F8011B304650
:102BC00005F054FAF7E72846F8BD00BF18070020C3
:102BD00038B511F001048DB205D0084805F070FA3F
:102BE000041E18BF0124EB0605D5044805F07CFA45
:102BF00008B144F01004204638BD00BF180700207B
:102C000010B5044609F012FA204610BD10B50C4666
:102C10002AB1044805F0F4F92070012010BD1046D7
:102C2000FCE700BF1807002003681BB903680BB955
:102C3000031D03607047000008B50F48FFF7F4FF5D
:102C40000E4B032253F8221069B10132402AF9D108
:102C500008F0B6FC182303600748FFF7E5FF4FF0C4
:102C6000FF32104608BD4FF0FF3143F822100248F2
:102C7000FFF7DAFFF5E700BFD4050020EC000020E5
:102C800010B50146094A0A48FFF7CEFF402300204D
:102C900052F8044B8C4208BF42F8040C013BF7D1B8
:102CA000BDE810400248FFF7BFBF00BFEC000020A6
:102CB000D405002038B5084B0360084B1B68044658
:102CC000154633B90648FFF701FA0548294605F0CD
:102CD00023F9204638BD00BFCCDE00008407002069
:102CE0001807002000207047002070470EB42DE91F
:102CF000F04187B00190FFF79FFF041E13DB002314
:102D00000199039304A8FFF793FA04A8FFF7D6FAF2
:102D10001E4E054668B908F053FC1323036046F8BD
:102D200024504FF0FF34204607B0BDE8F04103B017
:102D3000704704A8FFF7B0FA074604A85FB1FFF791
:102D4000B4FA0390039B124A46F82430002313552B
:102D5000104A1355E7E7FFF796FA05460028DAD040
:102D6000036804A8D3F80880FFF782FA0D9B024697
:102D700003A92846C04705460028E3D008F020FCF8
:102D80006D42056046F82470CBE700BFEC000020E0
:102D9000540500209405002037B501466846FFF72A
:102DA00047FA6846FFF76FFA044638B908F008FC9E
:102DB000132303604FF0FF3003B030BD0368684653
:102DC0001D69FFF755FA01462046A847041E04DA9C
:102DD00008F0F6FB64420460ECE70020ECE708B57D
:102DE000012000F01EF80000074A08491368184443
:102DF000884289BF064B10600C224FF0FF308CBF19
:102E00001A601846704700BFEC01002000F0002057
:102E10006413002008B508B1FFF7EFFCFEE70120BE
:102E2000704708B5FFF7F6FF0120704770477047FD
:102E300008B5FFF7FBFF08BD08B5FFF7F8FF08BDB1
:102E4000037803F00303012B09D0037803F0030296
:102E5000012A04D043F002030370012070470020D0
:102E60007047037823F0030343F0010303707047B6
:102E70003F2870B504462EDC184E56F820305A1CF8
:102E800013D1022811DCFFF72FFF034658B9204663
:102E9000FFF728FF034630B9114D2B78BFF35B8F46
:102EA000DB0704D50F4B46F82430184670BD284682
:102EB000FFF7C6FF0028F5D00B490A484FF4E1326E
:102EC000FFF7F8FE2846FFF7CCFF084A08490548F7
:102ED000FFF7A5FFE6E70023E7E700BFEC000020CF
:102EE00050050020DC05002014DF0000E000002079
:102EF000AB2B000038B50546FFF7BAFF0B4B00249B
:102F000043F8254030B908F05BFB092303604FF01C
:102F1000FF3038BD03685B699847051E04DA08F086
:102F20004FFB6D420560F2E72046F2E7EC0000201F
:102F3000FFF7E0BF13B5CDE90021FFF799FFDDE909
:102F4000002140B908F03CFB092303604FF0FF3437
:102F5000204602B010BD0368DB689847041EF7DA0C
:102F600008F02EFB64420460F0E713B5CDE90021C0
:102F7000FFF77EFFDDE9002140B908F021FB0923BE
:102F800003604FF0FF34204602B010BD03689B6819
:102F90009847041EF7DA08F013FB64420460F0E778
:102FA00010B5FFF765FF044628B908F009FB0923AF
:102FB0000360204610BD0368DB699847041EF8DAF9
:102FC00008F0FEFA644204600024F2E72DE9F84FAD
:102FD000B2F1000805460E4608DA08F0F1FA1623A9
:102FE00003604FF0FF342046BDE8F88FFFF7D8FFAD
:102FF000044668B3DFF87CB0DFF87CA01BF80590CE
:1030000000273C46B84523DDF25D0A2A1CD1B9F100
:103010000D0F19D0BC420BDA3A1B31192846FFF7C5
:1030200089FF0028DDDB0444A742DCDC0BF80590B7
:10303000012251462846FFF77DFF0028D1DBD2D080
:103040004FF00D030BF8053016F807900137D9E75C
:10305000A045C8DDA8EB040231192846FFF76AFF36
:103060000028BEDB24181FBF3619024B16F8012CAE
:103070005A55B8E794050020C2DE0000FFF790BF64
:103080007FB5002A04460D4606DA08F099FA1623A1
:1030900003604FF0FF3019E00192FFF781FF019AC2
:1030A000E8B1124E01220DF10F012046FFF75DFF3E
:1030B0000028EEDB0AD09DF80F300D2B08D1325DD1
:1030C0000A2A3355EED00A232B70012004B070BDBC
:1030D0000A2B02D1325D0D2AF3E73355F4E7294676
:1030E000204604B0BDE87040FFF73FBF5405002004
:1030F00013B5CDE90021FFF7BBFEDDE9002140B9A2
:1031000008F05EFA092303604FF0FF34204602B056
:1031100010BD03681B699847041EF7DA08F050FADF
:1031200064420460F0E7FFF7E3BF38B50D46FFF7F0
:103130009FFE044630B908F043FA092303604FF0BC
:10314000FF3038BD0368DB699847002814BF4FF48F
:1031500000534FF400436B60236820469B6A9847F6
:1031600028610020EDE7FFF7E0BF000070B50E46D4
:103170001549054609F09EF9044618B9FFF778FE8F
:10318000204670BD1149284609F094F920B9012064
:10319000FFF76EFE0124F3E70D49284609F08AF98E
:1031A00020B90220FFF764FE0224E9E72B78402BC8
:1031B00002D1D5F80140E3E726F400412846BDE8F6
:1031C0007040FFF793BD00BF34DF00003BDF00001D
:1031D0002CDF00001FB5039008F020FF039A034680
:1031E00020B9009001460348FFF7F8FB05B05DF8F1
:1031F00004FB00BF1F010180FFF7ECBF08F016BF02
:1032000008F014BF7047704708B5094B094A1A60A7
:10321000094B9B1A094A1360094B0A4A1A600A4B68
:103220009B1A0A4A136004F0FDFBFFF7ECFF08BD90
:10323000EC05002000F0002000000120E80500203F
:10324000E40500206813002000F00020E0050020C5
:1032500008B5FFF7D7FFFFF7BFFBBDE8084008F050
:10326000B9B800221146FFF723BC70B50446FEF73B
:103270001FFF0646FEF706FF05463046FEF702FF33
:10328000431BA342F9D370BD70B5144612686FF0AA
:103290000046B2420546049807D238B101461846A6
:1032A00008F046FC431C05D1206070BD15B18A4270
:1032B00038BFAB54236801332360F6E72DE9F04FA4
:1032C0002DED028B8DB007469DF870309DF868B0EB
:1032D0000493884691460021142207A8DDE9184589
:1032E000069108F0EAFE049B002B14BF3023202334
:1032F000BBF1010F08EE103A43D1002D41DA6442D0
:1033000065EB4505CDF808B000230393ABF102034C
:10331000DBB20DF1180A0593059B012B5AD8BBF1BE
:10332000020F04F00F030CBF384A394A2409D35C5A
:103330008AF8003044EA05742D09039B5E1C54EAA8
:1033400005030AF1010A43D1029B23B3049B3BB15D
:103350001D9B00934A462D2341463846FFF794FFB4
:10336000039E1B9B02369E421ADB049B3BB91D9BAE
:1033700000934A462D2341463846FFF785FF013E1C
:103380001FE054EA050302D000230293BCE7302378
:103390008DF8183001261B9B9E4212DA00230293FF
:1033A0001D9B00934A4618EE103A41463846FFF7F7
:1033B0006BFF1B9B013BB3421B93F1DC029B002B79
:1033C000D3D106ACC6B90DB0BDEC028BBDE8F08F11
:1033D0000396A1E7204629460A22002309F054FA61
:1033E00030328AF80020204629460A22002309F0BC
:1033F0004BFA04460D46A0E71D9B0093013E4A464A
:10340000A35D41463846FFF73FFFDBE743DF00009F
:1034100053DF00002DE9F04F8BB01C460023149EB3
:1034200009938B461546BAB1994215DB1ABF01F1D3
:10343000FF3B98464FF001084FF0000A15F80A309C
:1034400073B948B1B8F1000F06D1099B5B4594BF31
:1034500000F8038000F80B8009980BB0BDE8F08FEE
:10346000252B40F032810AF1010915F80930203B83
:10347000DBB20D2B07D842F6090222FA03F3DB0771
:1034800048BF0AF1020915F809302A2B24D100227D
:1034900009F101070434114615F807C0BCF12E0FDD
:1034A00005EB07035ED193F801C0BCF12A0F2ED0C3
:1034B000C5F101074FF0000C0797079F1F4413F851
:1034C00001EFAEF1300E5FFA8EF9B9F1090F21D894
:1034D0000A2707FB0CECF0E7302B16D109F10109A4
:1034E00015F80930302BF9D00121A9440022A9EBAD
:1034F000050719F8013B303B5FFA83FCBCF1090F6B
:10350000CAD80A2707FB0232F1E70021EDE754F899
:1035100004CB0237EB5D682B27D1EB195B78682B66
:103520000CBF7223112303F00309B94415F8097085
:10353000642F01D0692F42D1822B30D1073424F07F
:1035400007073C467F6854F8083B0392CDE9041610
:10355000CDE900370122029209AA59460790FFF7E8
:10356000ADFE6EE06FF0004CD4E76C2B06D1EB198A
:103570005B786C2B0CBF82232123D4E76A2B08D005
:103580007A2B08D0742B08D04C2B14BF0023612356
:10359000C9E73123C7E74123C5E75123C3E7112B0F
:1035A00054F8047B07D0722B15BF3B467BB2DF1764
:1035B00047F3C017C9E73BB247F3C037C5E7752FDC
:1035C00004D007F0DF0EBEF1580F2FD1822B11D19E
:1035D000073424F0070C6446DCF804C054F8083BB8
:1035E0000392752FCDE904161AD10022CDE9003CD3
:1035F0000292B1E7512B54F804CB0DD0722B05D0B9
:10360000112B06D063464FF0000CE9E75FFA8CF30C
:10361000F9E71FFA8CF3F6E763464FEAEC7CDFE745
:10362000582F01D10322E1E70222DFE7632F0AD1FD
:1036300054F8043B0096DBB209AA59460790FFF7FD
:1036400023FE07980AE0732F15D154F804AB0AEB58
:103650000C079AF800300BB1BA4502D109F1010A02
:10366000ECE6009609AA594607900AF1010AFFF70D
:103670000BFE0798EDE7702F1CD154F8047B0096E1
:10368000302309AA59460790FFF7FEFD07980096D8
:10369000782309AA5946FFF7F7FD0023CDE9033344
:1036A00003230293FB17CDE900730798059609AA37
:1036B000594654E70096252309AA59460790252F15
:1036C00018BFD146FFF7E0FDBBE7009609AA5946AF
:1036D0000790D146FFF7D8FDB3E713B50024009457
:1036E000FFF798FE02B010BDFFF7BBBDFFF7B9BDF5
:1036F00000207047002070472DE9F0411E46036806
:103700005B6A1446DDE906780546984702460B4693
:103710002046314609F0B8F8134302D00020BDE836
:10372000F0812B6828465B6A984702460B4638466C
:10373000414609F0A9F81343F0D12B68E4199B6BBB
:10374000284646EB08069847A04271EB06032CBFBB
:1037500001200020E3E72DE9F0411E4603689B6A43
:103760001446DDE906780546984702460B46204692
:10377000314609F089F8134302D00020BDE8F081FA
:103780002B6828469B6A984702460B4638464146B6
:1037900009F07AF81343F0D12B68E4199B6B2846A3
:1037A00046EB08069847A04271EB06032CBF0120A8
:1037B0000020E3E72DE9F0410168096B14461D463E
:1037C000DDE906780646884702460B46204629462C
:1037D00009F05AF8134302D00020BDE8F0813368A5
:1037E000E41945EB0805621E196B304665F10003CC
:1037F000884702460B462046294609F045F8134300
:10380000EAD1336830469B6B9847A04271EB0503C1
:103810002CBF01200020E0E7012000217047D0F8F4
:10382000C0000021704790F8743113B1D0E91C0139
:103830007047002000217047FF2070470048704704
:1038400063DF000010B504461946104604F1680213
:1038500000F0E5FD431CD4F8C01009D02318012264
:1038600093F8B4000023104205D04A3354F82310D3
:103870000846002110BD01335200042B52B2F2D190
:10388000F6E72DE9F003D0E901140568069E6710FC
:1038900005EB6400DDE90889E40744BFEC59615891
:1038A0000696CDE90889BDE8F003084737B5054617
:1038B0000446194845F8040B4FF000008DF8040049
:1038C0009DF9180000902846FDF7E6FF002303222B
:1038D0000821C4E95821C4E95A3100200021C4E973
:1038E0001C014FF0FF31A1670121C4F88810284660
:1038F000C4E917330799C4F85031C4F8703184F81B
:103900007431C4F8C03084F8B430A265FEF709F809
:10391000204603B030BD00BF70DF000084B0F0B5BA
:103920009BB00446259E21A880E80E007268249969
:103930000023CDE9022306AF009732688847054689
:1039400038B14FF0FF3528461BB0BDE8F04004B059
:10395000704704F168013846059100F0BDFD00286C
:10396000EFDB0599384600F0B0FD0028E9DB0322C3
:103970000223C4E91623202323667168384600F029
:10398000E3FC3146C4F85001384600F0E8FC00285A
:10399000D7DB33692366C4F86451D4E710B586B029
:1039A0000446684680E80C0006A800E90C00039174
:1039B00010E90700034BE36084E80700204606B0E7
:1039C00010BD00BF833800002DE9F74F051DD0F86A
:1039D0006C710191044628461646DDE90CBADDE912
:1039E0000E89FDF7C6FF01992846FDF7E9FFD4F8D7
:1039F0006041013CFF08E400002C11DBC4F120020F
:103A0000A4F120032BFA04F10AFA02F211432AFA74
:103A100003F31943C9B22846FDF7D2FF083CEBE790
:103A20000024BC4205D000212846FDF7C9FF01341F
:103A3000F7E7002427464F4508BF444508D000213A
:103A40002846FDF7BDFF3055013447F10007F2E786
:103A50002846FDF7A3FF002003B0BDE8F08F00006B
:103A6000F0B51E4690F8743185B004460D461746F1
:103A7000E3B11048FDF7D2FBD4F86431C4F86C31DF
:103A8000DDE90A23CDE90076CDE90223A16D2A46BE
:103A90002046FFF799FFD4F86831C4F86C31054629
:103AA0000448FDF7BBFB284605B0F0BD6FF47A650E
:103AB000F9E700BFF005002030B585B0DDE90A4523
:103AC0000821C0F86C11CDE90023CDE90245089A20
:103AD0005A21FFF779FF05B030BD2DE9F74F051DDD
:103AE000D0F86C710191044628461646DDE90CBAFF
:103AF000DDE90E89FDF73DFF01992846FDF760FFDE
:103B0000D4F86041013CFF08E400002C11DBC4F153
:103B10002002A4F120032BFA04F10AFA02F2114365
:103B20002AFA03F31943C9B22846FDF749FF083CB6
:103B3000EBE70024BC4205D000212846FDF740FFFA
:103B40000134F7E7002427464F4508BF444507D016
:103B5000315D2846FDF734FF013447F10007F3E7F4
:103B60002846FDF71BFF002003B0BDE8F08F2DE9CC
:103B7000FF41051DD0F86C81039104462846174685
:103B80001E46FDF7F6FE03992846FDF719FFB6F12C
:103B9000FF3F08BFB7F1FF3F22D0D4F86041013C9E
:103BA000E400002C0ADA4FEAD8080024444517D074
:103BB00000212846FDF704FF0134F7E7C4F1200295
:103BC000A4F1200327FA04F106FA02F2114326FABF
:103BD00003F31943C9B22846FDF7F2FE083CE0E7BB
:103BE0000D9B0A9900932846DDE90B23FDF7F9FEAA
:103BF0002846FDF7D3FE002004B0BDE8F0810000A8
:103C00007FB506461248FDF709FB96F874413CB9AA
:103C1000C6F870410E48FDF701FB204604B070BDA8
:103C2000D6F87051013DC6F870517DB9CDE9025505
:103C3000CDE900554FF0FF324FF0FF3304213046FD
:103C4000FFF795FF86F874510446E3E70024E1E7A7
:103C5000F00500201FB5002422F47F62CDE9024464
:103C6000CDE9004422F00F022346FFF780FF2046F3
:103C700004B010BD2DE9F04186B0054642F2107443
:103C800001270DF1140800260120FFF72FFD4FF04A
:103C9000FF33CDE90287CDE900664FF0FF32052101
:103CA0002846FFF764FF9DF8143013F0010301D09C
:103CB000013CE9D183F0010006B0BDE8F08130B5E8
:103CC00087B001220023039205AACDE90132ADF8A5
:103CD000143000934FF0FF324FF0FF3305210546BB
:103CE000FFF745FF00BBCDE90200CDE900004FF032
:103CF000FF324FF0FF3366212846FFF738FF98B9AF
:103D0000CDE90200CDE900004FF0FF324FF0FF3364
:103D100099212846FFF72BFF041E18BF01242846CF
:103D20006442FFF7A7FF08B94FF0FF34204607B001
:103D300030BD30B5002387B0CDE90233CDE9003383
:103D40004FF0FF324FF0FF3306210546FFF70FFF1C
:103D5000044618B14FF0FF3007B030BD2846FFF7DA
:103D600089FF0028F6D00123039305ABCDE9014379
:103D700000944FF0FF324FF0FF3305212846ADF895
:103D80001440FFF7F4FE0028E4D19DF8140080F001
:103D9000020040F34000DFE72DE9F04F1F4690F8A6
:103DA000743185B0DDE90EB9064688461546002B0C
:103DB00041D0DFF88CA05BEA09033FD0D6F8504130
:103DC000002322462846394608F05EFD1BEB02011F
:103DD00049EB0303A14273F1000319482CBFA41A55
:103DE0005C46FDF71BFA3046FFF7A3FFC8B9CDE9E3
:103DF0000240CDE900574246F16D3046FFF76DFEB7
:103E00002D19A04447F100073046BBEB040469F1CB
:103E10000009A346FFF72EFF58B15046FDF7FEF903
:103E2000C9E7084C0648FDF7F9F9204605B0BDE89A
:103E3000F08F054CF6E76FF47A64F6E70024F4E7B8
:103E4000F00500205CF0FFFF5DF0FFFF2DE9F04F73
:103E50001E4690F8743189B0DDE912890446154692
:103E6000002B00F0878000F168023146284600F000
:103E7000D6FA071E03DA424809B0BDE8F08FE3190D
:103E800015EB080A93F8B4300593D4E91C2346EBEC
:103E9000090B524573EB0B03EDD323682A46196BCC
:103EA00020463346884702460B462846314608F0EE
:103EB000EBFC1343DFD123681AF1FF32196B204664
:103EC0006BF10003884702460B465046594608F0FE
:103ED000DBFC1343CFD104F18003DFF8A8B00693D5
:103EE00058EA090349D0069B0598CDE9027342467A
:103EF0004B46CDE9005600F0B0FA04EB8000D0F854
:103F00001811D0F828A107915846FDF787F92046E7
:103F1000FFF70FFF48BBCDE9008933462A460799D2
:103F20002046FFF797FE1AEB050546F10006B8EBB1
:103F30000A0869F1000958EA09030ED007F11903CC
:103F400004EBC30154F833204B68AA42B3413FBF8E
:103F50000137E31993F8B43005932046FFF78AFE42
:103F600018B15846FDF75AF9BAE70648FDF756F971
:103F7000054881E76FF47A607EE700207CE700BFA8
:103F80005BF0FFFFF00500205DF0FFFF30B587B06C
:103F90000323039305AB02930023CDE900334FF0D5
:103FA000FF324FF0FF339F210546FFF7E0FD044647
:103FB000A0B99DF81430BF2B0ED12846FFF7B9FEEB
:103FC000CDE90244CDE900444FF0FF324FF0FF331A
:103FD00098212846FFF7CBFD204601E04FF0FF3047
:103FE00007B030BD2DE9F047044692B04548FDF7D3
:103FF00015F994F874310BB9C4F87031D4F87071B4
:104000000137012FC4F8707107D000253D48FDF736
:1040100005F9284612B0BDE8F0872046FFF74FFEAD
:10402000013002D16FF47A65F0E72046FFF7AEFF6A
:104030000028F7DB2046FFF71DFE00285FD0DFF8E1
:10404000D4A00025CDE90EA50DF118080EAE96E816
:104050000C002146C4E91A55C4E92055404604F134
:104060006809FFF79BFCCDF8009098E80F0000F07E
:10407000ACF8A84201DA244DC8E7CDE90EA50DF150
:10408000280896E80C0021464046FFF787FC0D9B68
:10409000CDF80490009398E80E002046FFF73EFC10
:1040A0000028E8DB2B46524621463046CDE904A5E0
:1040B000FFF774FCCDF8009096E80F0000F0C5F80B
:1040C0000028D8DBD4F86831C4F86C31D4E91C136B
:1040D0000E4A84F87471914273F1000395D34FF046
:1040E000FF33CDE90255CDE900554FF0FF32B7213E
:1040F0002046FFF73CFD0423C4F8603186E7044DF9
:1041000084E700BFF00500205EF0FFFF0100000122
:104110005DF0FFFFB93A000038B50546054B45F89C
:10412000043B0446FFF76CFD2846FDF721FB2046C3
:1041300038BD00BF70DF000010B50446FFF7ECFF8C
:1041400020464FF4BC71FFF759F8204610BD00001F
:1041500010B507490422044607F070FF28B96379B7
:10416000012B02D1A079013010BD4FF0FF30FBE7E9
:10417000BCDF00008378012B24D14268130EFF2B93
:104180000ED10378812B0DD0842B12D043B922F0AD
:104190007F420A60C2789200502AA8BF50224A602B
:1041A0000020704722F07F428A61C3789B00CB6178
:1041B000F6E722F07F42C1F8D020C3789B00C1F817
:1041C000D430EDE74FF0FF3070472DE9F04D8AB065
:1041D00004AE86E80F004FF0080A08AB4FF0000B62
:1041E0000093CDE902AB07990022002330468847AF
:1041F00000281FDB08A8FFF7ABFF051E1CDB00270C
:104200000824B846AF421BD008AB0093CDE902ABFF
:1042100007992246434630468847002812DB129908
:1042200008A8FFF7A7FF002807DB083448F10008BB
:104230000137E7E74FF0FF3528460AB0BDE8F08DBB
:104240000020FAE74FF0FF30F7E72DE9F04389B09F
:1042500004AF109C87E80F00D4E90232A5696362BD
:10426000013B42F1FF32C4E91832002D5FD0E5690D
:10427000002D5CD02846FEF7BFFF6B1E0133ACBF9C
:104280002A4600220021064607F017FFE269009641
:104290000023CDE902230799A26938468847002800
:1042A0004FDB337803F00303032B02D07378002B2A
:1042B00047D096F802C00CF101030A2B236240DCC0
:1042C0006FF04C08371D04F1240E04F14C0504F185
:1042D00060000F210023A8EB04083A6817F8049B3C
:1042E00022F0FF0202F580724EF8042B09F00F094C
:1042F000013A134405F8019BDA17C0E9003208EBD4
:104300000502944501EA090100F1080003F10103E7
:10431000E3DC0023A365012212EA01050BD0303350
:10432000002554F82330A3653046FEF769FF284680
:1043300009B0BDE8F08301335200042BD2B2EBD1B7
:10434000F2E74FF0FF35EFE7282981BF90F828000A
:1043500003090120984098BF4FF480707047F8B56A
:104360004B681C2B04460D4651D901F1B00004F1F5
:104370002403984201F1C00603D204F11C039E42BB
:1043800023D81022FF2107F098FE012305F1D00069
:104390001F46227F07FA02F2012A46F8042B0CD9A5
:1043A000617F46F8141CA96D8A4200D301B9AA6541
:1043B00095F84C201A4385F84C205B008642DBB20E
:1043C00004F10204E5D10020F8BD01234FF0FF37CE
:1043D0009C4640F8047B227F0CFA02F2012AC2605C
:1043E0000BD9617F40F8041CA96D8A420CD2AA65E2
:1043F00095F84C201A4385F84C205B00B042DBB2A4
:1044000004F10204E5D1DEE70029F0D0F0E74078BE
:104410000861FF284FF0FF3018BF0020D4E70346A3
:1044200070B5D2E90240A34271EB000012D2146AC7
:1044300084B1012C0CD06032002084420ADDD2E924
:1044400000659E428D4102F1080202D20130F4E77C
:10445000002070BD4FF0FF30FBE72DE9F74F994684
:104460000E9B0F9DCDE90002DDE90C6A093305F1D1
:10447000A80B03244FF0080805EBC305009B13EAC3
:10448000080F1AD05BF8247000233A463046514694
:1044900008F0FAF9134310D1019BBB4279F10003F4
:1044A0000BD3D5E90001731E4AF1FF32DB1942F14B
:1044B0000002984271EB020303D2013C4FEA580814
:1044C000DCD2204603B0BDE8F08F43680133DB083F
:1044D0000020C1E90230704783785B075ABF90F92A
:1044E0000700C0174FF0FF307047000010B5054BB4
:1044F00003602C33044640F8043FFDF70DFE2046D0
:1045000010BD00BFCCDF0000A0F10400EEE700BF4B
:1045100010B50446FFF7EAFF20461421FEF76EFEB1
:10452000204610BDA0F10400F2E703681A6AC36ACE
:10453000D31A1944B1FBF2F302FB1311036B8B4244
:1045400010B50BD94C09C26B012301F01F0103FA0E
:1045500001F152F824300B4342F82430002010BD02
:104560000368013304D04068431C584258417047E7
:104570000120704710B50B6804689C4209D0406860
:104580004A68904205D0944203D0181A18BF0120FF
:1045900010BD0020FCE72DE9F04F85B0DDE90E46A7
:1045A000109D03900F46914698460DB9284659E054
:1045B000039B1868B9F1000F1ED0D9F800304345AD
:1045C0001AD1D9F80410A14216D8826901EB020A67
:1045D000A24511D9AAEB040AAA45D9F8083028BF88
:1045E000AA46611A30465246194407F037FD564430
:1045F0005444A5EB0A05D8E73A68436942450ED111
:104600007968A1420BD801EB030AA24507D9AAEBAE
:10461000040AAA45BB6828BFAA46611AE2E7B4FBB0
:10462000F3F203FB1242D0F804B08AB99D420FD3D3
:10463000B5FBF3FA03FB1A5AA5EB0A0500953346BE
:1046400022464146D84768B92E442C445546ACE72B
:10465000A21A0093C7F80080BB687A604146D84729
:104660000028A2D005B0BDE8F08F1FB5069C0092CF
:10467000CDE9013400220B4600F11401FFF78BFF56
:1046800004B010BD03689B6A10B5044613B9C06935
:1046900007F0CCFC2368DB6A13B9A06A07F0C6FCFC
:1046A00023681B6B23B9E06BBDE8104007F0BEBC6C
:1046B00010BD2DE9F04786B005460F46144600F1BF
:1046C0001409D6184FF0010A0DF11708A64203D1BC
:1046D000002006B0BDE8F0870094CDE9018A3B4692
:1046E000002249462846FFF756FF01340028F0D142
:1046F0000E980122414602F0C1F8E7E72DE9F04F9C
:104700008BB01368049300265368059307460C4644
:10471000B0460DF1100B06AD4FF0100A5BF8269075
:10472000CDF800A02B46002249463846FFF79DFFF2
:1047300070B110F1340F06D146B1B8F1000F14BFBB
:1047400000206FF033000BB0BDE8F08F0126E5E7E5
:10475000B8F1000F04D0E269069B9B1A002BEBDB3B
:10476000079B23F00043132BE6D93A68D2699342A2
:10477000E2D84FF0FF3303A810222946039302F03A
:104780007DF8079B03A823F000430090103B102204
:1047900049463846FFF78DFF0028CAD1039B002BFE
:1047A000CAD10AAA86F0010302EB830304F11C0CB0
:1047B00053F8183CC4F80490C4E9023A95E80F0095
:1047C0004FF001088CE80F00B6E7F7B50446043057
:1047D0000E461546FFF7C4FE10B1002003B0F0BD31
:1047E000009001236A46294620460193FFF786FF81
:1047F0000028F3D105F124073846FFF7B1FE002861
:10480000EBD131463846FFF7B5FE38B13A46294676
:104810002046FFF773FF0028EED0DFE70120DDE739
:104820002DE9F04F87B0DDE9104506468B46174667
:1048300025444FF001090DF1170AA3EB0408AC421F
:1048400001D1012011E008EB04030093CDE901A997
:104850003B46002259463046FFF79DFE28B914F822
:10486000013B9DF817209A42E9D007B0BDE8F08FD0
:10487000F8B5C6690D68083EB5420F4613D3B5FBBF
:10488000F6F0013808F018F8841CA5EB8404B4FB9A
:10489000F6F4204608F010F8A5EB800004FB1600A3
:1048A00038602046F8BD0020FCE72DE9F04F89B0C4
:1048B0000646DDF84C90059288464BB94FF0FF3222
:1048C000C9F80020149A0020136009B0BDE8F08FE9
:1048D000013B07A900680793FFF7CAFF12A9054625
:1048E0003068FFF7C5FF4FF0040A07460DF1140BBF
:1048F000AF42059B03D3C9F80030129BE2E7EC1BE3
:10490000B4FA84F295FAA5F1B1FA81F1C2F11F046B
:104910008C4228BF0C46A2000092CDE901BA0022C9
:1049200041463046FFF737FE0028CED1012303FA77
:1049300004F42D1BDCE72DE9F04F8BB09046149A60
:10494000DDF858A0059306460F46002A36D0013AF6
:104950000068079207A9FFF78BFF059B04460DF13E
:10496000200B194605935046159B9847024628BBD5
:1049700024B304F00105C5F102018900CDE901B1BC
:1049800000904246059B39463046FFF704FE02463A
:10499000A0B9E34303F00109914507DC0AAB03EB3F
:1049A0008903023D53F8083C2C44DAE70899159B2B
:1049B0005046984701220028EED0024610460BB020
:1049C000BDE8F08F031D1944881870472DE9F7439F
:1049D00007460C46154601F124094FF01008226ADB
:1049E000E16822F0004301F10C00043B98421BD81F
:1049F0000C2300930A462B1D61683846FFF735FEED
:104A00000646B0B9E768EA79A97968792F60FFF7B7
:104A1000D9FF3844E060EA79A9796879FFF7D2FFD5
:104A2000A3691844A06104E0002A06DB29606FF046
:104A30000106304603B0BDE8F0834A4621463846B9
:104A4000FFF75CFE06460028F3D1A369C4F80C808A
:104A50001433A361C3E770B5054692B004300E4627
:104A6000FFF77EFD68BB0190012301AA07A9284634
:104A70000293FFF743FE044618B910A8FFF770FD34
:104A800010B1204612B070BD10AA07A92846FFF742
:104A900035FE38B903AA07A92846FFF797FF18B1D2
:104AA000831CEAD00446ECE79DF91030002BF1DBC3
:104AB0000822314605A807F0C1FA0028EAD10124EE
:104AC000DFE70024DDE72DE9F843054604300F4613
:104AD00014461E46FFF744FD10B10020BDE8F883E0
:104AE00001235062936202F1240806F1080940464E
:104AF000FFF736FD0028F0D1424621462846FFF751
:104B0000FDFD0028EAD1324621462846FFF75EFF28
:104B100010B1831CEBD0E1E7337903F07003202B55
:104B2000F1D139464846FFF725FD0028EBD1012099
:104B3000D4E700002DE9F04F2DED028B85B01F6802
:104B4000029340F6220353604368936008EE101A04
:104B50008368DFF83C91D3600546144649463846E1
:104B600007F0D3FC07EB000883464946404607F0B0
:104B7000B3FC0128064608EB000A05D117F80B30F4
:104B80002E2B0AD15746E9E7022806D102463F49B3
:104B9000404607F053FA0028F4D057464FF0010B77
:104BA0004946504607F0B1FC82444946504607F05A
:104BB00093FC024690B102280CD103903349504631
:104BC00007F03CFA039A28B9BBF1010B04D10AF1B2
:104BD0000207C3E70BF1010B9244E1E798F80000EC
:104BE000002845D0029BC3F800802379222B49D1AD
:104BF00004F1080A18EE101A52462846FFF77EFD07
:104C0000B0BB05F1140B18EE101A22462846FFF728
:104C1000DDFE68BB237903F07F03112B01D0222B2B
:104C2000F1D1E379B342EED12368627904331344BE
:104C3000A279CDE90086134418EE102A594652682D
:104C40002846FFF7EDFD002812DBDCD095F8413057
:104C5000002B83D194F90430002BBFF67FAF51466F
:104C60002846FFF7F8FE002807D001DB6FF00100AF
:104C700005B0BDEC028BBDE8F08F237903F07F0314
:104C800023716BE76FF01300F2E700BF00E0000054
:104C9000C4DC0000C368184710B50C468269A068E0
:104CA000FF2107F00AFA4FF0FF33236010BD38B53B
:104CB0008B6A016004460D46CBB1C361EB6A13B346
:104CC000A36204F120012846FFF7E6FF4FF0FF330F
:104CD000636123681A6BEAB1E26300204FF0FF338F
:104CE000C4E90133C4E90300A4F8400038BD4869B1
:104CF00007F094F9E0610028E0D12046FFF7C2FCFC
:104D00006FF00B00F2E7A86907F088F9A0620028AD
:104D1000D7D1F2E7586AC00807F080F9E0630028AD
:104D2000DBD1EAE7F7B50C4609684B1C0646174687
:104D300021D00068836900938568D4E90123A847DE
:104D4000054620B937B930682146FFF7A5FF284648
:104D500003B0F0BD33689B690193A36800933946A3
:104D6000D4E900233046FFF75BFD002805DBEAD1DC
:104D70006FF03305EBE70025E9E70546E7E72DE9A6
:104D8000F04F85B0DDE90E57109C80460E469246E6
:104D900099460CB920462DE03368D8F800004B4501
:104DA00082692AD17368AB4227D803EB020BAB456B
:104DB00023D9ABEB050BA345A5EB0300B36828BFD4
:104DC000A3465A463946184407F048F9D8F8003047
:104DD0009A695D44B5FBF2F302FB13535F44A4EB05
:104DE0000B04002BD5D1524631464046FFF79AFFBF
:104DF0000028CED005B0BDE8F08FB5FBF2F302FB82
:104E0000135343BB944226D3B4FBF2F302FB134B80
:104E1000A4EB0B030093039383682A461C46494680
:104E20003B46A0470028E5D1BAF1000F04D1039B0F
:104E30005C461F441D44ACE7039B4A46CDE9007322
:104E400051462B464046FFF7EBFC0028D2DBEED163
:104E50006FF03300CEE7EB1AC6F80090736098E766
:104E600030B543684B6087B0836801928B6002AABB
:104E700001AB05460C46FFF75DFEA0B99DF80C306E
:104E8000222B12D104AA21462846FFF737FC50B93D
:104E900063682361A36863610E23A3611023E36049
:104EA0002B6923602C6107B030BD6FF01300FAE767
:104EB000036900F110021BB18B4203D11B68136020
:104EC000002070471A461B68F5E7000070B50D46D4
:104ED000144686B006464FF484720021204607F03F
:104EE000ECF8AB690E2B0CD12046222300F8083BCE
:104EF000274907F0E9FAAB690133AB61012006B03D
:104F000070BD0F2B05D12046222300F8083B214914
:104F1000EFE702AA29463046FFF758FD18B1821C78
:104F200008BF0020EBE79DF80C3003F07F02112A48
:104F300001D0222AEDD11B060CD504A93046FFF77B
:104F40008AFD0028DBDBE4D19DF80C3003F07F0301
:104F50008DF80C309DF80C302370112B08BF059B89
:104F6000029A08BF63609DF80D309DF80E10043260
:104F70001A449DF80F3000930A4404F1080369684D
:104F80003046FFF772FB002808BF0120B7E700BFDB
:104F900001E0000000E000008869704710B501F1F1
:104FA00010020C46FFF7AAFB38B9236963606369F6
:104FB000A3600E23A3611023E36010BD2DE9F0412F
:104FC00007460C461546FFF7E9FF064640B9A561BE
:104FD00004F12408216A21F00043AB4203D3E560C9
:104FE0003046BDE8F0810029A5EB030508DA42460A
:104FF00021463846FFF782FB0028EBD00646EFE754
:105000006FF01506ECE7086A7047CB6948699B03A7
:1050100003D50B6A984238BF1846704770B594B0F4
:105020001546039103AB05AA09A90646FFF782FDC1
:105030000446C0B901464FF48472284607F03DF893
:105040009DF818302B70112B04BF089B6B60311D2D
:1050500007A8FFF78FFA05F10803044630B90C4999
:10506000184607F031FA204614B070BD059A9DF835
:1050700019109DF81B00009004320A449DF81A1084
:1050800030460A440A99FFF7F0FA0446EBE700BFFE
:10509000C4DC000030B599B00546FFF708FE0446B1
:1050A00058BB2B6868631B6AAB63C5E90B000290B1
:1050B000012302AA0DA928460393FFF71FFB04460C
:1050C00000BB202300930E9905AB10222846FFF762
:1050D000CCFA0446B0B9069B6B60079B0D49AB60E8
:1050E00008220BA806F0AAFF044648B90A9B1A0C2E
:1050F000012A0BD19BB2012B08D8204619B030BD34
:105100006FF033042846FFF7BDFAF6E76FF0150499
:10511000F8E700BF03E0000008B5FFF7B3FA00208E
:1051200008BD2DE9F043064697B004300F4690467F
:10513000FFF716FA00287ED1012305900693059902
:105140004046B847044618BB06994046B84704464F
:10515000F0B905AA0BA93046FFF7D0FA0446B8B952
:105160004FF00C09139B0E9A23F0004302F10C013F
:10517000043B994210D9149B059305A8159B0693EF
:10518000FFF7EEF90028DAD0F56806F114096DBBD7
:10519000204617B0BDE8F0830C99CDF8009008AB1D
:1051A0003046FFF762FA0546002842D19DF82320D9
:1051B0009DF822109DF82100FFF704FC0E9B184477
:1051C0009DF820300E9003F07003102BCAD10A9B7B
:1051D0000093CDE90178099B2A4606F11401304677
:1051E000FFF7A9FB0028BDD00446D1E7EB69DA033D
:1051F00011D4EB699B030CD5CDE901782B6A0093A0
:105200006B6A05F12C0249463046FFF794FB0028F3
:10521000EAD12D68BBE7CDE901786B6900932B6972
:1052200005F12C0249463046FFF785FB0028E0D007
:10523000DAE70446ACE70024AAE70000F8B52D4EF3
:1052400004460D460127236BD4E90D0198421DD178
:1052500000294BD0E06A22680344106A526A8A42ED
:1052600094BF22632163B3FBF0FC002100FB1C33DD
:105270006163D208E06BE36206F01FFF224631460D
:105280002046FFF74EFF0028DDD026E0421C626377
:105290000139E26BA1634FEA501C00F01F0152F884
:1052A0002CC007FA01F111EA0C0FCDD12168E36A95
:1052B000096A0344B3FBF1F001FB10332B60266B4A
:1052C0000125636BB3420FD0590903F01F0052F858
:1052D000211005FA00F0084000D1F8BD01336363E6
:1052E000A36B013BA363ECE70020F6E76FF01B0024
:1052F000F3E700BF2B45000073B50C4604310646AA
:10530000FFF79CFF0546F0B904F108013046FFF7AE
:1053100095FF0546B8B9042300930246616804F17D
:105320001C033046FFF7A1F910B110F1340F0DD175
:10533000E3690133E36114224FF0FF33C4E908232A
:10534000A3621023E360284602B070BD0546FAE769
:105350002DE9F04F044687B00E4600F1140A05A966
:105360002046FFF76BFF054648B905992068FFF70F
:1053700091FC054600283BD010F1340FEFD02846B1
:1053800007B0BDE8F08F0DF11307CDE90087736A10
:10539000CDF808905A4651462046FFF7FCF870B900
:1053A000CDE90179059BCDF80080524604F120013A
:1053B0002046FFF7E4FC20B110F1340FCFD00546B2
:1053C000DDE708F10108B36A4345DCD82368A16A28
:1053D0009A69706B06F042FE236AF362636A336374
:1053E000206804F12001FFF757FC059B7362C6E7B4
:1053F000804606F12C0B4FF00109E4E72DE9F04F50
:105400009B468DB0CB69049203F00302012A054646
:105410000C4600F020815E0314D4E66932051AD4EC
:10542000276A17EB0B0F00F1198116F4003618D01C
:10543000D946E369B9F1000F25D123F40023E361D4
:105440005A4604E000F00DF902460028E5D0104667
:105450000DB0BDE8F08F6269216A8A4288BF22627E
:10546000DEE763699F42E3D923620BAA0123214649
:1054700028468DF82C60FFF7C1FF021EE7DB236A88
:105480009F42F2D8D4E79B0304F12C0620D52B6869
:10549000A26ADB699A4242D12B681B6AAB63D4E9EA
:1054A0000832CDE9092305F1140A0BA92846FFF7B4
:1054B000C5FE0246F8B90B992868FFF7EBFB0246D8
:1054C00018B312F1340F16D14FF0FF332B62ECE713
:1054D000236A002BE0D004F128020292013B04F180
:1054E0002402019200933146D4E904232846FFF7B1
:1054F000DCF9024620B1E36943F40023E361A6E747
:1055000028683146FFF7C8FBC6E70A9B286843BBFB
:105510000B9A6262A362E36943F40033E361A84635
:1055200058F8143BDF69A36AFF1A4F4528BF4F465E
:10553000049B0193A36A00934246636A0297314633
:105540002846FFF71CFC0246002875D010F1340FE6
:10555000D1D121462846FFF7FBFE02460028E7D0BE
:10556000C9E7013B0AA905920A93FFF781F9296867
:105570000A9BC969059A01338B420A934AD10130CB
:1055800090FAA0F3B3FA83F30593013306939046A0
:1055900009AF4FEA880307930423CDE90173079B02
:1055A000009352460B9B31462846FFF7E8FB024624
:1055B000002886D1059B434530D1069B08F10108A0
:1055C0004345E6D80B9B6362069B9B00A2E7012341
:1055D000CDE901730022099BCDF800805146284691
:1055E000FEF7D9FF0246002885D10123CDE90173DA
:1055F00052460B9BCDF8008031462846FFF7BFFB93
:10560000024600287FF45DAF08F101080A9B984527
:10561000DDD37DE790460DF12307F7E70423CDE9BD
:105620000173079B00935146099B2846FEF7B3FF81
:1056300002460028C1D05EE7236A3B442362A36A86
:105640003B44A362049B3B4404932B681B6AAB63FB
:10565000A9EB0709EDE66FF00802F8E66FF01A0211
:10566000F5E6CB695A032DE9F04144BF23F48023CA
:10567000CB61CB6948BF4FF0FF32054648BFCA62D5
:1056800013F4003090B00C462CD00F6A2C2200216D
:1056900002A805F1140606F010FD2369069396E8AA
:1056A0000700636907930123CDE9093710AB03E9CC
:1056B00007004FF0FF38C5F81480226A63699A42E8
:1056C00013D304F12C08324641462846FFF72AFB43
:1056D00018B310F1340F05D121462846FFF738FEE4
:1056E0000028F0D010B0BDE8F08101230DF10702D1
:1056F00002A9284600F01DF80028F3DB01230DF174
:10570000070221462846FFF779FE0028EADB6B698D
:105710000133D2D0CDF83480CDE7636A2361236AA8
:105720006361E36923F4003343F48033C4E907374A
:10573000D8E72DE9F04F1D46CB69904603F00302F0
:10574000022A87B007460C4654D09A0305D4266A2D
:105750006269964208D3002003E0FFF782FF002829
:10576000F5D007B0BDE8F08F961BAE4228BF2E469D
:10577000B14604F12C0104F1280A04F1240BB9F11B
:10578000000F01D13046ECE7E3695B0304D53B68C9
:10579000A26ADB699A4210D1236A0093CDE901BA6B
:1057A000D4E9042338460591FFF77FF80028D8D1C3
:1057B000E369059943F48023E3613A68A36AD569F4
:1057C0000093ED1A4D4528BF4D46CDE90185636A2A
:1057D000059100223846FEF7DEFE0028C1D1236A7B
:1057E00005992B442362A36A2B44A362A844A9EB26
:1057F0000509C4E76FF00800B3E770B50D4614461D
:105800001E46FFF72EFF70B93EB1012E2B6A01D163
:105810001C4402E0022E07D01C46002CA6BF2C62BE
:1058200020466FF0150070BD6B69F1E72DE9F0417E
:10583000CB6903F00303012B86B005460C461646E0
:1058400043D0FFF7E2FB90421AD92846FFF709FF41
:1058500098B905AB029304F11003CDE900630590FC
:10586000D4E9042304F12C012846FFF71EF820B9DF
:10587000E369666143F48033E36106B0BDE8F0811B
:1058800026D20F6AB8420DD14FF00008236AB34206
:1058900010D300233A4621462846FFF7AEFF00EA20
:1058A000E070EAE7022300222846FFF7A6FF00285F
:1058B000EADAE2E7012305AA214628468DF814809A
:1058C000FFF79CFD0028E1DAD7E76FF00800D4E786
:1058D0000020D2E7F0B5012680F84060A7B004466A
:1058E0000430FEF73DFE0546002879D101462C2202
:1058F00005A806F0E2FB4FF000432822294610A835
:105900000D9306F0DAFB1A9623681B6A9D4202D3B8
:105910006FF0330020E019A8FEF722FE00285FD1C7
:1059200019AA10A92046FEF7E9FEA8B90D9B002B85
:1059300034DB01AB1BAA0EA92046FFF7C4F80028F0
:105940000ADB0BD1199B0E931A9B0F9300231A4667
:1059500005A9204600F046F827B0F0BD039A0E993D
:10596000049B0F988A4201D1984217D0824201D1FC
:10597000994213D00E92E8E79DF97030002B0DDAB2
:105980001DA92046FFF767F80028E5DB1BD01BAAFE
:1059900010A9204600F045FA0028DDD11BAA10A965
:1059A0002046FFF713F80028E6D0831CD4D110AFAF
:1059B0000FCF05AE0FC60FCF0FC697E80700013512
:1059C00086E80700A0E79DF8703003F07F038DF8AC
:1059D00070301BAA034610A9204600F046F9DBE709
:1059E0000020B9E72DE9F04F2DED028B9BB00D465D
:1059F0000793CB6905920133CB610B1DD1E90114EB
:105A00000646C5E90141079808EE103A02EB001777
:105A100013469F420FD1CDE90941002306936968DF
:105A20003068FFF737F9044668B114F1340F00F01D
:105A3000EB802046F6E0D8682A6A02445868121AB9
:105A40002A621033E5E705F11C080DF12C094FF02F
:105A5000FF3310224146484606F1200A10270B93D7
:105A600000F00CFF00942246CDE901876B68514697
:105A70003046FFF784F904460028D6D108EE909A04
:105A80008346B8462AE0079B9B4580F29880059A9A
:105A90004FEA0B1302EB0B19D358434540F08F80AC
:105AA000D9E9021218EE900A00F0E8FED9F80C309D
:105AB0000293D9F808300022CDE9007351466B6893
:105AC0003046FFF75CF904460028AED1D9F804301F
:105AD0009844D9F80C300BF1010B1F442B6A23F0CA
